{
  "contractName": "SmartLeagues",
  "abi": [
    {
      "inputs": [],
      "stateMutability": "nonpayable",
      "type": "constructor"
    },
    {
      "anonymous": false,
      "inputs": [
        {
          "indexed": true,
          "internalType": "address",
          "name": "_owner",
          "type": "address"
        },
        {
          "indexed": true,
          "internalType": "bytes32",
          "name": "_leagueHash",
          "type": "bytes32"
        }
      ],
      "name": "NewLeague",
      "type": "event"
    },
    {
      "stateMutability": "payable",
      "type": "fallback"
    },
    {
      "stateMutability": "payable",
      "type": "receive"
    },
    {
      "inputs": [
        {
          "internalType": "string",
          "name": "_name",
          "type": "string"
        }
      ],
      "name": "createLeague",
      "outputs": [],
      "stateMutability": "nonpayable",
      "type": "function"
    },
    {
      "inputs": [
        {
          "internalType": "string",
          "name": "_leagueName",
          "type": "string"
        },
        {
          "internalType": "uint256",
          "name": "_priceToJoin",
          "type": "uint256"
        },
        {
          "internalType": "uint256",
          "name": "_priceAcePool",
          "type": "uint256"
        },
        {
          "internalType": "uint16",
          "name": "_maxPlayers",
          "type": "uint16"
        },
        {
          "internalType": "uint16",
          "name": "_numberOfHoles",
          "type": "uint16"
        },
        {
          "internalType": "uint8[]",
          "name": "_payoutPercentage",
          "type": "uint8[]"
        }
      ],
      "name": "startLeagueRound",
      "outputs": [],
      "stateMutability": "nonpayable",
      "type": "function"
    },
    {
      "inputs": [
        {
          "internalType": "string",
          "name": "_leagueName",
          "type": "string"
        },
        {
          "internalType": "bool",
          "name": "_joinAcePool",
          "type": "bool"
        }
      ],
      "name": "joinLeagueRound",
      "outputs": [],
      "stateMutability": "payable",
      "type": "function"
    },
    {
      "inputs": [
        {
          "internalType": "string",
          "name": "_leagueName",
          "type": "string"
        },
        {
          "internalType": "uint16[]",
          "name": "_holeScore",
          "type": "uint16[]"
        }
      ],
      "name": "submitScores",
      "outputs": [],
      "stateMutability": "payable",
      "type": "function"
    },
    {
      "inputs": [
        {
          "internalType": "string",
          "name": "_leagueName",
          "type": "string"
        }
      ],
      "name": "forfeitRound",
      "outputs": [],
      "stateMutability": "nonpayable",
      "type": "function"
    },
    {
      "inputs": [
        {
          "internalType": "string",
          "name": "_leagueName",
          "type": "string"
        },
        {
          "internalType": "address",
          "name": "_addressCheck",
          "type": "address"
        }
      ],
      "name": "addressInRound",
      "outputs": [
        {
          "internalType": "uint16",
          "name": "",
          "type": "uint16"
        }
      ],
      "stateMutability": "view",
      "type": "function"
    },
    {
      "inputs": [
        {
          "internalType": "string",
          "name": "_leagueName",
          "type": "string"
        }
      ],
      "name": "getLeagueInfo",
      "outputs": [
        {
          "components": [
            {
              "internalType": "bytes32",
              "name": "name",
              "type": "bytes32"
            },
            {
              "internalType": "address",
              "name": "owner",
              "type": "address"
            },
            {
              "internalType": "uint256",
              "name": "balance",
              "type": "uint256"
            },
            {
              "internalType": "uint256",
              "name": "acePoolBalance",
              "type": "uint256"
            },
            {
              "components": [
                {
                  "components": [
                    {
                      "internalType": "address payable",
                      "name": "userAddress",
                      "type": "address"
                    },
                    {
                      "internalType": "uint16[]",
                      "name": "holeScores",
                      "type": "uint16[]"
                    },
                    {
                      "internalType": "uint256",
                      "name": "totalScore",
                      "type": "uint256"
                    },
                    {
                      "internalType": "bool",
                      "name": "scoresSubmitted",
                      "type": "bool"
                    },
                    {
                      "internalType": "bool",
                      "name": "acePoolEntry",
                      "type": "bool"
                    },
                    {
                      "internalType": "bool",
                      "name": "acePoolWin",
                      "type": "bool"
                    }
                  ],
                  "internalType": "struct SmartLeagues.Player[]",
                  "name": "player",
                  "type": "tuple[]"
                },
                {
                  "internalType": "uint256",
                  "name": "balance",
                  "type": "uint256"
                },
                {
                  "internalType": "uint256",
                  "name": "priceToJoin",
                  "type": "uint256"
                },
                {
                  "internalType": "uint256",
                  "name": "priceAcePool",
                  "type": "uint256"
                },
                {
                  "internalType": "address[]",
                  "name": "acePoolWinners",
                  "type": "address[]"
                },
                {
                  "internalType": "uint16",
                  "name": "maxPlayers",
                  "type": "uint16"
                },
                {
                  "internalType": "uint16",
                  "name": "finishedCount",
                  "type": "uint16"
                },
                {
                  "internalType": "uint16",
                  "name": "numberOfHoles",
                  "type": "uint16"
                },
                {
                  "internalType": "uint8[]",
                  "name": "payoutPercentage",
                  "type": "uint8[]"
                }
              ],
              "internalType": "struct SmartLeagues.Round",
              "name": "round",
              "type": "tuple"
            },
            {
              "internalType": "bool",
              "name": "roundOpen",
              "type": "bool"
            }
          ],
          "internalType": "struct SmartLeagues.League",
          "name": "",
          "type": "tuple"
        }
      ],
      "stateMutability": "view",
      "type": "function"
    },
    {
      "inputs": [
        {
          "internalType": "string",
          "name": "_leagueName",
          "type": "string"
        }
      ],
      "name": "getLeagueRoundInfo",
      "outputs": [
        {
          "components": [
            {
              "components": [
                {
                  "internalType": "address payable",
                  "name": "userAddress",
                  "type": "address"
                },
                {
                  "internalType": "uint16[]",
                  "name": "holeScores",
                  "type": "uint16[]"
                },
                {
                  "internalType": "uint256",
                  "name": "totalScore",
                  "type": "uint256"
                },
                {
                  "internalType": "bool",
                  "name": "scoresSubmitted",
                  "type": "bool"
                },
                {
                  "internalType": "bool",
                  "name": "acePoolEntry",
                  "type": "bool"
                },
                {
                  "internalType": "bool",
                  "name": "acePoolWin",
                  "type": "bool"
                }
              ],
              "internalType": "struct SmartLeagues.Player[]",
              "name": "player",
              "type": "tuple[]"
            },
            {
              "internalType": "uint256",
              "name": "balance",
              "type": "uint256"
            },
            {
              "internalType": "uint256",
              "name": "priceToJoin",
              "type": "uint256"
            },
            {
              "internalType": "uint256",
              "name": "priceAcePool",
              "type": "uint256"
            },
            {
              "internalType": "address[]",
              "name": "acePoolWinners",
              "type": "address[]"
            },
            {
              "internalType": "uint16",
              "name": "maxPlayers",
              "type": "uint16"
            },
            {
              "internalType": "uint16",
              "name": "finishedCount",
              "type": "uint16"
            },
            {
              "internalType": "uint16",
              "name": "numberOfHoles",
              "type": "uint16"
            },
            {
              "internalType": "uint8[]",
              "name": "payoutPercentage",
              "type": "uint8[]"
            }
          ],
          "internalType": "struct SmartLeagues.Round",
          "name": "",
          "type": "tuple"
        }
      ],
      "stateMutability": "view",
      "type": "function"
    },
    {
      "inputs": [
        {
          "internalType": "string",
          "name": "_leagueName",
          "type": "string"
        },
        {
          "internalType": "address",
          "name": "_address",
          "type": "address"
        }
      ],
      "name": "getLeagueRoundPlayerInfo",
      "outputs": [
        {
          "components": [
            {
              "internalType": "address payable",
              "name": "userAddress",
              "type": "address"
            },
            {
              "internalType": "uint16[]",
              "name": "holeScores",
              "type": "uint16[]"
            },
            {
              "internalType": "uint256",
              "name": "totalScore",
              "type": "uint256"
            },
            {
              "internalType": "bool",
              "name": "scoresSubmitted",
              "type": "bool"
            },
            {
              "internalType": "bool",
              "name": "acePoolEntry",
              "type": "bool"
            },
            {
              "internalType": "bool",
              "name": "acePoolWin",
              "type": "bool"
            }
          ],
          "internalType": "struct SmartLeagues.Player",
          "name": "",
          "type": "tuple"
        }
      ],
      "stateMutability": "view",
      "type": "function"
    }
  ],
  "bytecode": "0x60806040527fffffffffffffffffffffffffffffffffffffffffffffffffffffffffffffffff60045561ffff600560006101000a81548161ffff021916908361ffff16021790555034801561005357600080fd5b506001600081905550615f05806200006c6000396000f3fe60806040526004361061008a5760003560e01c8063832564e011610059578063832564e014610152578063a1170f151461018f578063a5e19cff146101b8578063f2044682146101f5578063fb69d2651461021e57610091565b806333e790161461009357806341666e28146100d05780634cf040491461010d578063532770471461013657610091565b3661009157005b005b34801561009f57600080fd5b506100ba60048036038101906100b59190614275565b61023a565b6040516100c79190615698565b60405180910390f35b3480156100dc57600080fd5b506100f760048036038101906100f291906142b6565b6106d9565b60405161010491906156fe565b60405180910390f35b34801561011957600080fd5b50610134600480360381019061012f91906143ca565b6108ac565b005b610150600480360381019061014b919061430a565b610e58565b005b34801561015e57600080fd5b50610179600480360381019061017491906142b6565b6115b6565b60405161018691906156ba565b60405180910390f35b34801561019b57600080fd5b506101b660048036038101906101b19190614275565b611883565b005b3480156101c457600080fd5b506101df60048036038101906101da9190614275565b611a53565b6040516101ec91906156dc565b60405180910390f35b34801561020157600080fd5b5061021c60048036038101906102179190614275565b611eb5565b005b61023860048036038101906102339190614376565b612283565b005b610242613c82565b816002600082604051602001610258919061532c565b60405160208183030381529060405280519060200120815260200190815260200160002060009054906101000a900460ff166102c9576040517f08c379a00000000000000000000000000000000000000000000000000000000081526004016102c090615378565b60405180910390fd5b6000836040516020016102dc919061532c565b604051602081830303815290604052805190602001209050600160008281526020019081526020016000206040518060c0016040529081600082015481526020016001820160009054906101000a900473ffffffffffffffffffffffffffffffffffffffff1673ffffffffffffffffffffffffffffffffffffffff1673ffffffffffffffffffffffffffffffffffffffff1681526020016002820154815260200160038201548152602001600482016040518061012001604052908160008201805480602002602001604051908101604052809291908181526020016000905b8282101561051f57838290600052602060002090600402016040518060c00160405290816000820160009054906101000a900473ffffffffffffffffffffffffffffffffffffffff1673ffffffffffffffffffffffffffffffffffffffff1673ffffffffffffffffffffffffffffffffffffffff168152602001600182018054806020026020016040519081016040528092919081815260200182805480156104ac57602002820191906000526020600020906000905b82829054906101000a900461ffff1661ffff16815260200190600201906020826001010492830192600103820291508084116104735790505b50505050508152602001600282015481526020016003820160009054906101000a900460ff161515151581526020016003820160019054906101000a900460ff161515151581526020016003820160029054906101000a900460ff161515151581525050815260200190600101906103bc565b505050508152602001600182015481526020016002820154815260200160038201548152602001600482018054806020026020016040519081016040528092919081815260200182805480156105ca57602002820191906000526020600020905b8160009054906101000a900473ffffffffffffffffffffffffffffffffffffffff1673ffffffffffffffffffffffffffffffffffffffff1681526020019060010190808311610580575b505050505081526020016005820160009054906101000a900461ffff1661ffff1661ffff1681526020016005820160029054906101000a900461ffff1661ffff1661ffff1681526020016005820160049054906101000a900461ffff1661ffff1661ffff168152602001600682018054806020026020016040519081016040528092919081815260200182805480156106a857602002820191906000526020600020906000905b82829054906101000a900460ff1660ff16815260200190600101906020826000010492830192600103820291508084116106715790505b5050505050815250508152602001600b820160009054906101000a900460ff16151515158152505092505050919050565b60008260026000826040516020016106f1919061532c565b60405160208183030381529060405280519060200120815260200190815260200160002060009054906101000a900460ff16610762576040517f08c379a000000000000000000000000000000000000000000000000000000000815260040161075990615378565b60405180910390fd5b600084604051602001610775919061532c565b60405160208183030381529060405280519060200120905060005b60016000838152602001908152602001600020600401600001805490508161ffff16101561088f578473ffffffffffffffffffffffffffffffffffffffff16600160008481526020019081526020016000206004016000018261ffff1681548110610824577f4e487b7100000000000000000000000000000000000000000000000000000000600052603260045260246000fd5b906000526020600020906004020160000160009054906101000a900473ffffffffffffffffffffffffffffffffffffffff1673ffffffffffffffffffffffffffffffffffffffff16141561087c5780935050506108a5565b808061088790615d5b565b915050610790565b50600560009054906101000a900461ffff169250505b5092915050565b8560026000826040516020016108c2919061532c565b60405160208183030381529060405280519060200120815260200190815260200160002060009054906101000a900460ff16610933576040517f08c379a000000000000000000000000000000000000000000000000000000000815260040161092a90615378565b60405180910390fd5b863373ffffffffffffffffffffffffffffffffffffffff166001600083604051602001610960919061532c565b60405160208183030381529060405280519060200120815260200190815260200160002060010160009054906101000a900473ffffffffffffffffffffffffffffffffffffffff1673ffffffffffffffffffffffffffffffffffffffff16146109fe576040517f08c379a00000000000000000000000000000000000000000000000000000000081526004016109f590615398565b60405180910390fd5b600088604051602001610a11919061532c565b60405160208183030381529060405280519060200120905060016000828152602001908152602001600020600b0160009054906101000a900460ff1615610a8d576040517f08c379a0000000000000000000000000000000000000000000000000000000008152600401610a8490615678565b60405180910390fd5b60008811610ad0576040517f08c379a0000000000000000000000000000000000000000000000000000000008152600401610ac790615538565b60405180910390fd5b6000871015610b14576040517f08c379a0000000000000000000000000000000000000000000000000000000008152600401610b0b906153f8565b60405180910390fd5b60018661ffff1611610b5b576040517f08c379a0000000000000000000000000000000000000000000000000000000008152600401610b5290615438565b60405180910390fd5b60008561ffff1611610ba2576040517f08c379a0000000000000000000000000000000000000000000000000000000008152600401610b9990615558565b60405180910390fd5b6000805b855181108015610bfa57506000868281518110610bec577f4e487b7100000000000000000000000000000000000000000000000000000000600052603260045260246000fd5b602002602001015160ff1614155b15610ca757858181518110610c38577f4e487b7100000000000000000000000000000000000000000000000000000000600052603260045260246000fd5b602002602001015182610c4b9190615a0a565b915060648260ff161115610c94576040517f08c379a0000000000000000000000000000000000000000000000000000000008152600401610c8b90615518565b60405180910390fd5b8080610c9f90615d86565b915050610ba6565b506001806000848152602001908152602001600020600b0160006101000a81548160ff021916908315150217905550600160008381526020019081526020016000206004016000016000610cfb9190613cd9565b600160008381526020019081526020016000206004016004016000610d209190613cfd565b886001600084815260200190815260200160002060040160020181905550876001600084815260200190815260200160002060040160030181905550866001600084815260200190815260200160002060040160050160006101000a81548161ffff021916908361ffff16021790555060006001600084815260200190815260200160002060040160050160026101000a81548161ffff021916908361ffff160217905550856001600084815260200190815260200160002060040160050160046101000a81548161ffff021916908361ffff160217905550600160008381526020019081526020016000206004016006016000610e1e9190613d1e565b84600160008481526020019081526020016000206004016006019080519060200190610e4b929190613d46565b5050505050505050505050565b816002600082604051602001610e6e919061532c565b60405160208183030381529060405280519060200120815260200190815260200160002060009054906101000a900460ff16610edf576040517f08c379a0000000000000000000000000000000000000000000000000000000008152600401610ed690615378565b60405180910390fd5b60026000541415610f25576040517f08c379a0000000000000000000000000000000000000000000000000000000008152600401610f1c906155f8565b60405180910390fd5b6002600081905550600083604051602001610f40919061532c565b60405160208183030381529060405280519060200120905060016000828152602001908152602001600020600b0160009054906101000a900460ff16610fbb576040517f08c379a0000000000000000000000000000000000000000000000000000000008152600401610fb290615618565b60405180910390fd5b6000610fc785336106d9565b9050600560009054906101000a900461ffff1661ffff168161ffff161415611024576040517f08c379a000000000000000000000000000000000000000000000000000000000815260040161101b90615478565b60405180910390fd5b600160008381526020019081526020016000206004016000018161ffff1681548110611079577f4e487b7100000000000000000000000000000000000000000000000000000000600052603260045260246000fd5b906000526020600020906004020160030160009054906101000a900460ff16156110d8576040517f08c379a00000000000000000000000000000000000000000000000000000000081526004016110cf90615638565b60405180910390fd5b60018060008481526020019081526020016000206004016000018261ffff168154811061112e577f4e487b7100000000000000000000000000000000000000000000000000000000600052603260045260246000fd5b906000526020600020906004020160030160006101000a81548160ff0219169083151502179055506001600083815260200190815260200160002060040160050160049054906101000a900461ffff1661ffff168451146111c4576040517f08c379a00000000000000000000000000000000000000000000000000000000081526004016111bb90615498565b60405180910390fd5b83600160008481526020019081526020016000206004016000018261ffff168154811061121a577f4e487b7100000000000000000000000000000000000000000000000000000000600052603260045260246000fd5b9060005260206000209060040201600101908051906020019061123e929190613ded565b506000805b6001600085815260200190815260200160002060040160050160049054906101000a900461ffff1661ffff1681101561148f576112c48682815181106112b2577f4e487b7100000000000000000000000000000000000000000000000000000000600052603260045260246000fd5b602002602001015161ffff1683612b98565b9150600160008581526020019081526020016000206004016000018361ffff168154811061131b577f4e487b7100000000000000000000000000000000000000000000000000000000600052603260045260246000fd5b906000526020600020906004020160030160019054906101000a900460ff16801561138a5750600186828151811061137c577f4e487b7100000000000000000000000000000000000000000000000000000000600052603260045260246000fd5b602002602001015161ffff16145b1561147c57600160008581526020019081526020016000206004016000018361ffff16815481106113e4577f4e487b7100000000000000000000000000000000000000000000000000000000600052603260045260246000fd5b906000526020600020906004020160030160029054906101000a90505060016000858152602001908152602001600020600401600401339080600181540180825580915050600190039060005260206000200160009091909190916101000a81548173ffffffffffffffffffffffffffffffffffffffff021916908373ffffffffffffffffffffffffffffffffffffffff1602179055505b808061148790615d86565b915050611243565b5080600160008581526020019081526020016000206004016000018361ffff16815481106114e6577f4e487b7100000000000000000000000000000000000000000000000000000000600052603260045260246000fd5b90600052602060002090600402016002018190555060016000848152602001908152602001600020600401600501600281819054906101000a900461ffff168092919061153290615d5b565b91906101000a81548161ffff021916908361ffff1602179055505060016000848152602001908152602001600020600401600001805490506001600085815260200190815260200160002060040160050160029054906101000a900461ffff1661ffff1614156115a6576115a586612bae565b5b5050506001600081905550505050565b6115be613e97565b8260026000826040516020016115d4919061532c565b60405160208183030381529060405280519060200120815260200190815260200160002060009054906101000a900460ff16611645576040517f08c379a000000000000000000000000000000000000000000000000000000000815260040161163c90615378565b60405180910390fd5b600061165185856106d9565b9050600560009054906101000a900461ffff1661ffff168161ffff1614156116ae576040517f08c379a00000000000000000000000000000000000000000000000000000000081526004016116a590615458565b60405180910390fd5b6000856040516020016116c1919061532c565b604051602081830303815290604052805190602001209050600160008281526020019081526020016000206004016000018261ffff168154811061172e577f4e487b7100000000000000000000000000000000000000000000000000000000600052603260045260246000fd5b90600052602060002090600402016040518060c00160405290816000820160009054906101000a900473ffffffffffffffffffffffffffffffffffffffff1673ffffffffffffffffffffffffffffffffffffffff1673ffffffffffffffffffffffffffffffffffffffff1681526020016001820180548060200260200160405190810160405280929190818152602001828054801561181457602002820191906000526020600020906000905b82829054906101000a900461ffff1661ffff16815260200190600201906020826001010492830192600103820291508084116117db5790505b50505050508152602001600282015481526020016003820160009054906101000a900460ff161515151581526020016003820160019054906101000a900460ff161515151581526020016003820160029054906101000a900460ff161515151581525050935050505092915050565b806002600082604051602001611899919061532c565b60405160208183030381529060405280519060200120815260200190815260200160002060009054906101000a900460ff161561190b576040517f08c379a0000000000000000000000000000000000000000000000000000000008152600401611902906153b8565b60405180910390fd5b60008260405160200161191e919061532c565b60405160208183030381529060405280519060200120905060016002600083815260200190815260200160002060006101000a81548160ff021916908315150217905550806001600083815260200190815260200160002060000181905550336001600083815260200190815260200160002060010160006101000a81548173ffffffffffffffffffffffffffffffffffffffff021916908373ffffffffffffffffffffffffffffffffffffffff1602179055506000600160008381526020019081526020016000206002018190555060006001600083815260200190815260200160002060030181905550803373ffffffffffffffffffffffffffffffffffffffff167f31c01fc8df5211cb4bb5037c775fee375f3277dd33bfb0a08b3bb0825f2ffaac60405160405180910390a3505050565b611a5b613ee9565b816002600082604051602001611a71919061532c565b60405160208183030381529060405280519060200120815260200190815260200160002060009054906101000a900460ff16611ae2576040517f08c379a0000000000000000000000000000000000000000000000000000000008152600401611ad990615378565b60405180910390fd5b600083604051602001611af5919061532c565b60405160208183030381529060405280519060200120905060016000828152602001908152602001600020600b0160009054906101000a900460ff16611b70576040517f08c379a0000000000000000000000000000000000000000000000000000000008152600401611b67906154d8565b60405180910390fd5b600160008281526020019081526020016000206004016040518061012001604052908160008201805480602002602001604051908101604052809291908181526020016000905b82821015611d1a57838290600052602060002090600402016040518060c00160405290816000820160009054906101000a900473ffffffffffffffffffffffffffffffffffffffff1673ffffffffffffffffffffffffffffffffffffffff1673ffffffffffffffffffffffffffffffffffffffff16815260200160018201805480602002602001604051908101604052809291908181526020018280548015611ca757602002820191906000526020600020906000905b82829054906101000a900461ffff1661ffff1681526020019060020190602082600101049283019260010382029150808411611c6e5790505b50505050508152602001600282015481526020016003820160009054906101000a900460ff161515151581526020016003820160019054906101000a900460ff161515151581526020016003820160029054906101000a900460ff16151515158152505081526020019060010190611bb7565b50505050815260200160018201548152602001600282015481526020016003820154815260200160048201805480602002602001604051908101604052809291908181526020018280548015611dc557602002820191906000526020600020905b8160009054906101000a900473ffffffffffffffffffffffffffffffffffffffff1673ffffffffffffffffffffffffffffffffffffffff1681526020019060010190808311611d7b575b505050505081526020016005820160009054906101000a900461ffff1661ffff1661ffff1681526020016005820160029054906101000a900461ffff1661ffff1661ffff1681526020016005820160049054906101000a900461ffff1661ffff1661ffff16815260200160068201805480602002602001604051908101604052809291908181526020018280548015611ea357602002820191906000526020600020906000905b82829054906101000a900460ff1660ff1681526020019060010190602082600001049283019260010382029150808411611e6c5790505b50505050508152505092505050919050565b806002600082604051602001611ecb919061532c565b60405160208183030381529060405280519060200120815260200190815260200160002060009054906101000a900460ff16611f3c576040517f08c379a0000000000000000000000000000000000000000000000000000000008152600401611f3390615378565b60405180910390fd5b600082604051602001611f4f919061532c565b60405160208183030381529060405280519060200120905060016000828152602001908152602001600020600b0160009054906101000a900460ff16611fca576040517f08c379a0000000000000000000000000000000000000000000000000000000008152600401611fc190615618565b60405180910390fd5b6000611fd684336106d9565b9050600560009054906101000a900461ffff1661ffff168161ffff161415612033576040517f08c379a000000000000000000000000000000000000000000000000000000000815260040161202a906154b8565b60405180910390fd5b600160008381526020019081526020016000206004016000018161ffff1681548110612088577f4e487b7100000000000000000000000000000000000000000000000000000000600052603260045260246000fd5b906000526020600020906004020160030160009054906101000a900460ff16156120e7576040517f08c379a00000000000000000000000000000000000000000000000000000000081526004016120de90615638565b60405180910390fd5b60018060008481526020019081526020016000206004016000018261ffff168154811061213d577f4e487b7100000000000000000000000000000000000000000000000000000000600052603260045260246000fd5b906000526020600020906004020160030160006101000a81548160ff021916908315150217905550600454600160008481526020019081526020016000206004016000018261ffff16815481106121bd577f4e487b7100000000000000000000000000000000000000000000000000000000600052603260045260246000fd5b90600052602060002090600402016002018190555060016000838152602001908152602001600020600401600501600281819054906101000a900461ffff168092919061220990615d5b565b91906101000a81548161ffff021916908361ffff1602179055505060016000838152602001908152602001600020600401600001805490506001600084815260200190815260200160002060040160050160029054906101000a900461ffff1661ffff16141561227d5761227c84612bae565b5b50505050565b816002600082604051602001612299919061532c565b60405160208183030381529060405280519060200120815260200190815260200160002060009054906101000a900460ff1661230a576040517f08c379a000000000000000000000000000000000000000000000000000000000815260040161230190615378565b60405180910390fd5b8260008160405160200161231e919061532c565b60405160208183030381529060405280519060200120905060005b60016000838152602001908152602001600020600401600001805490508161ffff161015612469573373ffffffffffffffffffffffffffffffffffffffff16600160008481526020019081526020016000206004016000018261ffff16815481106123cd577f4e487b7100000000000000000000000000000000000000000000000000000000600052603260045260246000fd5b906000526020600020906004020160000160009054906101000a900473ffffffffffffffffffffffffffffffffffffffff1673ffffffffffffffffffffffffffffffffffffffff161415612456576040517f08c379a000000000000000000000000000000000000000000000000000000000815260040161244d90615418565b60405180910390fd5b808061246190615d5b565b915050612339565b50600260005414156124b0576040517f08c379a00000000000000000000000000000000000000000000000000000000081526004016124a7906155f8565b60405180910390fd5b60026000819055506000856040516020016124cb919061532c565b60405160208183030381529060405280519060200120905060016000828152602001908152602001600020600b0160009054906101000a900460ff16612546576040517f08c379a000000000000000000000000000000000000000000000000000000000815260040161253d90615578565b60405180910390fd5b6001600082815260200190815260200160002060040160050160009054906101000a900461ffff1661ffff166001600083815260200190815260200160002060040160000180549050106125cf576040517f08c379a00000000000000000000000000000000000000000000000000000000081526004016125c6906154f8565b60405180910390fd5b6125d7613e97565b33816000019073ffffffffffffffffffffffffffffffffffffffff16908173ffffffffffffffffffffffffffffffffffffffff1681525050600081606001901515908115158152505080602001606081525085156129115761266b60016000848152602001908152602001600020600401600201546001600085815260200190815260200160002060040160030154612b98565b34146126ac576040517f08c379a00000000000000000000000000000000000000000000000000000000081526004016126a390615358565b60405180910390fd5b60016000838152602001908152602001600020600401600201546001600084815260200190815260200160002060040160010160008282546126ee91906159b4565b92505081905550600160008381526020019081526020016000206004016003015460016000848152602001908152602001600020600301600082825461273491906159b4565b9250508190555060018160800190151590811515815250506001600083815260200190815260200160002060040160000181908060018154018082558091505060019003906000526020600020906004020160009091909190915060008201518160000160006101000a81548173ffffffffffffffffffffffffffffffffffffffff021916908373ffffffffffffffffffffffffffffffffffffffff16021790555060208201518160010190805190602001906127f2929190613ded565b506040820151816002015560608201518160030160006101000a81548160ff02191690831515021790555060808201518160030160016101000a81548160ff02191690831515021790555060a08201518160030160026101000a81548160ff021916908315150217905550505060003073ffffffffffffffffffffffffffffffffffffffff163460405161288590615343565b60006040518083038185875af1925050503d80600081146128c2576040519150601f19603f3d011682016040523d82523d6000602084013e6128c7565b606091505b505090508061290b576040517f08c379a0000000000000000000000000000000000000000000000000000000008152600401612902906153d8565b60405180910390fd5b50612b87565b6001600083815260200190815260200160002060040160020154341461296c576040517f08c379a0000000000000000000000000000000000000000000000000000000008152600401612963906155b8565b60405180910390fd5b60016000838152602001908152602001600020600401600201546001600084815260200190815260200160002060040160010160008282546129ae91906159b4565b9250508190555060008160800190151590811515815250506001600083815260200190815260200160002060040160000181908060018154018082558091505060019003906000526020600020906004020160009091909190915060008201518160000160006101000a81548173ffffffffffffffffffffffffffffffffffffffff021916908373ffffffffffffffffffffffffffffffffffffffff1602179055506020820151816001019080519060200190612a6c929190613ded565b506040820151816002015560608201518160030160006101000a81548160ff02191690831515021790555060808201518160030160016101000a81548160ff02191690831515021790555060a08201518160030160026101000a81548160ff021916908315150217905550505060003073ffffffffffffffffffffffffffffffffffffffff1634604051612aff90615343565b60006040518083038185875af1925050503d8060008114612b3c576040519150601f19603f3d011682016040523d82523d6000602084013e612b41565b606091505b5050905080612b85576040517f08c379a0000000000000000000000000000000000000000000000000000000008152600401612b7c906153d8565b60405180910390fd5b505b505060016000819055505050505050565b60008183612ba691906159b4565b905092915050565b806002600082604051602001612bc4919061532c565b60405160208183030381529060405280519060200120815260200190815260200160002060009054906101000a900460ff16612c35576040517f08c379a0000000000000000000000000000000000000000000000000000000008152600401612c2c90615378565b60405180910390fd5b600082604051602001612c48919061532c565b60405160208183030381529060405280519060200120905060016000828152602001908152602001600020600b0160009054906101000a900460ff16612cc3576040517f08c379a0000000000000000000000000000000000000000000000000000000008152600401612cba90615618565b60405180910390fd5b60016000828152602001908152602001600020600401600001805490506001600083815260200190815260200160002060040160050160029054906101000a900461ffff1661ffff1614612d4c576040517f08c379a0000000000000000000000000000000000000000000000000000000008152600401612d43906155d8565b60405180910390fd5b600080600160008481526020019081526020016000206004016004018054905014612db057612dad600160008481526020019081526020016000206003015460016000858152602001908152602001600020600401600401805490506135b5565b90505b612de3826000600180600087815260200190815260200160002060040160000180549050612dde9190615bca565b6135cb565b60006001600084815260200190815260200160002060040160010154905060005b600160008581526020019081526020016000206004016006018054905081108015612ea357506000600160008681526020019081526020016000206004016006018281548110612e7d577f4e487b7100000000000000000000000000000000000000000000000000000000600052603260045260246000fd5b90600052602060002090602091828204019190069054906101000a900460ff1660ff1614155b15613519576000600190505b600160008681526020019081526020016000206004016000018161ffff1683612ed891906159b4565b81548110612f0f577f4e487b7100000000000000000000000000000000000000000000000000000000600052603260045260246000fd5b906000526020600020906004020160020154600160008781526020019081526020016000206004016000018381548110612f72577f4e487b7100000000000000000000000000000000000000000000000000000000600052603260045260246000fd5b9060005260206000209060040201600201541415612f9d578080612f9590615d5b565b915050612eaf565b6000805b8261ffff168161ffff16108015612fe2575060016000888152602001908152602001600020600401600601805490508161ffff1685612fe091906159b4565b105b1561308a57600160008881526020019081526020016000206004016006018161ffff168561301091906159b4565b81548110613047577f4e487b7100000000000000000000000000000000000000000000000000000000600052603260045260246000fd5b90600052602060002090602091828204019190069054906101000a900460ff1660ff1682613075919061597c565b9150808061308290615d5b565b915050612fa1565b50600061309f8261ffff168461ffff166135b5565b905060006130b7826130b28860646135b5565b613c6c565b905060005b8461ffff168161ffff1610156134fd5781600160008b8152602001908152602001600020600401600101541015613128576040517f08c379a000000000000000000000000000000000000000000000000000000000815260040161311f90615658565b60405180910390fd5b81600160008b815260200190815260200160002060040160010160008282546131519190615bca565b92505081905550600160008a81526020019081526020016000206004016000018161ffff16965086815481106131b0577f4e487b7100000000000000000000000000000000000000000000000000000000600052603260045260246000fd5b906000526020600020906004020160030160029054906101000a900460ff16156133ab5787600160008b8152602001908152602001600020600401600101541015613230576040517f08c379a000000000000000000000000000000000000000000000000000000000815260040161322790615598565b60405180910390fd5b87600160008b815260200190815260200160002060030160008282546132569190615bca565b925050819055506000600160008b81526020019081526020016000206004016000018261ffff168861328891906159b4565b815481106132bf577f4e487b7100000000000000000000000000000000000000000000000000000000600052603260045260246000fd5b906000526020600020906004020160000160009054906101000a900473ffffffffffffffffffffffffffffffffffffffff1673ffffffffffffffffffffffffffffffffffffffff16898461331391906159b4565b60405161331f90615343565b60006040518083038185875af1925050503d806000811461335c576040519150601f19603f3d011682016040523d82523d6000602084013e613361565b606091505b50509050806133a5576040517f08c379a000000000000000000000000000000000000000000000000000000000815260040161339c906153d8565b60405180910390fd5b506134ea565b6000600160008b81526020019081526020016000206004016000018261ffff16886133d691906159b4565b8154811061340d577f4e487b7100000000000000000000000000000000000000000000000000000000600052603260045260246000fd5b906000526020600020906004020160000160009054906101000a900473ffffffffffffffffffffffffffffffffffffffff1673ffffffffffffffffffffffffffffffffffffffff168360405161346290615343565b60006040518083038185875af1925050503d806000811461349f576040519150601f19603f3d011682016040523d82523d6000602084013e6134a4565b606091505b50509050806134e8576040517f08c379a00000000000000000000000000000000000000000000000000000000081526004016134df906153d8565b60405180910390fd5b505b80806134f590615d5b565b9150506130bc565b508361ffff168561350e91906159b4565b945050505050612e04565b50600160008481526020019081526020016000206004016001015460016000858152602001908152602001600020600201600082825461355991906159b4565b9250508190555060006001600085815260200190815260200160002060040160010181905550600060016000858152602001908152602001600020600b0160006101000a81548160ff0219169083151502179055505050505050565b600081836135c39190615aab565b905092915050565b60008290506000829050808214156135e4575050613c67565b6000600160008781526020019081526020016000206004016000016002868661360d9190615b36565b6136179190615a41565b8661362291906158e8565b81548110613659577f4e487b7100000000000000000000000000000000000000000000000000000000600052603260045260246000fd5b90600052602060002090600402016002015490505b818313613c3b575b806001600088815260200190815260200160002060040160000184815481106136c8577f4e487b7100000000000000000000000000000000000000000000000000000000600052603260045260246000fd5b90600052602060002090600402016002015410156136f35782806136eb90615d12565b935050613676565b5b600160008781526020019081526020016000206004016000018281548110613745577f4e487b7100000000000000000000000000000000000000000000000000000000600052603260045260246000fd5b90600052602060002090600402016002015481101561377157818061376990615cc9565b9250506136f4565b818313613c365760006001600088815260200190815260200160002060040160000184815481106137cb577f4e487b7100000000000000000000000000000000000000000000000000000000600052603260045260246000fd5b90600052602060002090600402016040518060c00160405290816000820160009054906101000a900473ffffffffffffffffffffffffffffffffffffffff1673ffffffffffffffffffffffffffffffffffffffff1673ffffffffffffffffffffffffffffffffffffffff168152602001600182018054806020026020016040519081016040528092919081815260200182805480156138b157602002820191906000526020600020906000905b82829054906101000a900461ffff1661ffff16815260200190600201906020826001010492830192600103820291508084116138785790505b50505050508152602001600282015481526020016003820160009054906101000a900460ff161515151581526020016003820160019054906101000a900460ff161515151581526020016003820160029054906101000a900460ff1615151515815250509050600160008881526020019081526020016000206004016000018381548110613968577f4e487b7100000000000000000000000000000000000000000000000000000000600052603260045260246000fd5b90600052602060002090600402016001600089815260200190815260200160002060040160000185815481106139c7577f4e487b7100000000000000000000000000000000000000000000000000000000600052603260045260246000fd5b90600052602060002090600402016000820160009054906101000a900473ffffffffffffffffffffffffffffffffffffffff168160000160006101000a81548173ffffffffffffffffffffffffffffffffffffffff021916908373ffffffffffffffffffffffffffffffffffffffff1602179055506001820181600101908054613a52929190613f41565b50600282015481600201556003820160009054906101000a900460ff168160030160006101000a81548160ff0219169083151502179055506003820160019054906101000a900460ff168160030160016101000a81548160ff0219169083151502179055506003820160029054906101000a900460ff168160030160026101000a81548160ff02191690831515021790555090505080600160008981526020019081526020016000206004016000018481548110613b39577f4e487b7100000000000000000000000000000000000000000000000000000000600052603260045260246000fd5b906000526020600020906004020160008201518160000160006101000a81548173ffffffffffffffffffffffffffffffffffffffff021916908373ffffffffffffffffffffffffffffffffffffffff1602179055506020820151816001019080519060200190613baa929190613ded565b506040820151816002015560608201518160030160006101000a81548160ff02191690831515021790555060808201518160030160016101000a81548160ff02191690831515021790555060a08201518160030160026101000a81548160ff0219169083151502179055509050508380613c2390615d12565b9450508280613c3190615cc9565b935050505b61366e565b81851215613c4f57613c4e8686846135cb565b5b83831215613c6357613c628684866135cb565b5b5050505b505050565b60008183613c7a9190615adc565b905092915050565b6040518060c0016040528060008019168152602001600073ffffffffffffffffffffffffffffffffffffffff1681526020016000815260200160008152602001613cca613ee9565b81526020016000151581525090565b5080546000825560040290600052602060002090810190613cfa9190613fa1565b50565b5080546000825590600052602060002090810190613d1b9190614033565b50565b50805460008255601f016020900490600052602060002090810190613d439190614033565b50565b82805482825590600052602060002090601f01602090048101928215613ddc5791602002820160005b83821115613dad57835183826101000a81548160ff021916908360ff1602179055509260200192600101602081600001049283019260010302613d6f565b8015613dda5782816101000a81549060ff0219169055600101602081600001049283019260010302613dad565b505b509050613de99190614033565b5090565b82805482825590600052602060002090600f01601090048101928215613e865791602002820160005b83821115613e5657835183826101000a81548161ffff021916908361ffff1602179055509260200192600201602081600101049283019260010302613e16565b8015613e845782816101000a81549061ffff0219169055600201602081600101049283019260010302613e56565b505b509050613e939190614033565b5090565b6040518060c00160405280600073ffffffffffffffffffffffffffffffffffffffff16815260200160608152602001600081526020016000151581526020016000151581526020016000151581525090565b6040518061012001604052806060815260200160008152602001600081526020016000815260200160608152602001600061ffff168152602001600061ffff168152602001600061ffff168152602001606081525090565b82805482825590600052602060002090600f01601090048101928215613f9057600052602060002091600f016010900482015b82811115613f8f578254825591600101919060010190613f74565b5b509050613f9d9190614033565b5090565b5b8082111561402f57600080820160006101000a81549073ffffffffffffffffffffffffffffffffffffffff0219169055600182016000613fe29190614050565b60028201600090556003820160006101000a81549060ff02191690556003820160016101000a81549060ff02191690556003820160026101000a81549060ff021916905550600401613fa2565b5090565b5b8082111561404c576000816000905550600101614034565b5090565b50805460008255600f0160109004906000526020600020908101906140759190614033565b50565b600061408b6140868461574a565b615719565b905080838252602082019050828560208602820111156140aa57600080fd5b60005b858110156140da57816140c08882614236565b8452602084019350602083019250506001810190506140ad565b5050509392505050565b60006140f76140f284615776565b615719565b9050808382526020820190508285602086028201111561411657600080fd5b60005b85811015614146578161412c8882614260565b845260208401935060208301925050600181019050614119565b5050509392505050565b600061416361415e846157a2565b615719565b90508281526020810184848401111561417b57600080fd5b614186848285615c87565b509392505050565b60008135905061419d81615e5c565b92915050565b600082601f8301126141b457600080fd5b81356141c4848260208601614078565b91505092915050565b600082601f8301126141de57600080fd5b81356141ee8482602086016140e4565b91505092915050565b60008135905061420681615e73565b92915050565b600082601f83011261421d57600080fd5b813561422d848260208601614150565b91505092915050565b60008135905061424581615e8a565b92915050565b60008135905061425a81615ea1565b92915050565b60008135905061426f81615eb8565b92915050565b60006020828403121561428757600080fd5b600082013567ffffffffffffffff8111156142a157600080fd5b6142ad8482850161420c565b91505092915050565b600080604083850312156142c957600080fd5b600083013567ffffffffffffffff8111156142e357600080fd5b6142ef8582860161420c565b92505060206143008582860161418e565b9150509250929050565b6000806040838503121561431d57600080fd5b600083013567ffffffffffffffff81111561433757600080fd5b6143438582860161420c565b925050602083013567ffffffffffffffff81111561436057600080fd5b61436c858286016141a3565b9150509250929050565b6000806040838503121561438957600080fd5b600083013567ffffffffffffffff8111156143a357600080fd5b6143af8582860161420c565b92505060206143c0858286016141f7565b9150509250929050565b60008060008060008060c087890312156143e357600080fd5b600087013567ffffffffffffffff8111156143fd57600080fd5b61440989828a0161420c565b965050602061441a89828a0161424b565b955050604061442b89828a0161424b565b945050606061443c89828a01614236565b935050608061444d89828a01614236565b92505060a087013567ffffffffffffffff81111561446a57600080fd5b61447689828a016141cd565b9150509295509295509295565b600061448f83836144ee565b60208301905092915050565b60006144a78383615038565b905092915050565b60006144bb83836152f0565b60208301905092915050565b60006144d3838361531d565b60208301905092915050565b6144e881615c10565b82525050565b6144f781615bfe565b82525050565b600061450882615812565b614512818561587d565b935061451d836157d2565b8060005b8381101561454e5781516145358882614483565b975061454083615849565b925050600181019050614521565b5085935050505092915050565b60006145668261581d565b614570818561588e565b935083602082028501614582856157e2565b8060005b858110156145be578484038952815161459f858261449b565b94506145aa83615856565b925060208a01995050600181019050614586565b50829750879550505050505092915050565b60006145db82615828565b6145e5818561589f565b93506145f0836157f2565b8060005b8381101561462157815161460888826144af565b975061461383615863565b9250506001810190506145f4565b5085935050505092915050565b600061463982615833565b61464381856158b0565b935061464e83615802565b8060005b8381101561467f57815161466688826144c7565b975061467183615870565b925050600181019050614652565b5085935050505092915050565b61469581615c22565b82525050565b6146a481615c2e565b82525050565b60006146b58261583e565b6146bf81856158dd565b93506146cf818560208601615c96565b80840191505092915050565b60006146e86028836158cc565b91507f496e636f72726563742066756e647320746f206a6f696e20726f756e64202b2060008301527f61636520706f6f6c0000000000000000000000000000000000000000000000006020830152604082019050919050565b600061474e601a836158cc565b91507f4c6561677565206e616d6520646f6573206e6f742065786973740000000000006000830152602082019050919050565b600061478e6023836158cc565b91507f4f6e6c79206c6561677565206f776e65722063616e207374617274206120726f60008301527f756e6400000000000000000000000000000000000000000000000000000000006020830152604082019050919050565b60006147f4601a836158cc565b91507f4c6561677565206e616d6520616c7265616479206578697374730000000000006000830152602082019050919050565b60006148346014836158cc565b91507f4661696c656420746f2073656e642045746865720000000000000000000000006000830152602082019050919050565b6000614874603f836158cc565b91507f41636520706f6f6c207072696365206d757374206265206e6f6e2d6e6567617460008301527f6976652c2073657420746f207a65726f206966206e6f2061636520706f6f6c006020830152604082019050919050565b60006148da6025836158cc565b91507f4164647265737320616c726561647920696e636c7564656420696e207468652060008301527f726f756e640000000000000000000000000000000000000000000000000000006020830152604082019050919050565b6000614940602b836158cc565b91507f4d6178206e756d626572206f6620706c6179657273206d757374206265206d6f60008301527f7265207468616e206f6e650000000000000000000000000000000000000000006020830152604082019050919050565b60006149a6601d836158cc565b91507f41646472657373206e6f7420696e636c7564656420696e20726f756e640000006000830152602082019050919050565b60006149e6602e836158cc565b91507f41646472657373206973206e6f7420696e636c7564656420696e20746869732060008301527f6c6561677565277320726f756e640000000000000000000000000000000000006020830152604082019050919050565b6000614a4c6022836158cc565b91507f496e76616c69642061727261792073697a6520666f7220686f6c652073636f7260008301527f65730000000000000000000000000000000000000000000000000000000000006020830152604082019050919050565b6000614ab2602d836158cc565b91507f41646472657373206973206e6f7420696e636c7564656420696e20746869732060008301527f6c65616775657320726f756e64000000000000000000000000000000000000006020830152604082019050919050565b6000614b18600d836158cc565b91507f4e6f20726f756e64206f70656e000000000000000000000000000000000000006000830152602082019050919050565b6000614b586017836158cc565b91507f4e6f206d6f72652073706f747320617661696c61626c650000000000000000006000830152602082019050919050565b6000614b986043836158cc565b91507f5061796f757420736368656d6520696e76616c69642c20616c6c20706c61636560008301527f73206d757374206265206c657373207468616e206f7220657175616c20746f2060208301527f31303000000000000000000000000000000000000000000000000000000000006040830152606082019050919050565b6000614c246028836158cc565b91507f507269636520746f206a6f696e206d75737420626520706f7369746976652c2060008301527f6e6f6e2d7a65726f0000000000000000000000000000000000000000000000006020830152604082019050919050565b6000614c8a603e836158cc565b91507f4e65656420746f2068617665206120706f736974697665206e6f6e2d7a65726f60008301527f206e756d626572206f6620686f6c657320666f722074686520726f756e6400006020830152604082019050919050565b6000614cf0601c836158cc565b91507f4120726f756e6420686173206e6f74206265656e2073746172746564000000006000830152602082019050919050565b6000614d306000836158c1565b9150600082019050919050565b6000614d4a602c836158cc565b91507f41636520706f6f6c2062616c616e6365206e6f74206c6172676520656e6f756760008301527f6820746f20706179206f757400000000000000000000000000000000000000006020830152604082019050919050565b6000614db0601d836158cc565b91507f496e636f72726563742066756e647320746f206a6f696e20726f756e640000006000830152602082019050919050565b6000614df06019836158cc565b91507f5061796f757420636f6e646974696f6e73206e6f74206d6574000000000000006000830152602082019050919050565b6000614e30601f836158cc565b91507f5265656e7472616e637947756172643a207265656e7472616e742063616c6c006000830152602082019050919050565b6000614e706026836158cc565b91507f5468657265206973206e6f206f70656e20726f756e6420666f7220746869732060008301527f6c656167756500000000000000000000000000000000000000000000000000006020830152604082019050919050565b6000614ed66018836158cc565b91507f53636f72657320616c7265616479207375626d697474656400000000000000006000830152602082019050919050565b6000614f166029836158cc565b91507f526f756e642062616c616e6365206e6f74206c6172676520656e6f756768207460008301527f6f20706179206f757400000000000000000000000000000000000000000000006020830152604082019050919050565b6000614f7c6012836158cc565b91507f526f756e6420616c7265616479206f70656e00000000000000000000000000006000830152602082019050919050565b600060c083016000830151614fc7600086018261469b565b506020830151614fda60208601826144ee565b506040830151614fed604086018261530e565b506060830151615000606086018261530e565b5060808301518482036080860152615018828261514a565b91505060a083015161502d60a086018261468c565b508091505092915050565b600060c08301600083015161505060008601826144df565b506020830151848203602086015261506882826145d0565b915050604083015161507d604086018261530e565b506060830151615090606086018261468c565b5060808301516150a3608086018261468c565b5060a08301516150b660a086018261468c565b508091505092915050565b600060c0830160008301516150d960008601826144df565b50602083015184820360208601526150f182826145d0565b9150506040830151615106604086018261530e565b506060830151615119606086018261468c565b50608083015161512c608086018261468c565b5060a083015161513f60a086018261468c565b508091505092915050565b6000610120830160008301518482036000860152615168828261455b565b915050602083015161517d602086018261530e565b506040830151615190604086018261530e565b5060608301516151a3606086018261530e565b50608083015184820360808601526151bb82826144fd565b91505060a08301516151d060a08601826152f0565b5060c08301516151e360c08601826152f0565b5060e08301516151f660e08601826152f0565b50610100830151848203610100860152615210828261462e565b9150508091505092915050565b600061012083016000830151848203600086015261523b828261455b565b9150506020830151615250602086018261530e565b506040830151615263604086018261530e565b506060830151615276606086018261530e565b506080830151848203608086015261528e82826144fd565b91505060a08301516152a360a08601826152f0565b5060c08301516152b660c08601826152f0565b5060e08301516152c960e08601826152f0565b506101008301518482036101008601526152e3828261462e565b9150508091505092915050565b6152f981615c42565b82525050565b61530881615c42565b82525050565b61531781615c70565b82525050565b61532681615c7a565b82525050565b600061533882846146aa565b915081905092915050565b600061534e82614d23565b9150819050919050565b60006020820190508181036000830152615371816146db565b9050919050565b6000602082019050818103600083015261539181614741565b9050919050565b600060208201905081810360008301526153b181614781565b9050919050565b600060208201905081810360008301526153d1816147e7565b9050919050565b600060208201905081810360008301526153f181614827565b9050919050565b6000602082019050818103600083015261541181614867565b9050919050565b60006020820190508181036000830152615431816148cd565b9050919050565b6000602082019050818103600083015261545181614933565b9050919050565b6000602082019050818103600083015261547181614999565b9050919050565b60006020820190508181036000830152615491816149d9565b9050919050565b600060208201905081810360008301526154b181614a3f565b9050919050565b600060208201905081810360008301526154d181614aa5565b9050919050565b600060208201905081810360008301526154f181614b0b565b9050919050565b6000602082019050818103600083015261551181614b4b565b9050919050565b6000602082019050818103600083015261553181614b8b565b9050919050565b6000602082019050818103600083015261555181614c17565b9050919050565b6000602082019050818103600083015261557181614c7d565b9050919050565b6000602082019050818103600083015261559181614ce3565b9050919050565b600060208201905081810360008301526155b181614d3d565b9050919050565b600060208201905081810360008301526155d181614da3565b9050919050565b600060208201905081810360008301526155f181614de3565b9050919050565b6000602082019050818103600083015261561181614e23565b9050919050565b6000602082019050818103600083015261563181614e63565b9050919050565b6000602082019050818103600083015261565181614ec9565b9050919050565b6000602082019050818103600083015261567181614f09565b9050919050565b6000602082019050818103600083015261569181614f6f565b9050919050565b600060208201905081810360008301526156b28184614faf565b905092915050565b600060208201905081810360008301526156d481846150c1565b905092915050565b600060208201905081810360008301526156f6818461521d565b905092915050565b600060208201905061571360008301846152ff565b92915050565b6000604051905081810181811067ffffffffffffffff821117156157405761573f615e2d565b5b8060405250919050565b600067ffffffffffffffff82111561576557615764615e2d565b5b602082029050602081019050919050565b600067ffffffffffffffff82111561579157615790615e2d565b5b602082029050602081019050919050565b600067ffffffffffffffff8211156157bd576157bc615e2d565b5b601f19601f8301169050602081019050919050565b6000819050602082019050919050565b6000819050602082019050919050565b6000819050602082019050919050565b6000819050602082019050919050565b600081519050919050565b600081519050919050565b600081519050919050565b600081519050919050565b600081519050919050565b6000602082019050919050565b6000602082019050919050565b6000602082019050919050565b6000602082019050919050565b600082825260208201905092915050565b600082825260208201905092915050565b600082825260208201905092915050565b600082825260208201905092915050565b600081905092915050565b600082825260208201905092915050565b600081905092915050565b60006158f382615c38565b91506158fe83615c38565b9250817f7fffffffffffffffffffffffffffffffffffffffffffffffffffffffffffffff0383136000831215161561593957615938615dcf565b5b817f800000000000000000000000000000000000000000000000000000000000000003831260008312161561597157615970615dcf565b5b828201905092915050565b600061598782615c42565b915061599283615c42565b92508261ffff038211156159a9576159a8615dcf565b5b828201905092915050565b60006159bf82615c70565b91506159ca83615c70565b9250827fffffffffffffffffffffffffffffffffffffffffffffffffffffffffffffffff038211156159ff576159fe615dcf565b5b828201905092915050565b6000615a1582615c7a565b9150615a2083615c7a565b92508260ff03821115615a3657615a35615dcf565b5b828201905092915050565b6000615a4c82615c38565b9150615a5783615c38565b925082615a6757615a66615dfe565b5b600160000383147f800000000000000000000000000000000000000000000000000000000000000083141615615aa057615a9f615dcf565b5b828205905092915050565b6000615ab682615c70565b9150615ac183615c70565b925082615ad157615ad0615dfe565b5b828204905092915050565b6000615ae782615c70565b9150615af283615c70565b9250817fffffffffffffffffffffffffffffffffffffffffffffffffffffffffffffffff0483118215151615615b2b57615b2a615dcf565b5b828202905092915050565b6000615b4182615c38565b9150615b4c83615c38565b9250827f800000000000000000000000000000000000000000000000000000000000000001821260008412151615615b8757615b86615dcf565b5b827f7fffffffffffffffffffffffffffffffffffffffffffffffffffffffffffffff018213600084121615615bbf57615bbe615dcf565b5b828203905092915050565b6000615bd582615c70565b9150615be083615c70565b925082821015615bf357615bf2615dcf565b5b828203905092915050565b6000615c0982615c50565b9050919050565b6000615c1b82615c50565b9050919050565b60008115159050919050565b6000819050919050565b6000819050919050565b600061ffff82169050919050565b600073ffffffffffffffffffffffffffffffffffffffff82169050919050565b6000819050919050565b600060ff82169050919050565b82818337600083830152505050565b60005b83811015615cb4578082015181840152602081019050615c99565b83811115615cc3576000848401525b50505050565b6000615cd482615c38565b91507f8000000000000000000000000000000000000000000000000000000000000000821415615d0757615d06615dcf565b5b600182039050919050565b6000615d1d82615c38565b91507f7fffffffffffffffffffffffffffffffffffffffffffffffffffffffffffffff821415615d5057615d4f615dcf565b5b600182019050919050565b6000615d6682615c42565b915061ffff821415615d7b57615d7a615dcf565b5b600182019050919050565b6000615d9182615c70565b91507fffffffffffffffffffffffffffffffffffffffffffffffffffffffffffffffff821415615dc457615dc3615dcf565b5b600182019050919050565b7f4e487b7100000000000000000000000000000000000000000000000000000000600052601160045260246000fd5b7f4e487b7100000000000000000000000000000000000000000000000000000000600052601260045260246000fd5b7f4e487b7100000000000000000000000000000000000000000000000000000000600052604160045260246000fd5b615e6581615bfe565b8114615e7057600080fd5b50565b615e7c81615c22565b8114615e8757600080fd5b50565b615e9381615c42565b8114615e9e57600080fd5b50565b615eaa81615c70565b8114615eb557600080fd5b50565b615ec181615c7a565b8114615ecc57600080fd5b5056fea26469706673582212205084313a7b4ed5e5ba7b1fe1235c45f131ac6f4854e4280158a49869180fe19664736f6c63430008000033",
  "immutableReferences": {},
  "source": "//SPDX-License-Identifier: MIT\npragma solidity >=0.5.0 <0.9.0;\n\nimport \"./@openzeppelin/contracts/utils/math/SafeMath.sol\";\nimport \"./@openzeppelin/contracts/security/ReentrancyGuard.sol\";\n\ncontract SmartLeagues is ReentrancyGuard{\n    constructor() {\n    }\n\n    using SafeMath for uint256;\n    using SafeMath for uint64;\n    using SafeMath for uint16;\n\n    struct Player {\n        address payable userAddress;\n        //string nickname;\n        uint16[] holeScores;\n        uint256 totalScore;\n        bool scoresSubmitted;\n        bool acePoolEntry;\n        bool acePoolWin;\n    }\n\n    struct Round {\n        Player[] player;\n        uint256 balance;            // total balance of entry fees\n        uint256 priceToJoin;\n        uint256 priceAcePool;\n        address[] acePoolWinners;   // contains all winners of the ace pool\n        uint16 maxPlayers;          // max number of players allowed in the round\n        uint16 finishedCount;       // how many have submitted scores\n        uint16 numberOfHoles;       // used for player.holeScores array size \n        uint8[] payoutPercentage;   // 0-100 percentage of pool paid out to winners where [0] is first place, [1] is seconds place, etc.\n                                    // any total percentage under 100, the leftover will be donated back to the league funds\n    }\n\n    struct League {\n        bytes32 name;                               // name: hash of name of league input upon creation\n        address owner;                              // owner: address that calls createLeague()\n        uint256 balance;                            // totalBalance: total balance deposited in this league\n        uint256 acePoolBalance;                     // acePoolBalance: total balance of current ace pool\n        Round round;                                // round: holds active round data\n        bool roundOpen;                             // roundOpen: 1 if there is an active round started that has not finished\n    }\n    \n    event NewLeague(address indexed _owner, bytes32 indexed _leagueHash);\n    //event NewRound(bytes32 indexed _leagueHash, Round indexed _roundData);\n    //event PlayerJoinedRound(address indexed _player, string indexed _nickname, bytes32 indexed _leagueHash);\n\n    mapping (bytes32 => League) internal nameToLeague;\n    mapping (bytes32 => bool) internal leagueNames;\n    mapping (address => bytes32) internal addressToLeagueRoundJoined;\n\n    uint256 MAX_UINT = 0xffffffffffffffffffffffffffffffffffffffffffffffffffffffffffffffff;\n    uint16 MAX_UINT16 = 0xffff;\n\n    modifier leagueExists(string memory _name) {\n        require(leagueNames[keccak256(abi.encodePacked(_name))], \"League name does not exist\");\n        _;\n    }\n\n    modifier leagueDoesNotExist(string memory _name) {\n        require(!leagueNames[keccak256(abi.encodePacked(_name))], \"League name already exists\");\n        _;\n    }\n\n    // can start a round if you are the league owner of this league \n    modifier startLeagueRoundAccess(string memory _leagueName) {\n        require(nameToLeague[keccak256(abi.encodePacked(_leagueName))].owner == msg.sender, \"Only league owner can start a round\");\n        _;\n    }\n\n    // allows function to run if msg.sender is not already part of this round\n    modifier playerNotInRound(string memory _leagueName) {\n        bytes32 nameHash = keccak256(abi.encodePacked(_leagueName));\n        for (uint16 i = 0; i < nameToLeague[nameHash].round.player.length; i++) {\n            require(nameToLeague[nameHash].round.player[i].userAddress != msg.sender, \"Address already included in the round\");\n        }\n        _;\n    }\n\n    // allows function to run if msg.sender is part of this round\n    modifier playerInRound(string memory _leagueName) {\n        bytes32 nameHash = keccak256(abi.encodePacked(_leagueName));\n        for (uint16 i = 0; i < nameToLeague[nameHash].round.player.length; i++) {\n            if (nameToLeague[nameHash].round.player[i].userAddress == msg.sender) {\n                _;\n            }\n        }\n        require(false, \"Address is not included in the round\");\n    }\n    \n    // Function to receive Ether. msg.data must be empty\n    receive() external payable {}\n\n    // Fallback function is called when msg.data is not empty\n    fallback() external payable {}\n\n    function createLeague(string memory _name) external leagueDoesNotExist(_name) {\n        bytes32 nameHash = keccak256(abi.encodePacked(_name));\n        // if unique name, add to the leagueNames\n        leagueNames[nameHash] = true;\n\n         // hash input for league name\n        nameToLeague[nameHash].name = nameHash;\n        // make caller owner of this league\n        nameToLeague[nameHash].owner = msg.sender;\n        // initialize balances\n        nameToLeague[nameHash].balance = 0;\n        nameToLeague[nameHash].acePoolBalance = 0;\n        \n        // create new league event\n        emit NewLeague(msg.sender, nameHash);\n    }\n\n    function startLeagueRound(\n        string memory _leagueName,\n        uint256 _priceToJoin,\n        uint256 _priceAcePool,\n        uint16 _maxPlayers,\n        uint16 _numberOfHoles,\n        uint8[] memory _payoutPercentage\n    )\n        external\n        leagueExists(_leagueName)\n        startLeagueRoundAccess(_leagueName)\n    {\n        bytes32 nameHash = keccak256(abi.encodePacked(_leagueName));\n        // cannot start a round if a round is already in progress\n        require(!nameToLeague[nameHash].roundOpen, \"Round already open\");\n        // price to join must be positive\n        require(_priceToJoin > 0, \"Price to join must be positive, non-zero\");\n        // ace pool price must be non-negative\n        require(_priceAcePool >= 0, \"Ace pool price must be non-negative, set to zero if no ace pool\");\n        // amount of max players must be more than one\n        require(_maxPlayers > 1, \"Max number of players must be more than one\");\n        // number of holes needs to be positive non-zero\n        require(_numberOfHoles > 0, \"Need to have a positive non-zero number of holes for the round\");\n        // validate payout scheme\n        uint8 _totalPayoutPercentage = 0;\n        for (uint i = 0; (i < _payoutPercentage.length) && (_payoutPercentage[i] != 0); i++) {\n            _totalPayoutPercentage += _payoutPercentage[i];\n            require(_totalPayoutPercentage <= 100, \"Payout scheme invalid, all places must be less than or equal to 100\");\n        }\n\n        // if all requirements met, start the round\n        nameToLeague[nameHash].roundOpen = true;\n        // clear players array\n        delete nameToLeague[nameHash].round.player;\n        delete nameToLeague[nameHash].round.acePoolWinners;\n        // set inputs to league round information\n        nameToLeague[nameHash].round.priceToJoin = _priceToJoin;\n        nameToLeague[nameHash].round.priceAcePool = _priceAcePool;\n        nameToLeague[nameHash].round.maxPlayers = _maxPlayers;\n        nameToLeague[nameHash].round.finishedCount = 0;\n        nameToLeague[nameHash].round.numberOfHoles = _numberOfHoles;\n        delete nameToLeague[nameHash].round.payoutPercentage;\n        nameToLeague[nameHash].round.payoutPercentage = _payoutPercentage;\n        \n        // round data event\n        //emit NewRound(nameHash, nameToLeague[nameHash].round);\n    }\n\n    function joinLeagueRound(\n        string memory _leagueName,\n        //string memory _nickname,\n        bool _joinAcePool\n    )\n        external\n        payable\n        leagueExists(_leagueName)\n        playerNotInRound(_leagueName)\n        nonReentrant()\n    {\n        bytes32 nameHash = keccak256(abi.encodePacked(_leagueName));\n        // a round has to already have been started\n        require(nameToLeague[nameHash].roundOpen, \"A round has not been started\");\n        // make sure there is an available space in the round\n        require(nameToLeague[nameHash].round.player.length < nameToLeague[nameHash].round.maxPlayers, \"No more spots available\");\n        // create temporary player that will later be pushed to the round player array\n        Player memory _player;\n        _player.userAddress = payable(msg.sender);\n        //_player.nickname = _nickname;\n        _player.scoresSubmitted = false;\n        delete _player.holeScores;\n        // ensure the player has sent enough funds to join the round\n        if (_joinAcePool) {\n            require(msg.value == SafeMath.add(nameToLeague[nameHash].round.priceToJoin, nameToLeague[nameHash].round.priceAcePool), \"Incorrect funds to join round + ace pool\");\n            // adjust balances\n            nameToLeague[nameHash].round.balance += nameToLeague[nameHash].round.priceToJoin;\n            nameToLeague[nameHash].acePoolBalance += nameToLeague[nameHash].round.priceAcePool;\n            // modify player data\n            _player.acePoolEntry = true;\n            // push player to round\n            nameToLeague[nameHash].round.player.push(_player);\n            // send funds to contract\n            (bool sent,) = payable(address(this)).call{value: msg.value}(\"\");\n            require(sent, \"Failed to send Ether\");\n        } else {\n            require(msg.value == nameToLeague[nameHash].round.priceToJoin, \"Incorrect funds to join round\");\n            // adjust balance\n            nameToLeague[nameHash].round.balance += nameToLeague[nameHash].round.priceToJoin;\n            // modify player data\n            _player.acePoolEntry = false;\n            // push player to round\n            nameToLeague[nameHash].round.player.push(_player);\n            // send funds to contract\n            (bool sent,) = payable(address(this)).call{value: msg.value}(\"\");\n            require(sent, \"Failed to send Ether\");\n        }\n\n        //emit PlayerJoinedRound(msg.sender, _player.nickname, nameHash);\n    }\n\n    function submitScores(\n        string memory _leagueName,\n        uint16[] memory _holeScore\n    )\n        external\n        payable\n        leagueExists(_leagueName)\n        nonReentrant\n    {\n        bytes32 nameHash = keccak256(abi.encodePacked(_leagueName));\n        // league round must be open\n        require(nameToLeague[nameHash].roundOpen, \"There is no open round for this league\");\n        // get the index of the player in the round.player[] array; player must be in the array to continue\n        uint16 _index = addressInRound(_leagueName, msg.sender);\n        require(_index != MAX_UINT16, \"Address is not included in this league's round\");\n        // require that this player has not already submitted their scores\n        require(!nameToLeague[nameHash].round.player[_index].scoresSubmitted, \"Scores already submitted\");\n        nameToLeague[nameHash].round.player[_index].scoresSubmitted = true;\n        // The input _holeScore array size must be the same as the number of holes for the round\n        require(_holeScore.length == nameToLeague[nameHash].round.numberOfHoles, \"Invalid array size for hole scores\");\n        \n        // copy hole score inputs to round.player data\n        nameToLeague[nameHash].round.player[_index].holeScores = _holeScore;\n\n        // move inputted hole scores to the league round data\n        uint256 _scoreSum = 0;\n        for (uint256 i = 0; i < nameToLeague[nameHash].round.numberOfHoles; i++) {\n            // _scoreSum = SafeMath.add(uint256(nameToLeague[nameHash].round.player[_index].holeScores[i]), _scoreSum);\n            _scoreSum = SafeMath.add(uint256(_holeScore[i]), _scoreSum);\n            // if ace was had on this hole and player is in ace pool, set win ace pool \n            if (nameToLeague[nameHash].round.player[_index].acePoolEntry && _holeScore[i] == 1) {\n                nameToLeague[nameHash].round.player[_index].acePoolWin;\n                nameToLeague[nameHash].round.acePoolWinners.push(msg.sender);\n            }\n        }\n        nameToLeague[nameHash].round.player[_index].totalScore = _scoreSum;\n\n        // increment finished player count\n        nameToLeague[nameHash].round.finishedCount++;\n        // if the last player to finish, payout winners\n        if (nameToLeague[nameHash].round.finishedCount == nameToLeague[nameHash].round.player.length) {\n            payoutWinner(_leagueName);\n        }\n    }\n\n    function payoutWinner(string memory _leagueName)\n        internal\n        leagueExists(_leagueName)\n    {\n        bytes32 nameHash = keccak256(abi.encodePacked(_leagueName));\n        // league round must be open\n        require(nameToLeague[nameHash].roundOpen, \"There is no open round for this league\");\n        // when can payouts be done\n        require(nameToLeague[nameHash].round.finishedCount == nameToLeague[nameHash].round.player.length, \"Payout conditions not met\");\n        \n        // calculate ace pool payout \n        uint256 _acePoolPayout = 0;\n        if (nameToLeague[nameHash].round.acePoolWinners.length != 0) {\n            _acePoolPayout = SafeMath.div(nameToLeague[nameHash].acePoolBalance, nameToLeague[nameHash].round.acePoolWinners.length);\n        }\n\n        // sort player array within round data, players sorted by score from low to high\n        playerQuickSort(nameHash, 0, int(nameToLeague[nameHash].round.player.length - 1));\n\n        uint256 _totalRoundBalance = nameToLeague[nameHash].round.balance;\n        for (uint _payoutIndex = 0; (_payoutIndex < nameToLeague[nameHash].round.payoutPercentage.length) && (nameToLeague[nameHash].round.payoutPercentage[_payoutIndex] != 0); ) {\n            // i is the index in the payout scheme\n            // get number of tied players for this spot in the payout scheme\n            uint16 _playersInPlaceCount = 1;\n            while (nameToLeague[nameHash].round.player[_payoutIndex].totalScore == nameToLeague[nameHash].round.player[_payoutIndex + _playersInPlaceCount].totalScore) {\n                _playersInPlaceCount++;\n            }\n\n            // get total percentage of payouts due to this group of players\n            // if players are tied, the percent payouts get added together, divided by number of players tied, and distributed to all tied players\n            // ex: if 2 players are tied for 1st, the payout percents of 1st and 2nd get added together and divided by 2, and both players get this percent\n            uint16 _totalPlacePayoutPercentage = 0;\n            for (uint16 j = 0; (j < _playersInPlaceCount) && (_payoutIndex + j < nameToLeague[nameHash].round.payoutPercentage.length); j++) {\n                _totalPlacePayoutPercentage += nameToLeague[nameHash].round.payoutPercentage[_payoutIndex + j];\n            }\n            // get the percentage of the round balance that each player taking this place will receive\n            // integer division means there may be left over funds after payouts, these are rolled into the league balance\n            uint256 _percentPayoutForPlace = SafeMath.div(uint(_totalPlacePayoutPercentage), uint(_playersInPlaceCount));\n            // get total amount paid for this place\n            uint256 _amountPaid = SafeMath.mul(_percentPayoutForPlace, SafeMath.div(_totalRoundBalance, 100));\n\n            // payout all players in this place\n            for (uint16 j = 0; j < _playersInPlaceCount; j++) {\n                // subtract from round balance\n                require(nameToLeague[nameHash].round.balance >= _amountPaid, \"Round balance not large enough to pay out\");\n                nameToLeague[nameHash].round.balance -= _amountPaid;\n                if (nameToLeague[nameHash].round.player[_payoutIndex = j].acePoolWin) {\n                    require(nameToLeague[nameHash].round.balance >= _acePoolPayout, \"Ace pool balance not large enough to pay out\");\n                    nameToLeague[nameHash].acePoolBalance -= _acePoolPayout;\n                    // send to address\n                    (bool sent,) = nameToLeague[nameHash].round.player[_payoutIndex + j].userAddress.call{value: _amountPaid + _acePoolPayout}(\"\");\n                    require(sent, \"Failed to send Ether\");\n                } else {\n                    // send to address\n                    (bool sent,) = nameToLeague[nameHash].round.player[_payoutIndex + j].userAddress.call{value: _amountPaid}(\"\");\n                    require(sent, \"Failed to send Ether\");\n                }\n            }\n\n            // adjust player payout index to account for any ties before looping to next in line for payout check\n            _payoutIndex += _playersInPlaceCount;\n        }\n\n        // move any leftover funds to the league's balance\n        nameToLeague[nameHash].balance += nameToLeague[nameHash].round.balance;\n        nameToLeague[nameHash].round.balance = 0;\n        // close round\n        nameToLeague[nameHash].roundOpen = false;\n    }\n\n    // submits max value as this msg.sender's total score so it will automatically be last place\n    function forfeitRound(string memory _leagueName) external leagueExists(_leagueName) {\n        bytes32 nameHash = keccak256(abi.encodePacked(_leagueName));\n        // league must have an open round\n        require(nameToLeague[nameHash].roundOpen, \"There is no open round for this league\");\n        // get the index of the player in the round.player[] array; player must be in the array to continue\n        uint16 _index = addressInRound(_leagueName, msg.sender);\n        require(_index != MAX_UINT16, \"Address is not included in this leagues round\");\n        // require that this player has not already submitted their scores\n        require(!nameToLeague[nameHash].round.player[_index].scoresSubmitted, \"Scores already submitted\");\n        nameToLeague[nameHash].round.player[_index].scoresSubmitted = true;\n\n        nameToLeague[nameHash].round.player[_index].totalScore = MAX_UINT;\n\n        // increment finished player count\n        nameToLeague[nameHash].round.finishedCount++;\n        // if the last player to finish, payout winners\n        if (nameToLeague[nameHash].round.finishedCount == nameToLeague[nameHash].round.player.length) {\n            payoutWinner(_leagueName);\n        }\n    }\n\n    // returns the index in the round's player[] array; if address is not in the league it will return max value of uint16(65535) \n    function addressInRound(string memory _leagueName, address _addressCheck)\n        public\n        view\n        leagueExists(_leagueName)\n        returns(uint16)\n    {\n        bytes32 nameHash = keccak256(abi.encodePacked(_leagueName));\n        // loop through all players in the round and check if msg.sender is in the round\n        for (uint16 i = 0; i < nameToLeague[nameHash].round.player.length; i++) {\n            if(nameToLeague[nameHash].round.player[i].userAddress == _addressCheck) {\n                return(i);\n            }\n        }\n        return(MAX_UINT16);\n    }\n\n    function playerQuickSort(bytes32 _nameHash, int _left, int _right) internal {\n        int _i = _left;\n        int _j = _right;\n        if(_i==_j) return;\n        uint pivot = nameToLeague[_nameHash].round.player[uint(_left + (_right - _left) / 2)].totalScore;\n        while (_i <= _j) {\n            while (nameToLeague[_nameHash].round.player[uint(_i)].totalScore < pivot) _i++;\n            while (pivot < nameToLeague[_nameHash].round.player[uint(_j)].totalScore) _j--;\n            if (_i <= _j) {\n                Player memory _tempPlayer = nameToLeague[_nameHash].round.player[uint(_i)];     // must copy to a temporary location to swap positions in array\n                nameToLeague[_nameHash].round.player[uint(_i)] = nameToLeague[_nameHash].round.player[uint(_j)];\n                nameToLeague[_nameHash].round.player[uint(_j)] = _tempPlayer;\n                _i++;\n                _j--;\n            }\n        }\n        if (_left < _j)\n            playerQuickSort(_nameHash, _left, _j);\n        if (_i < _right)\n            playerQuickSort(_nameHash, _i, _right);\n    }\n\n    function getLeagueInfo(string memory _leagueName) external view leagueExists(_leagueName) returns(League memory) {\n        bytes32 nameHash = keccak256(abi.encodePacked(_leagueName));\n        return nameToLeague[nameHash];\n    }\n\n    function getLeagueRoundInfo(string memory _leagueName) external view leagueExists(_leagueName) returns(Round memory) {\n        bytes32 nameHash = keccak256(abi.encodePacked(_leagueName));\n        require(nameToLeague[nameHash].roundOpen, 'No round open');\n        return nameToLeague[nameHash].round;\n    }\n\n    function getLeagueRoundPlayerInfo(string memory _leagueName, address _address) external view leagueExists(_leagueName) returns(Player memory) {\n        uint16 index = addressInRound(_leagueName, _address);\n        require(index != MAX_UINT16, 'Address not included in round');\n        bytes32 nameHash = keccak256(abi.encodePacked(_leagueName));\n        return nameToLeague[nameHash].round.player[index];\n    }\n}",
  "sourcePath": "/home/tyler-quinn/projects/SmartLeagues/contracts/SmartLeagues.sol",
  "compiler": {
    "name": "solc",
    "version": "0.8.0+commit.c7dfd78e.Emscripten.clang"
  },
  "schemaVersion": "3.4.3",
  "updatedAt": "2021-10-08T03:39:59.413Z",
  "devdoc": {
    "kind": "dev",
    "methods": {},
    "version": 1
  },
  "userdoc": {
    "kind": "user",
    "methods": {},
    "version": 1
  }
}