{
  "contractName": "SmartLeagues",
  "abi": [
    {
      "inputs": [],
      "stateMutability": "nonpayable",
      "type": "constructor"
    },
    {
      "anonymous": false,
      "inputs": [
        {
          "indexed": true,
          "internalType": "address",
          "name": "_owner",
          "type": "address"
        },
        {
          "indexed": true,
          "internalType": "bytes32",
          "name": "_leagueHash",
          "type": "bytes32"
        }
      ],
      "name": "NewLeague",
      "type": "event"
    },
    {
      "stateMutability": "payable",
      "type": "fallback"
    },
    {
      "inputs": [],
      "name": "claimWinnings",
      "outputs": [],
      "stateMutability": "nonpayable",
      "type": "function"
    },
    {
      "inputs": [
        {
          "internalType": "address",
          "name": "",
          "type": "address"
        }
      ],
      "name": "winnings",
      "outputs": [
        {
          "internalType": "uint256",
          "name": "",
          "type": "uint256"
        }
      ],
      "stateMutability": "view",
      "type": "function"
    },
    {
      "stateMutability": "payable",
      "type": "receive"
    },
    {
      "inputs": [
        {
          "internalType": "string",
          "name": "_name",
          "type": "string"
        }
      ],
      "name": "createLeague",
      "outputs": [],
      "stateMutability": "nonpayable",
      "type": "function"
    },
    {
      "inputs": [
        {
          "internalType": "string",
          "name": "_leagueName",
          "type": "string"
        },
        {
          "internalType": "uint256",
          "name": "_priceToJoin",
          "type": "uint256"
        },
        {
          "internalType": "uint256",
          "name": "_priceAcePool",
          "type": "uint256"
        },
        {
          "internalType": "uint16",
          "name": "_maxPlayers",
          "type": "uint16"
        },
        {
          "internalType": "uint16",
          "name": "_numberOfHoles",
          "type": "uint16"
        },
        {
          "internalType": "uint8[]",
          "name": "_payoutPercentage",
          "type": "uint8[]"
        }
      ],
      "name": "startLeagueRound",
      "outputs": [],
      "stateMutability": "nonpayable",
      "type": "function"
    },
    {
      "inputs": [
        {
          "internalType": "string",
          "name": "_leagueName",
          "type": "string"
        },
        {
          "internalType": "bool",
          "name": "_joinAcePool",
          "type": "bool"
        }
      ],
      "name": "joinLeagueRound",
      "outputs": [],
      "stateMutability": "payable",
      "type": "function"
    },
    {
      "inputs": [
        {
          "internalType": "string",
          "name": "_leagueName",
          "type": "string"
        },
        {
          "internalType": "uint16[]",
          "name": "_holeScore",
          "type": "uint16[]"
        }
      ],
      "name": "submitScores",
      "outputs": [],
      "stateMutability": "payable",
      "type": "function"
    },
    {
      "inputs": [
        {
          "internalType": "string",
          "name": "_leagueName",
          "type": "string"
        }
      ],
      "name": "finishRound",
      "outputs": [],
      "stateMutability": "nonpayable",
      "type": "function"
    },
    {
      "inputs": [
        {
          "internalType": "string",
          "name": "_leagueName",
          "type": "string"
        },
        {
          "internalType": "address",
          "name": "_addressCheck",
          "type": "address"
        }
      ],
      "name": "addressInRound",
      "outputs": [
        {
          "internalType": "uint16",
          "name": "",
          "type": "uint16"
        }
      ],
      "stateMutability": "view",
      "type": "function"
    },
    {
      "inputs": [
        {
          "internalType": "string",
          "name": "_leagueName",
          "type": "string"
        }
      ],
      "name": "getLeagueInfo",
      "outputs": [
        {
          "components": [
            {
              "internalType": "bytes32",
              "name": "name",
              "type": "bytes32"
            },
            {
              "internalType": "address",
              "name": "owner",
              "type": "address"
            },
            {
              "internalType": "uint256",
              "name": "balance",
              "type": "uint256"
            },
            {
              "internalType": "uint256",
              "name": "acePoolBalance",
              "type": "uint256"
            },
            {
              "components": [
                {
                  "components": [
                    {
                      "internalType": "address payable",
                      "name": "userAddress",
                      "type": "address"
                    },
                    {
                      "internalType": "uint16[]",
                      "name": "holeScores",
                      "type": "uint16[]"
                    },
                    {
                      "internalType": "uint256",
                      "name": "totalScore",
                      "type": "uint256"
                    },
                    {
                      "internalType": "bool",
                      "name": "scoresSubmitted",
                      "type": "bool"
                    },
                    {
                      "internalType": "bool",
                      "name": "acePoolEntry",
                      "type": "bool"
                    },
                    {
                      "internalType": "bool",
                      "name": "acePoolWin",
                      "type": "bool"
                    }
                  ],
                  "internalType": "struct SmartLeagues.Player[]",
                  "name": "player",
                  "type": "tuple[]"
                },
                {
                  "internalType": "uint256",
                  "name": "balance",
                  "type": "uint256"
                },
                {
                  "internalType": "uint256",
                  "name": "priceToJoin",
                  "type": "uint256"
                },
                {
                  "internalType": "uint256",
                  "name": "priceAcePool",
                  "type": "uint256"
                },
                {
                  "internalType": "address[]",
                  "name": "acePoolWinners",
                  "type": "address[]"
                },
                {
                  "internalType": "uint16",
                  "name": "maxPlayers",
                  "type": "uint16"
                },
                {
                  "internalType": "uint16",
                  "name": "finishedCount",
                  "type": "uint16"
                },
                {
                  "internalType": "uint16",
                  "name": "numberOfHoles",
                  "type": "uint16"
                },
                {
                  "internalType": "uint8[]",
                  "name": "payoutPercentage",
                  "type": "uint8[]"
                }
              ],
              "internalType": "struct SmartLeagues.Round",
              "name": "round",
              "type": "tuple"
            },
            {
              "internalType": "bool",
              "name": "roundOpen",
              "type": "bool"
            }
          ],
          "internalType": "struct SmartLeagues.League",
          "name": "",
          "type": "tuple"
        }
      ],
      "stateMutability": "view",
      "type": "function"
    },
    {
      "inputs": [
        {
          "internalType": "string",
          "name": "_leagueName",
          "type": "string"
        }
      ],
      "name": "getLeagueRoundInfo",
      "outputs": [
        {
          "components": [
            {
              "components": [
                {
                  "internalType": "address payable",
                  "name": "userAddress",
                  "type": "address"
                },
                {
                  "internalType": "uint16[]",
                  "name": "holeScores",
                  "type": "uint16[]"
                },
                {
                  "internalType": "uint256",
                  "name": "totalScore",
                  "type": "uint256"
                },
                {
                  "internalType": "bool",
                  "name": "scoresSubmitted",
                  "type": "bool"
                },
                {
                  "internalType": "bool",
                  "name": "acePoolEntry",
                  "type": "bool"
                },
                {
                  "internalType": "bool",
                  "name": "acePoolWin",
                  "type": "bool"
                }
              ],
              "internalType": "struct SmartLeagues.Player[]",
              "name": "player",
              "type": "tuple[]"
            },
            {
              "internalType": "uint256",
              "name": "balance",
              "type": "uint256"
            },
            {
              "internalType": "uint256",
              "name": "priceToJoin",
              "type": "uint256"
            },
            {
              "internalType": "uint256",
              "name": "priceAcePool",
              "type": "uint256"
            },
            {
              "internalType": "address[]",
              "name": "acePoolWinners",
              "type": "address[]"
            },
            {
              "internalType": "uint16",
              "name": "maxPlayers",
              "type": "uint16"
            },
            {
              "internalType": "uint16",
              "name": "finishedCount",
              "type": "uint16"
            },
            {
              "internalType": "uint16",
              "name": "numberOfHoles",
              "type": "uint16"
            },
            {
              "internalType": "uint8[]",
              "name": "payoutPercentage",
              "type": "uint8[]"
            }
          ],
          "internalType": "struct SmartLeagues.Round",
          "name": "",
          "type": "tuple"
        }
      ],
      "stateMutability": "view",
      "type": "function"
    },
    {
      "inputs": [
        {
          "internalType": "string",
          "name": "_leagueName",
          "type": "string"
        },
        {
          "internalType": "address",
          "name": "_address",
          "type": "address"
        }
      ],
      "name": "getLeagueRoundPlayerInfo",
      "outputs": [
        {
          "components": [
            {
              "internalType": "address payable",
              "name": "userAddress",
              "type": "address"
            },
            {
              "internalType": "uint16[]",
              "name": "holeScores",
              "type": "uint16[]"
            },
            {
              "internalType": "uint256",
              "name": "totalScore",
              "type": "uint256"
            },
            {
              "internalType": "bool",
              "name": "scoresSubmitted",
              "type": "bool"
            },
            {
              "internalType": "bool",
              "name": "acePoolEntry",
              "type": "bool"
            },
            {
              "internalType": "bool",
              "name": "acePoolWin",
              "type": "bool"
            }
          ],
          "internalType": "struct SmartLeagues.Player",
          "name": "",
          "type": "tuple"
        }
      ],
      "stateMutability": "view",
      "type": "function"
    }
  ],
  "bytecode": "0x60806040527fffffffffffffffffffffffffffffffffffffffffffffffffffffffffffffffff60025561ffff600360006101000a81548161ffff021916908361ffff16021790555034801561005357600080fd5b506001600081905550615d58806200006c6000396000f3fe6080604052600436106100a05760003560e01c8063832564e011610064578063832564e014610191578063a1170f15146101ce578063a5e19cff146101f7578063b401faf114610234578063ea3a14991461024b578063fb69d26514610288576100a7565b806333e79016146100a957806341666e28146100e657806345680a67146101235780634cf040491461014c5780635327704714610175576100a7565b366100a757005b005b3480156100b557600080fd5b506100d060048036038101906100cb91906140c4565b6102a4565b6040516100dd91906154d0565b60405180910390f35b3480156100f257600080fd5b5061010d60048036038101906101089190614105565b610743565b60405161011a9190615536565b60405180910390f35b34801561012f57600080fd5b5061014a600480360381019061014591906140c4565b610916565b005b34801561015857600080fd5b50610173600480360381019061016e9190614219565b61131f565b005b61018f600480360381019061018a9190614159565b6118cc565b005b34801561019d57600080fd5b506101b860048036038101906101b39190614105565b611fd2565b6040516101c591906154f2565b60405180910390f35b3480156101da57600080fd5b506101f560048036038101906101f091906140c4565b61229f565b005b34801561020357600080fd5b5061021e600480360381019061021991906140c4565b61246f565b60405161022b9190615514565b60405180910390f35b34801561024057600080fd5b506102496128d1565b005b34801561025757600080fd5b50610272600480360381019061026d919061409b565b612a98565b60405161027f9190615551565b60405180910390f35b6102a2600480360381019061029d91906141c5565b612ab0565b005b6102ac613aa8565b8160056000826040516020016102c29190615164565b60405160208183030381529060405280519060200120815260200190815260200160002060009054906101000a900460ff16610333576040517f08c379a000000000000000000000000000000000000000000000000000000000815260040161032a906151d0565b60405180910390fd5b6000836040516020016103469190615164565b604051602081830303815290604052805190602001209050600460008281526020019081526020016000206040518060c0016040529081600082015481526020016001820160009054906101000a900473ffffffffffffffffffffffffffffffffffffffff1673ffffffffffffffffffffffffffffffffffffffff1673ffffffffffffffffffffffffffffffffffffffff1681526020016002820154815260200160038201548152602001600482016040518061012001604052908160008201805480602002602001604051908101604052809291908181526020016000905b8282101561058957838290600052602060002090600402016040518060c00160405290816000820160009054906101000a900473ffffffffffffffffffffffffffffffffffffffff1673ffffffffffffffffffffffffffffffffffffffff1673ffffffffffffffffffffffffffffffffffffffff1681526020016001820180548060200260200160405190810160405280929190818152602001828054801561051657602002820191906000526020600020906000905b82829054906101000a900461ffff1661ffff16815260200190600201906020826001010492830192600103820291508084116104dd5790505b50505050508152602001600282015481526020016003820160009054906101000a900460ff161515151581526020016003820160019054906101000a900460ff161515151581526020016003820160029054906101000a900460ff16151515158152505081526020019060010190610426565b5050505081526020016001820154815260200160028201548152602001600382015481526020016004820180548060200260200160405190810160405280929190818152602001828054801561063457602002820191906000526020600020905b8160009054906101000a900473ffffffffffffffffffffffffffffffffffffffff1673ffffffffffffffffffffffffffffffffffffffff16815260200190600101908083116105ea575b505050505081526020016005820160009054906101000a900461ffff1661ffff1661ffff1681526020016005820160029054906101000a900461ffff1661ffff1661ffff1681526020016005820160049054906101000a900461ffff1661ffff1661ffff1681526020016006820180548060200260200160405190810160405280929190818152602001828054801561071257602002820191906000526020600020906000905b82829054906101000a900460ff1660ff16815260200190600101906020826000010492830192600103820291508084116106db5790505b5050505050815250508152602001600b820160009054906101000a900460ff16151515158152505092505050919050565b600082600560008260405160200161075b9190615164565b60405160208183030381529060405280519060200120815260200190815260200160002060009054906101000a900460ff166107cc576040517f08c379a00000000000000000000000000000000000000000000000000000000081526004016107c3906151d0565b60405180910390fd5b6000846040516020016107df9190615164565b60405160208183030381529060405280519060200120905060005b60046000838152602001908152602001600020600401600001805490508161ffff1610156108f9578473ffffffffffffffffffffffffffffffffffffffff16600460008481526020019081526020016000206004016000018261ffff168154811061088e577f4e487b7100000000000000000000000000000000000000000000000000000000600052603260045260246000fd5b906000526020600020906004020160000160009054906101000a900473ffffffffffffffffffffffffffffffffffffffff1673ffffffffffffffffffffffffffffffffffffffff1614156108e657809350505061090f565b80806108f190615bae565b9150506107fa565b50600360009054906101000a900461ffff169250505b5092915050565b80600560008260405160200161092c9190615164565b60405160208183030381529060405280519060200120815260200190815260200160002060009054906101000a900460ff1661099d576040517f08c379a0000000000000000000000000000000000000000000000000000000008152600401610994906151d0565b60405180910390fd5b6000826040516020016109b09190615164565b6040516020818303038152906040528051906020012090503373ffffffffffffffffffffffffffffffffffffffff166004600083815260200190815260200160002060010160009054906101000a900473ffffffffffffffffffffffffffffffffffffffff1673ffffffffffffffffffffffffffffffffffffffff1614610a6c576040517f08c379a0000000000000000000000000000000000000000000000000000000008152600401610a63906151b0565b60405180910390fd5b60046000828152602001908152602001600020600b0160009054906101000a900460ff16610acf576040517f08c379a0000000000000000000000000000000000000000000000000000000008152600401610ac690615470565b60405180910390fd5b60046000828152602001908152602001600020600401600001805490506004600083815260200190815260200160002060040160050160029054906101000a900461ffff1661ffff1614610b58576040517f08c379a0000000000000000000000000000000000000000000000000000000008152600401610b4f90615430565b60405180910390fd5b600080600460008481526020019081526020016000206004016004018054905014610bbc57610bb9600460008481526020019081526020016000206003015460046000858152602001908152602001600020600401600401805490506133c5565b90505b610bf082600060016004600087815260200190815260200160002060040160000180549050610beb9190615a1d565b6133db565b60006004600084815260200190815260200160002060040160010154905060005b600460008581526020019081526020016000206004016006018054905081108015610cb057506000600460008681526020019081526020016000206004016006018281548110610c8a577f4e487b7100000000000000000000000000000000000000000000000000000000600052603260045260246000fd5b90600052602060002090602091828204019190069054906101000a900460ff1660ff1614155b15611283576000600190505b600460008681526020019081526020016000206004016000018161ffff1683610ce59190615807565b81548110610d1c577f4e487b7100000000000000000000000000000000000000000000000000000000600052603260045260246000fd5b906000526020600020906004020160020154600460008781526020019081526020016000206004016000018381548110610d7f577f4e487b7100000000000000000000000000000000000000000000000000000000600052603260045260246000fd5b9060005260206000209060040201600201541415610daa578080610da290615bae565b915050610cbc565b6000805b8261ffff168161ffff16108015610def575060046000888152602001908152602001600020600401600601805490508161ffff1685610ded9190615807565b105b15610e9757600460008881526020019081526020016000206004016006018161ffff1685610e1d9190615807565b81548110610e54577f4e487b7100000000000000000000000000000000000000000000000000000000600052603260045260246000fd5b90600052602060002090602091828204019190069054906101000a900460ff1660ff1682610e8291906157cf565b91508080610e8f90615bae565b915050610dae565b506000610eac8261ffff168461ffff166133c5565b90506000610ec482610ebf8860646133c5565b613a7c565b905060005b8461ffff168161ffff1610156112675781600460008b8152602001908152602001600020600401600101541015610f3a57600460008a81526020019081526020016000206004016001015491506000600460008b815260200190815260200160002060040160010181905550610f6b565b81600460008b81526020019081526020016000206004016001016000828254610f639190615a1d565b925050819055505b600460008a81526020019081526020016000206004016000018161ffff1687610f949190615807565b81548110610fcb577f4e487b7100000000000000000000000000000000000000000000000000000000600052603260045260246000fd5b906000526020600020906004020160030160029054906101000a900460ff161561116c5787600460008b8152602001908152602001600020600301541015611048576040517f08c379a000000000000000000000000000000000000000000000000000000000815260040161103f906153f0565b60405180910390fd5b87600460008b8152602001908152602001600020600301600082825461106e9190615a1d565b9250508190555087826110819190615807565b60016000600460008d81526020019081526020016000206004016000018461ffff168a6110ae9190615807565b815481106110e5577f4e487b7100000000000000000000000000000000000000000000000000000000600052603260045260246000fd5b906000526020600020906004020160000160009054906101000a900473ffffffffffffffffffffffffffffffffffffffff1673ffffffffffffffffffffffffffffffffffffffff1673ffffffffffffffffffffffffffffffffffffffff16815260200190815260200160002060008282546111609190615807565b92505081905550611254565b8160016000600460008d81526020019081526020016000206004016000018461ffff168a61119a9190615807565b815481106111d1577f4e487b7100000000000000000000000000000000000000000000000000000000600052603260045260246000fd5b906000526020600020906004020160000160009054906101000a900473ffffffffffffffffffffffffffffffffffffffff1673ffffffffffffffffffffffffffffffffffffffff1673ffffffffffffffffffffffffffffffffffffffff168152602001908152602001600020600082825461124c9190615807565b925050819055505b808061125f90615bae565b915050610ec9565b508361ffff16856112789190615807565b945050505050610c11565b5060046000848152602001908152602001600020600401600101546004600085815260200190815260200160002060020160008282546112c39190615807565b9250508190555060006004600085815260200190815260200160002060040160010181905550600060046000858152602001908152602001600020600b0160006101000a81548160ff0219169083151502179055505050505050565b8560056000826040516020016113359190615164565b60405160208183030381529060405280519060200120815260200190815260200160002060009054906101000a900460ff166113a6576040517f08c379a000000000000000000000000000000000000000000000000000000000815260040161139d906151d0565b60405180910390fd5b863373ffffffffffffffffffffffffffffffffffffffff1660046000836040516020016113d39190615164565b60405160208183030381529060405280519060200120815260200190815260200160002060010160009054906101000a900473ffffffffffffffffffffffffffffffffffffffff1673ffffffffffffffffffffffffffffffffffffffff1614611471576040517f08c379a0000000000000000000000000000000000000000000000000000000008152600401611468906151f0565b60405180910390fd5b6000886040516020016114849190615164565b60405160208183030381529060405280519060200120905060046000828152602001908152602001600020600b0160009054906101000a900460ff1615611500576040517f08c379a00000000000000000000000000000000000000000000000000000000081526004016114f7906154b0565b60405180910390fd5b60008811611543576040517f08c379a000000000000000000000000000000000000000000000000000000000815260040161153a90615370565b60405180910390fd5b6000871015611587576040517f08c379a000000000000000000000000000000000000000000000000000000000815260040161157e90615250565b60405180910390fd5b60018661ffff16116115ce576040517f08c379a00000000000000000000000000000000000000000000000000000000081526004016115c590615290565b60405180910390fd5b60008561ffff1611611615576040517f08c379a000000000000000000000000000000000000000000000000000000000815260040161160c90615390565b60405180910390fd5b6000805b85518110801561166d5750600086828151811061165f577f4e487b7100000000000000000000000000000000000000000000000000000000600052603260045260246000fd5b602002602001015160ff1614155b1561171a578581815181106116ab577f4e487b7100000000000000000000000000000000000000000000000000000000600052603260045260246000fd5b6020026020010151826116be919061585d565b915060648260ff161115611707576040517f08c379a00000000000000000000000000000000000000000000000000000000081526004016116fe90615350565b60405180910390fd5b808061171290615bd9565b915050611619565b50600160046000848152602001908152602001600020600b0160006101000a81548160ff02191690831515021790555060046000838152602001908152602001600020600401600001600061176f9190613aff565b6004600083815260200190815260200160002060040160040160006117949190613b23565b886004600084815260200190815260200160002060040160020181905550876004600084815260200190815260200160002060040160030181905550866004600084815260200190815260200160002060040160050160006101000a81548161ffff021916908361ffff16021790555060006004600084815260200190815260200160002060040160050160026101000a81548161ffff021916908361ffff160217905550856004600084815260200190815260200160002060040160050160046101000a81548161ffff021916908361ffff1602179055506004600083815260200190815260200160002060040160060160006118929190613b44565b846004600084815260200190815260200160002060040160060190805190602001906118bf929190613b6c565b5050505050505050505050565b8160056000826040516020016118e29190615164565b60405160208183030381529060405280519060200120815260200190815260200160002060009054906101000a900460ff16611953576040517f08c379a000000000000000000000000000000000000000000000000000000000815260040161194a906151d0565b60405180910390fd5b60026000541415611999576040517f08c379a000000000000000000000000000000000000000000000000000000000815260040161199090615450565b60405180910390fd5b60026000819055506000836040516020016119b49190615164565b60405160208183030381529060405280519060200120905060046000828152602001908152602001600020600b0160009054906101000a900460ff16611a2f576040517f08c379a0000000000000000000000000000000000000000000000000000000008152600401611a2690615470565b60405180910390fd5b6000611a3b8533610743565b9050600360009054906101000a900461ffff1661ffff168161ffff161415611a98576040517f08c379a0000000000000000000000000000000000000000000000000000000008152600401611a8f906152f0565b60405180910390fd5b600460008381526020019081526020016000206004016000018161ffff1681548110611aed577f4e487b7100000000000000000000000000000000000000000000000000000000600052603260045260246000fd5b906000526020600020906004020160030160009054906101000a900460ff1615611b4c576040517f08c379a0000000000000000000000000000000000000000000000000000000008152600401611b4390615490565b60405180910390fd5b6001600460008481526020019081526020016000206004016000018261ffff1681548110611ba3577f4e487b7100000000000000000000000000000000000000000000000000000000600052603260045260246000fd5b906000526020600020906004020160030160006101000a81548160ff0219169083151502179055506004600083815260200190815260200160002060040160050160049054906101000a900461ffff1661ffff16845114611c39576040517f08c379a0000000000000000000000000000000000000000000000000000000008152600401611c30906152d0565b60405180910390fd5b83600460008481526020019081526020016000206004016000018261ffff1681548110611c8f577f4e487b7100000000000000000000000000000000000000000000000000000000600052603260045260246000fd5b90600052602060002090600402016001019080519060200190611cb3929190613c13565b506000805b6004600085815260200190815260200160002060040160050160049054906101000a900461ffff1661ffff16811015611f0457611d39868281518110611d27577f4e487b7100000000000000000000000000000000000000000000000000000000600052603260045260246000fd5b602002602001015161ffff1683613a92565b9150600460008581526020019081526020016000206004016000018361ffff1681548110611d90577f4e487b7100000000000000000000000000000000000000000000000000000000600052603260045260246000fd5b906000526020600020906004020160030160019054906101000a900460ff168015611dff57506001868281518110611df1577f4e487b7100000000000000000000000000000000000000000000000000000000600052603260045260246000fd5b602002602001015161ffff16145b15611ef157600460008581526020019081526020016000206004016000018361ffff1681548110611e59577f4e487b7100000000000000000000000000000000000000000000000000000000600052603260045260246000fd5b906000526020600020906004020160030160029054906101000a90505060046000858152602001908152602001600020600401600401339080600181540180825580915050600190039060005260206000200160009091909190916101000a81548173ffffffffffffffffffffffffffffffffffffffff021916908373ffffffffffffffffffffffffffffffffffffffff1602179055505b8080611efc90615bd9565b915050611cb8565b5080600460008581526020019081526020016000206004016000018361ffff1681548110611f5b577f4e487b7100000000000000000000000000000000000000000000000000000000600052603260045260246000fd5b90600052602060002090600402016002018190555060046000848152602001908152602001600020600401600501600281819054906101000a900461ffff1680929190611fa790615bae565b91906101000a81548161ffff021916908361ffff160217905550505050506001600081905550505050565b611fda613cbd565b826005600082604051602001611ff09190615164565b60405160208183030381529060405280519060200120815260200190815260200160002060009054906101000a900460ff16612061576040517f08c379a0000000000000000000000000000000000000000000000000000000008152600401612058906151d0565b60405180910390fd5b600061206d8585610743565b9050600360009054906101000a900461ffff1661ffff168161ffff1614156120ca576040517f08c379a00000000000000000000000000000000000000000000000000000000081526004016120c1906152b0565b60405180910390fd5b6000856040516020016120dd9190615164565b604051602081830303815290604052805190602001209050600460008281526020019081526020016000206004016000018261ffff168154811061214a577f4e487b7100000000000000000000000000000000000000000000000000000000600052603260045260246000fd5b90600052602060002090600402016040518060c00160405290816000820160009054906101000a900473ffffffffffffffffffffffffffffffffffffffff1673ffffffffffffffffffffffffffffffffffffffff1673ffffffffffffffffffffffffffffffffffffffff1681526020016001820180548060200260200160405190810160405280929190818152602001828054801561223057602002820191906000526020600020906000905b82829054906101000a900461ffff1661ffff16815260200190600201906020826001010492830192600103820291508084116121f75790505b50505050508152602001600282015481526020016003820160009054906101000a900460ff161515151581526020016003820160019054906101000a900460ff161515151581526020016003820160029054906101000a900460ff161515151581525050935050505092915050565b8060056000826040516020016122b59190615164565b60405160208183030381529060405280519060200120815260200190815260200160002060009054906101000a900460ff1615612327576040517f08c379a000000000000000000000000000000000000000000000000000000000815260040161231e90615210565b60405180910390fd5b60008260405160200161233a9190615164565b60405160208183030381529060405280519060200120905060016005600083815260200190815260200160002060006101000a81548160ff021916908315150217905550806004600083815260200190815260200160002060000181905550336004600083815260200190815260200160002060010160006101000a81548173ffffffffffffffffffffffffffffffffffffffff021916908373ffffffffffffffffffffffffffffffffffffffff1602179055506000600460008381526020019081526020016000206002018190555060006004600083815260200190815260200160002060030181905550803373ffffffffffffffffffffffffffffffffffffffff167f31c01fc8df5211cb4bb5037c775fee375f3277dd33bfb0a08b3bb0825f2ffaac60405160405180910390a3505050565b612477613d0f565b81600560008260405160200161248d9190615164565b60405160208183030381529060405280519060200120815260200190815260200160002060009054906101000a900460ff166124fe576040517f08c379a00000000000000000000000000000000000000000000000000000000081526004016124f5906151d0565b60405180910390fd5b6000836040516020016125119190615164565b60405160208183030381529060405280519060200120905060046000828152602001908152602001600020600b0160009054906101000a900460ff1661258c576040517f08c379a000000000000000000000000000000000000000000000000000000000815260040161258390615310565b60405180910390fd5b600460008281526020019081526020016000206004016040518061012001604052908160008201805480602002602001604051908101604052809291908181526020016000905b8282101561273657838290600052602060002090600402016040518060c00160405290816000820160009054906101000a900473ffffffffffffffffffffffffffffffffffffffff1673ffffffffffffffffffffffffffffffffffffffff1673ffffffffffffffffffffffffffffffffffffffff168152602001600182018054806020026020016040519081016040528092919081815260200182805480156126c357602002820191906000526020600020906000905b82829054906101000a900461ffff1661ffff168152602001906002019060208260010104928301926001038202915080841161268a5790505b50505050508152602001600282015481526020016003820160009054906101000a900460ff161515151581526020016003820160019054906101000a900460ff161515151581526020016003820160029054906101000a900460ff161515151581525050815260200190600101906125d3565b505050508152602001600182015481526020016002820154815260200160038201548152602001600482018054806020026020016040519081016040528092919081815260200182805480156127e157602002820191906000526020600020905b8160009054906101000a900473ffffffffffffffffffffffffffffffffffffffff1673ffffffffffffffffffffffffffffffffffffffff1681526020019060010190808311612797575b505050505081526020016005820160009054906101000a900461ffff1661ffff1661ffff1681526020016005820160029054906101000a900461ffff1661ffff1661ffff1681526020016005820160049054906101000a900461ffff1661ffff1661ffff168152602001600682018054806020026020016040519081016040528092919081815260200182805480156128bf57602002820191906000526020600020906000905b82829054906101000a900460ff1660ff16815260200190600101906020826000010492830192600103820291508084116128885790505b50505050508152505092505050919050565b60026000541415612917576040517f08c379a000000000000000000000000000000000000000000000000000000000815260040161290e90615450565b60405180910390fd5b60026000819055506000600160003373ffffffffffffffffffffffffffffffffffffffff1673ffffffffffffffffffffffffffffffffffffffff1681526020019081526020016000205414156129a2576040517f08c379a0000000000000000000000000000000000000000000000000000000008152600401612999906153d0565b60405180910390fd5b60003373ffffffffffffffffffffffffffffffffffffffff16600160003373ffffffffffffffffffffffffffffffffffffffff1673ffffffffffffffffffffffffffffffffffffffff16815260200190815260200160002054604051612a079061517b565b60006040518083038185875af1925050503d8060008114612a44576040519150601f19603f3d011682016040523d82523d6000602084013e612a49565b606091505b5050905080612a8d576040517f08c379a0000000000000000000000000000000000000000000000000000000008152600401612a8490615230565b60405180910390fd5b506001600081905550565b60016020528060005260406000206000915090505481565b816005600082604051602001612ac69190615164565b60405160208183030381529060405280519060200120815260200190815260200160002060009054906101000a900460ff16612b37576040517f08c379a0000000000000000000000000000000000000000000000000000000008152600401612b2e906151d0565b60405180910390fd5b82600081604051602001612b4b9190615164565b60405160208183030381529060405280519060200120905060005b60046000838152602001908152602001600020600401600001805490508161ffff161015612c96573373ffffffffffffffffffffffffffffffffffffffff16600460008481526020019081526020016000206004016000018261ffff1681548110612bfa577f4e487b7100000000000000000000000000000000000000000000000000000000600052603260045260246000fd5b906000526020600020906004020160000160009054906101000a900473ffffffffffffffffffffffffffffffffffffffff1673ffffffffffffffffffffffffffffffffffffffff161415612c83576040517f08c379a0000000000000000000000000000000000000000000000000000000008152600401612c7a90615270565b60405180910390fd5b8080612c8e90615bae565b915050612b66565b5060026000541415612cdd576040517f08c379a0000000000000000000000000000000000000000000000000000000008152600401612cd490615450565b60405180910390fd5b6002600081905550600085604051602001612cf89190615164565b60405160208183030381529060405280519060200120905060046000828152602001908152602001600020600b0160009054906101000a900460ff16612d73576040517f08c379a0000000000000000000000000000000000000000000000000000000008152600401612d6a906153b0565b60405180910390fd5b6004600082815260200190815260200160002060040160050160009054906101000a900461ffff1661ffff16600460008381526020019081526020016000206004016000018054905010612dfc576040517f08c379a0000000000000000000000000000000000000000000000000000000008152600401612df390615330565b60405180910390fd5b612e04613cbd565b33816000019073ffffffffffffffffffffffffffffffffffffffff16908173ffffffffffffffffffffffffffffffffffffffff16815250506000816060019015159081151581525050806020016060815250851561313e57612e9860046000848152602001908152602001600020600401600201546004600085815260200190815260200160002060040160030154613a92565b3414612ed9576040517f08c379a0000000000000000000000000000000000000000000000000000000008152600401612ed090615190565b60405180910390fd5b6004600083815260200190815260200160002060040160020154600460008481526020019081526020016000206004016001016000828254612f1b9190615807565b925050819055506004600083815260200190815260200160002060040160030154600460008481526020019081526020016000206003016000828254612f619190615807565b9250508190555060018160800190151590811515815250506004600083815260200190815260200160002060040160000181908060018154018082558091505060019003906000526020600020906004020160009091909190915060008201518160000160006101000a81548173ffffffffffffffffffffffffffffffffffffffff021916908373ffffffffffffffffffffffffffffffffffffffff160217905550602082015181600101908051906020019061301f929190613c13565b506040820151816002015560608201518160030160006101000a81548160ff02191690831515021790555060808201518160030160016101000a81548160ff02191690831515021790555060a08201518160030160026101000a81548160ff021916908315150217905550505060003073ffffffffffffffffffffffffffffffffffffffff16346040516130b29061517b565b60006040518083038185875af1925050503d80600081146130ef576040519150601f19603f3d011682016040523d82523d6000602084013e6130f4565b606091505b5050905080613138576040517f08c379a000000000000000000000000000000000000000000000000000000000815260040161312f90615230565b60405180910390fd5b506133b4565b60046000838152602001908152602001600020600401600201543414613199576040517f08c379a000000000000000000000000000000000000000000000000000000000815260040161319090615410565b60405180910390fd5b60046000838152602001908152602001600020600401600201546004600084815260200190815260200160002060040160010160008282546131db9190615807565b9250508190555060008160800190151590811515815250506004600083815260200190815260200160002060040160000181908060018154018082558091505060019003906000526020600020906004020160009091909190915060008201518160000160006101000a81548173ffffffffffffffffffffffffffffffffffffffff021916908373ffffffffffffffffffffffffffffffffffffffff1602179055506020820151816001019080519060200190613299929190613c13565b506040820151816002015560608201518160030160006101000a81548160ff02191690831515021790555060808201518160030160016101000a81548160ff02191690831515021790555060a08201518160030160026101000a81548160ff021916908315150217905550505060003073ffffffffffffffffffffffffffffffffffffffff163460405161332c9061517b565b60006040518083038185875af1925050503d8060008114613369576040519150601f19603f3d011682016040523d82523d6000602084013e61336e565b606091505b50509050806133b2576040517f08c379a00000000000000000000000000000000000000000000000000000000081526004016133a990615230565b60405180910390fd5b505b505060016000819055505050505050565b600081836133d391906158fe565b905092915050565b60008290506000829050808214156133f4575050613a77565b6000600460008781526020019081526020016000206004016000016002868661341d9190615989565b6134279190615894565b86613432919061573b565b81548110613469577f4e487b7100000000000000000000000000000000000000000000000000000000600052603260045260246000fd5b90600052602060002090600402016002015490505b818313613a4b575b806004600088815260200190815260200160002060040160000184815481106134d8577f4e487b7100000000000000000000000000000000000000000000000000000000600052603260045260246000fd5b90600052602060002090600402016002015410156135035782806134fb90615b65565b935050613486565b5b600460008781526020019081526020016000206004016000018281548110613555577f4e487b7100000000000000000000000000000000000000000000000000000000600052603260045260246000fd5b90600052602060002090600402016002015481101561358157818061357990615b1c565b925050613504565b818313613a465760006004600088815260200190815260200160002060040160000184815481106135db577f4e487b7100000000000000000000000000000000000000000000000000000000600052603260045260246000fd5b90600052602060002090600402016040518060c00160405290816000820160009054906101000a900473ffffffffffffffffffffffffffffffffffffffff1673ffffffffffffffffffffffffffffffffffffffff1673ffffffffffffffffffffffffffffffffffffffff168152602001600182018054806020026020016040519081016040528092919081815260200182805480156136c157602002820191906000526020600020906000905b82829054906101000a900461ffff1661ffff16815260200190600201906020826001010492830192600103820291508084116136885790505b50505050508152602001600282015481526020016003820160009054906101000a900460ff161515151581526020016003820160019054906101000a900460ff161515151581526020016003820160029054906101000a900460ff1615151515815250509050600460008881526020019081526020016000206004016000018381548110613778577f4e487b7100000000000000000000000000000000000000000000000000000000600052603260045260246000fd5b90600052602060002090600402016004600089815260200190815260200160002060040160000185815481106137d7577f4e487b7100000000000000000000000000000000000000000000000000000000600052603260045260246000fd5b90600052602060002090600402016000820160009054906101000a900473ffffffffffffffffffffffffffffffffffffffff168160000160006101000a81548173ffffffffffffffffffffffffffffffffffffffff021916908373ffffffffffffffffffffffffffffffffffffffff1602179055506001820181600101908054613862929190613d67565b50600282015481600201556003820160009054906101000a900460ff168160030160006101000a81548160ff0219169083151502179055506003820160019054906101000a900460ff168160030160016101000a81548160ff0219169083151502179055506003820160029054906101000a900460ff168160030160026101000a81548160ff02191690831515021790555090505080600460008981526020019081526020016000206004016000018481548110613949577f4e487b7100000000000000000000000000000000000000000000000000000000600052603260045260246000fd5b906000526020600020906004020160008201518160000160006101000a81548173ffffffffffffffffffffffffffffffffffffffff021916908373ffffffffffffffffffffffffffffffffffffffff16021790555060208201518160010190805190602001906139ba929190613c13565b506040820151816002015560608201518160030160006101000a81548160ff02191690831515021790555060808201518160030160016101000a81548160ff02191690831515021790555060a08201518160030160026101000a81548160ff0219169083151502179055509050508380613a3390615b65565b9450508280613a4190615b1c565b935050505b61347e565b81851215613a5f57613a5e8686846133db565b5b83831215613a7357613a728684866133db565b5b5050505b505050565b60008183613a8a919061592f565b905092915050565b60008183613aa09190615807565b905092915050565b6040518060c0016040528060008019168152602001600073ffffffffffffffffffffffffffffffffffffffff1681526020016000815260200160008152602001613af0613d0f565b81526020016000151581525090565b5080546000825560040290600052602060002090810190613b209190613dc7565b50565b5080546000825590600052602060002090810190613b419190613e59565b50565b50805460008255601f016020900490600052602060002090810190613b699190613e59565b50565b82805482825590600052602060002090601f01602090048101928215613c025791602002820160005b83821115613bd357835183826101000a81548160ff021916908360ff1602179055509260200192600101602081600001049283019260010302613b95565b8015613c005782816101000a81549060ff0219169055600101602081600001049283019260010302613bd3565b505b509050613c0f9190613e59565b5090565b82805482825590600052602060002090600f01601090048101928215613cac5791602002820160005b83821115613c7c57835183826101000a81548161ffff021916908361ffff1602179055509260200192600201602081600101049283019260010302613c3c565b8015613caa5782816101000a81549061ffff0219169055600201602081600101049283019260010302613c7c565b505b509050613cb99190613e59565b5090565b6040518060c00160405280600073ffffffffffffffffffffffffffffffffffffffff16815260200160608152602001600081526020016000151581526020016000151581526020016000151581525090565b6040518061012001604052806060815260200160008152602001600081526020016000815260200160608152602001600061ffff168152602001600061ffff168152602001600061ffff168152602001606081525090565b82805482825590600052602060002090600f01601090048101928215613db657600052602060002091600f016010900482015b82811115613db5578254825591600101919060010190613d9a565b5b509050613dc39190613e59565b5090565b5b80821115613e5557600080820160006101000a81549073ffffffffffffffffffffffffffffffffffffffff0219169055600182016000613e089190613e76565b60028201600090556003820160006101000a81549060ff02191690556003820160016101000a81549060ff02191690556003820160026101000a81549060ff021916905550600401613dc8565b5090565b5b80821115613e72576000816000905550600101613e5a565b5090565b50805460008255600f016010900490600052602060002090810190613e9b9190613e59565b50565b6000613eb1613eac8461559d565b61556c565b90508083825260208201905082856020860282011115613ed057600080fd5b60005b85811015613f005781613ee6888261405c565b845260208401935060208301925050600181019050613ed3565b5050509392505050565b6000613f1d613f18846155c9565b61556c565b90508083825260208201905082856020860282011115613f3c57600080fd5b60005b85811015613f6c5781613f528882614086565b845260208401935060208301925050600181019050613f3f565b5050509392505050565b6000613f89613f84846155f5565b61556c565b905082815260208101848484011115613fa157600080fd5b613fac848285615ada565b509392505050565b600081359050613fc381615caf565b92915050565b600082601f830112613fda57600080fd5b8135613fea848260208601613e9e565b91505092915050565b600082601f83011261400457600080fd5b8135614014848260208601613f0a565b91505092915050565b60008135905061402c81615cc6565b92915050565b600082601f83011261404357600080fd5b8135614053848260208601613f76565b91505092915050565b60008135905061406b81615cdd565b92915050565b60008135905061408081615cf4565b92915050565b60008135905061409581615d0b565b92915050565b6000602082840312156140ad57600080fd5b60006140bb84828501613fb4565b91505092915050565b6000602082840312156140d657600080fd5b600082013567ffffffffffffffff8111156140f057600080fd5b6140fc84828501614032565b91505092915050565b6000806040838503121561411857600080fd5b600083013567ffffffffffffffff81111561413257600080fd5b61413e85828601614032565b925050602061414f85828601613fb4565b9150509250929050565b6000806040838503121561416c57600080fd5b600083013567ffffffffffffffff81111561418657600080fd5b61419285828601614032565b925050602083013567ffffffffffffffff8111156141af57600080fd5b6141bb85828601613fc9565b9150509250929050565b600080604083850312156141d857600080fd5b600083013567ffffffffffffffff8111156141f257600080fd5b6141fe85828601614032565b925050602061420f8582860161401d565b9150509250929050565b60008060008060008060c0878903121561423257600080fd5b600087013567ffffffffffffffff81111561424c57600080fd5b61425889828a01614032565b965050602061426989828a01614071565b955050604061427a89828a01614071565b945050606061428b89828a0161405c565b935050608061429c89828a0161405c565b92505060a087013567ffffffffffffffff8111156142b957600080fd5b6142c589828a01613ff3565b9150509295509295509295565b60006142de838361433d565b60208301905092915050565b60006142f68383614e61565b905092915050565b600061430a8383615119565b60208301905092915050565b60006143228383615155565b60208301905092915050565b61433781615a63565b82525050565b61434681615a51565b82525050565b600061435782615665565b61436181856156d0565b935061436c83615625565b8060005b8381101561439d57815161438488826142d2565b975061438f8361569c565b925050600181019050614370565b5085935050505092915050565b60006143b582615670565b6143bf81856156e1565b9350836020820285016143d185615635565b8060005b8581101561440d57848403895281516143ee85826142ea565b94506143f9836156a9565b925060208a019950506001810190506143d5565b50829750879550505050505092915050565b600061442a8261567b565b61443481856156f2565b935061443f83615645565b8060005b8381101561447057815161445788826142fe565b9750614462836156b6565b925050600181019050614443565b5085935050505092915050565b600061448882615686565b6144928185615703565b935061449d83615655565b8060005b838110156144ce5781516144b58882614316565b97506144c0836156c3565b9250506001810190506144a1565b5085935050505092915050565b6144e481615a75565b82525050565b6144f381615a81565b82525050565b600061450482615691565b61450e8185615730565b935061451e818560208601615ae9565b80840191505092915050565b600061453760288361571f565b91507f496e636f72726563742066756e647320746f206a6f696e20726f756e64202b2060008301527f61636520706f6f6c0000000000000000000000000000000000000000000000006020830152604082019050919050565b600061459d60258361571f565b91507f4f6e6c7920746865206c6561677565206f776e65722063616e2063616c6c207060008301527f61796f75740000000000000000000000000000000000000000000000000000006020830152604082019050919050565b6000614603601a8361571f565b91507f4c6561677565206e616d6520646f6573206e6f742065786973740000000000006000830152602082019050919050565b600061464360238361571f565b91507f4f6e6c79206c6561677565206f776e65722063616e207374617274206120726f60008301527f756e6400000000000000000000000000000000000000000000000000000000006020830152604082019050919050565b60006146a9601a8361571f565b91507f4c6561677565206e616d6520616c7265616479206578697374730000000000006000830152602082019050919050565b60006146e960148361571f565b91507f4661696c656420746f2073656e642045746865720000000000000000000000006000830152602082019050919050565b6000614729603f8361571f565b91507f41636520706f6f6c207072696365206d757374206265206e6f6e2d6e6567617460008301527f6976652c2073657420746f207a65726f206966206e6f2061636520706f6f6c006020830152604082019050919050565b600061478f60258361571f565b91507f4164647265737320616c726561647920696e636c7564656420696e207468652060008301527f726f756e640000000000000000000000000000000000000000000000000000006020830152604082019050919050565b60006147f5602b8361571f565b91507f4d6178206e756d626572206f6620706c6179657273206d757374206265206d6f60008301527f7265207468616e206f6e650000000000000000000000000000000000000000006020830152604082019050919050565b600061485b601d8361571f565b91507f41646472657373206e6f7420696e636c7564656420696e20726f756e640000006000830152602082019050919050565b600061489b60228361571f565b91507f496e76616c69642061727261792073697a6520666f7220686f6c652073636f7260008301527f65730000000000000000000000000000000000000000000000000000000000006020830152604082019050919050565b6000614901602d8361571f565b91507f41646472657373206973206e6f7420696e636c7564656420696e20746869732060008301527f6c65616775657320726f756e64000000000000000000000000000000000000006020830152604082019050919050565b6000614967600d8361571f565b91507f4e6f20726f756e64206f70656e000000000000000000000000000000000000006000830152602082019050919050565b60006149a760178361571f565b91507f4e6f206d6f72652073706f747320617661696c61626c650000000000000000006000830152602082019050919050565b60006149e760438361571f565b91507f5061796f757420736368656d6520696e76616c69642c20616c6c20706c61636560008301527f73206d757374206265206c657373207468616e206f7220657175616c20746f2060208301527f31303000000000000000000000000000000000000000000000000000000000006040830152606082019050919050565b6000614a7360288361571f565b91507f507269636520746f206a6f696e206d75737420626520706f7369746976652c2060008301527f6e6f6e2d7a65726f0000000000000000000000000000000000000000000000006020830152604082019050919050565b6000614ad9603e8361571f565b91507f4e65656420746f2068617665206120706f736974697665206e6f6e2d7a65726f60008301527f206e756d626572206f6620686f6c657320666f722074686520726f756e6400006020830152604082019050919050565b6000614b3f601c8361571f565b91507f4120726f756e6420686173206e6f74206265656e2073746172746564000000006000830152602082019050919050565b6000614b7f60108361571f565b91507f4e6f74686e696720746f20636c61696d000000000000000000000000000000006000830152602082019050919050565b6000614bbf600083615714565b9150600082019050919050565b6000614bd9602c8361571f565b91507f41636520706f6f6c2062616c616e6365206e6f74206c6172676520656e6f756760008301527f6820746f20706179206f757400000000000000000000000000000000000000006020830152604082019050919050565b6000614c3f601d8361571f565b91507f496e636f72726563742066756e647320746f206a6f696e20726f756e640000006000830152602082019050919050565b6000614c7f60198361571f565b91507f5061796f757420636f6e646974696f6e73206e6f74206d6574000000000000006000830152602082019050919050565b6000614cbf601f8361571f565b91507f5265656e7472616e637947756172643a207265656e7472616e742063616c6c006000830152602082019050919050565b6000614cff60268361571f565b91507f5468657265206973206e6f206f70656e20726f756e6420666f7220746869732060008301527f6c656167756500000000000000000000000000000000000000000000000000006020830152604082019050919050565b6000614d6560188361571f565b91507f53636f72657320616c7265616479207375626d697474656400000000000000006000830152602082019050919050565b6000614da560128361571f565b91507f526f756e6420616c7265616479206f70656e00000000000000000000000000006000830152602082019050919050565b600060c083016000830151614df060008601826144ea565b506020830151614e03602086018261433d565b506040830151614e166040860182615137565b506060830151614e296060860182615137565b5060808301518482036080860152614e418282614f73565b91505060a0830151614e5660a08601826144db565b508091505092915050565b600060c083016000830151614e79600086018261432e565b5060208301518482036020860152614e91828261441f565b9150506040830151614ea66040860182615137565b506060830151614eb960608601826144db565b506080830151614ecc60808601826144db565b5060a0830151614edf60a08601826144db565b508091505092915050565b600060c083016000830151614f02600086018261432e565b5060208301518482036020860152614f1a828261441f565b9150506040830151614f2f6040860182615137565b506060830151614f4260608601826144db565b506080830151614f5560808601826144db565b5060a0830151614f6860a08601826144db565b508091505092915050565b6000610120830160008301518482036000860152614f9182826143aa565b9150506020830151614fa66020860182615137565b506040830151614fb96040860182615137565b506060830151614fcc6060860182615137565b5060808301518482036080860152614fe4828261434c565b91505060a0830151614ff960a0860182615119565b5060c083015161500c60c0860182615119565b5060e083015161501f60e0860182615119565b50610100830151848203610100860152615039828261447d565b9150508091505092915050565b600061012083016000830151848203600086015261506482826143aa565b91505060208301516150796020860182615137565b50604083015161508c6040860182615137565b50606083015161509f6060860182615137565b50608083015184820360808601526150b7828261434c565b91505060a08301516150cc60a0860182615119565b5060c08301516150df60c0860182615119565b5060e08301516150f260e0860182615119565b5061010083015184820361010086015261510c828261447d565b9150508091505092915050565b61512281615a95565b82525050565b61513181615a95565b82525050565b61514081615ac3565b82525050565b61514f81615ac3565b82525050565b61515e81615acd565b82525050565b600061517082846144f9565b915081905092915050565b600061518682614bb2565b9150819050919050565b600060208201905081810360008301526151a98161452a565b9050919050565b600060208201905081810360008301526151c981614590565b9050919050565b600060208201905081810360008301526151e9816145f6565b9050919050565b6000602082019050818103600083015261520981614636565b9050919050565b600060208201905081810360008301526152298161469c565b9050919050565b60006020820190508181036000830152615249816146dc565b9050919050565b600060208201905081810360008301526152698161471c565b9050919050565b6000602082019050818103600083015261528981614782565b9050919050565b600060208201905081810360008301526152a9816147e8565b9050919050565b600060208201905081810360008301526152c98161484e565b9050919050565b600060208201905081810360008301526152e98161488e565b9050919050565b60006020820190508181036000830152615309816148f4565b9050919050565b600060208201905081810360008301526153298161495a565b9050919050565b600060208201905081810360008301526153498161499a565b9050919050565b60006020820190508181036000830152615369816149da565b9050919050565b6000602082019050818103600083015261538981614a66565b9050919050565b600060208201905081810360008301526153a981614acc565b9050919050565b600060208201905081810360008301526153c981614b32565b9050919050565b600060208201905081810360008301526153e981614b72565b9050919050565b6000602082019050818103600083015261540981614bcc565b9050919050565b6000602082019050818103600083015261542981614c32565b9050919050565b6000602082019050818103600083015261544981614c72565b9050919050565b6000602082019050818103600083015261546981614cb2565b9050919050565b6000602082019050818103600083015261548981614cf2565b9050919050565b600060208201905081810360008301526154a981614d58565b9050919050565b600060208201905081810360008301526154c981614d98565b9050919050565b600060208201905081810360008301526154ea8184614dd8565b905092915050565b6000602082019050818103600083015261550c8184614eea565b905092915050565b6000602082019050818103600083015261552e8184615046565b905092915050565b600060208201905061554b6000830184615128565b92915050565b60006020820190506155666000830184615146565b92915050565b6000604051905081810181811067ffffffffffffffff8211171561559357615592615c80565b5b8060405250919050565b600067ffffffffffffffff8211156155b8576155b7615c80565b5b602082029050602081019050919050565b600067ffffffffffffffff8211156155e4576155e3615c80565b5b602082029050602081019050919050565b600067ffffffffffffffff8211156156105761560f615c80565b5b601f19601f8301169050602081019050919050565b6000819050602082019050919050565b6000819050602082019050919050565b6000819050602082019050919050565b6000819050602082019050919050565b600081519050919050565b600081519050919050565b600081519050919050565b600081519050919050565b600081519050919050565b6000602082019050919050565b6000602082019050919050565b6000602082019050919050565b6000602082019050919050565b600082825260208201905092915050565b600082825260208201905092915050565b600082825260208201905092915050565b600082825260208201905092915050565b600081905092915050565b600082825260208201905092915050565b600081905092915050565b600061574682615a8b565b915061575183615a8b565b9250817f7fffffffffffffffffffffffffffffffffffffffffffffffffffffffffffffff0383136000831215161561578c5761578b615c22565b5b817f80000000000000000000000000000000000000000000000000000000000000000383126000831216156157c4576157c3615c22565b5b828201905092915050565b60006157da82615a95565b91506157e583615a95565b92508261ffff038211156157fc576157fb615c22565b5b828201905092915050565b600061581282615ac3565b915061581d83615ac3565b9250827fffffffffffffffffffffffffffffffffffffffffffffffffffffffffffffffff0382111561585257615851615c22565b5b828201905092915050565b600061586882615acd565b915061587383615acd565b92508260ff0382111561588957615888615c22565b5b828201905092915050565b600061589f82615a8b565b91506158aa83615a8b565b9250826158ba576158b9615c51565b5b600160000383147f8000000000000000000000000000000000000000000000000000000000000000831416156158f3576158f2615c22565b5b828205905092915050565b600061590982615ac3565b915061591483615ac3565b92508261592457615923615c51565b5b828204905092915050565b600061593a82615ac3565b915061594583615ac3565b9250817fffffffffffffffffffffffffffffffffffffffffffffffffffffffffffffffff048311821515161561597e5761597d615c22565b5b828202905092915050565b600061599482615a8b565b915061599f83615a8b565b9250827f8000000000000000000000000000000000000000000000000000000000000000018212600084121516156159da576159d9615c22565b5b827f7fffffffffffffffffffffffffffffffffffffffffffffffffffffffffffffff018213600084121615615a1257615a11615c22565b5b828203905092915050565b6000615a2882615ac3565b9150615a3383615ac3565b925082821015615a4657615a45615c22565b5b828203905092915050565b6000615a5c82615aa3565b9050919050565b6000615a6e82615aa3565b9050919050565b60008115159050919050565b6000819050919050565b6000819050919050565b600061ffff82169050919050565b600073ffffffffffffffffffffffffffffffffffffffff82169050919050565b6000819050919050565b600060ff82169050919050565b82818337600083830152505050565b60005b83811015615b07578082015181840152602081019050615aec565b83811115615b16576000848401525b50505050565b6000615b2782615a8b565b91507f8000000000000000000000000000000000000000000000000000000000000000821415615b5a57615b59615c22565b5b600182039050919050565b6000615b7082615a8b565b91507f7fffffffffffffffffffffffffffffffffffffffffffffffffffffffffffffff821415615ba357615ba2615c22565b5b600182019050919050565b6000615bb982615a95565b915061ffff821415615bce57615bcd615c22565b5b600182019050919050565b6000615be482615ac3565b91507fffffffffffffffffffffffffffffffffffffffffffffffffffffffffffffffff821415615c1757615c16615c22565b5b600182019050919050565b7f4e487b7100000000000000000000000000000000000000000000000000000000600052601160045260246000fd5b7f4e487b7100000000000000000000000000000000000000000000000000000000600052601260045260246000fd5b7f4e487b7100000000000000000000000000000000000000000000000000000000600052604160045260246000fd5b615cb881615a51565b8114615cc357600080fd5b50565b615ccf81615a75565b8114615cda57600080fd5b50565b615ce681615a95565b8114615cf157600080fd5b50565b615cfd81615ac3565b8114615d0857600080fd5b50565b615d1481615acd565b8114615d1f57600080fd5b5056fea264697066735822122083dad97c427c48119398366039e44f0a78533daa6df334d8b19363ef61fb10e164736f6c63430008000033",
  "immutableReferences": {},
  "source": "//SPDX-License-Identifier: MIT\npragma solidity >=0.5.0 <0.9.0;\n\nimport \"./SmartLeaguesBase.sol\";\nimport \"./@openzeppelin/contracts/utils/math/SafeMath.sol\";\n//import \"./@openzeppelin/contracts/security/ReentrancyGuard.sol\";\n\ncontract SmartLeagues is SmartLeaguesBase {\n    constructor() {\n    }\n\n    using SafeMath for uint256;\n    using SafeMath for uint64;\n    using SafeMath for uint16;\n\n    struct Player {\n        address payable userAddress;\n        uint16[] holeScores;\n        uint256 totalScore;\n        bool scoresSubmitted;\n        bool acePoolEntry;\n        bool acePoolWin;\n    }\n\n    struct Round {\n        Player[] player;\n        uint256 balance;            // total balance of entry fees\n        uint256 priceToJoin;\n        uint256 priceAcePool;\n        address[] acePoolWinners;   // contains all winners of the ace pool\n        uint16 maxPlayers;          // max number of players allowed in the round\n        uint16 finishedCount;       // how many have submitted scores\n        uint16 numberOfHoles;       // used for player.holeScores array size \n        uint8[] payoutPercentage;   // 0-100 percentage of pool paid out to winners where [0] is first place, [1] is seconds place, etc.\n                                    // any total percentage under 100, the leftover will be donated back to the league funds\n    }\n\n    struct League {\n        bytes32 name;                               // name: hash of name of league input upon creation\n        address owner;                              // owner: address that calls createLeague()\n        uint256 balance;                            // totalBalance: total balance deposited in this league\n        uint256 acePoolBalance;                     // acePoolBalance: total balance of current ace pool\n        Round round;                                // round: holds active round data\n        bool roundOpen;                             // roundOpen: 1 if there is an active round started that has not finished\n    }\n    \n    event NewLeague(address indexed _owner, bytes32 indexed _leagueHash);\n    //event NewRound(bytes32 indexed _leagueHash, Round indexed _roundData);\n    //event PlayerJoinedRound(address indexed _player, string indexed _nickname, bytes32 indexed _leagueHash);\n\n    mapping (bytes32 => League) internal nameToLeague;\n    mapping (bytes32 => bool) internal leagueNames;\n    /*\n    mapping (address => uint) public winnings;\n\n    uint256 MAX_UINT = 0xffffffffffffffffffffffffffffffffffffffffffffffffffffffffffffffff;\n    uint16 MAX_UINT16 = 0xffff;\n    */\n\n    modifier leagueExists(string memory _name) {\n        require(leagueNames[keccak256(abi.encodePacked(_name))], \"League name does not exist\");\n        _;\n    }\n\n    modifier leagueDoesNotExist(string memory _name) {\n        require(!leagueNames[keccak256(abi.encodePacked(_name))], \"League name already exists\");\n        _;\n    }\n\n    // can start a round if you are the league owner of this league \n    modifier startLeagueRoundAccess(string memory _leagueName) {\n        require(nameToLeague[keccak256(abi.encodePacked(_leagueName))].owner == msg.sender, \"Only league owner can start a round\");\n        _;\n    }\n\n    // allows function to run if msg.sender is not already part of this round\n    modifier playerNotInRound(string memory _leagueName) {\n        bytes32 nameHash = keccak256(abi.encodePacked(_leagueName));\n        for (uint16 i = 0; i < nameToLeague[nameHash].round.player.length; i++) {\n            require(nameToLeague[nameHash].round.player[i].userAddress != msg.sender, \"Address already included in the round\");\n        }\n        _;\n    }\n\n    // allows function to run if msg.sender is part of this round\n    modifier playerInRound(string memory _leagueName) {\n        bytes32 nameHash = keccak256(abi.encodePacked(_leagueName));\n        for (uint16 i = 0; i < nameToLeague[nameHash].round.player.length; i++) {\n            if (nameToLeague[nameHash].round.player[i].userAddress == msg.sender) {\n                _;\n            }\n        }\n        require(false, \"Address is not included in the round\");\n    }\n    \n    /*\n    // Function to receive Ether. msg.data must be empty\n    receive() external payable {}\n\n    // Fallback function is called when msg.data is not empty\n    fallback() external payable {}\n    */\n\n    function createLeague(string memory _name) external leagueDoesNotExist(_name) {\n        bytes32 nameHash = keccak256(abi.encodePacked(_name));\n        // if unique name, add to the leagueNames\n        leagueNames[nameHash] = true;\n\n         // hash input for league name\n        nameToLeague[nameHash].name = nameHash;\n        // make caller owner of this league\n        nameToLeague[nameHash].owner = msg.sender;\n        // initialize balances\n        nameToLeague[nameHash].balance = 0;\n        nameToLeague[nameHash].acePoolBalance = 0;\n        \n        // create new league event\n        emit NewLeague(msg.sender, nameHash);\n    }\n\n    function startLeagueRound(\n        string memory _leagueName,\n        uint256 _priceToJoin,\n        uint256 _priceAcePool,\n        uint16 _maxPlayers,\n        uint16 _numberOfHoles,\n        uint8[] memory _payoutPercentage\n    )\n        external\n        leagueExists(_leagueName)\n        startLeagueRoundAccess(_leagueName)\n    {\n        bytes32 nameHash = keccak256(abi.encodePacked(_leagueName));\n        // cannot start a round if a round is already in progress\n        require(!nameToLeague[nameHash].roundOpen, \"Round already open\");\n        // price to join must be positive\n        require(_priceToJoin > 0, \"Price to join must be positive, non-zero\");\n        // ace pool price must be non-negative\n        require(_priceAcePool >= 0, \"Ace pool price must be non-negative, set to zero if no ace pool\");\n        // amount of max players must be more than one\n        require(_maxPlayers > 1, \"Max number of players must be more than one\");\n        // number of holes needs to be positive non-zero\n        require(_numberOfHoles > 0, \"Need to have a positive non-zero number of holes for the round\");\n        // validate payout scheme\n        uint8 _totalPayoutPercentage = 0;\n        for (uint i = 0; (i < _payoutPercentage.length) && (_payoutPercentage[i] != 0); i++) {\n            _totalPayoutPercentage += _payoutPercentage[i];\n            require(_totalPayoutPercentage <= 100, \"Payout scheme invalid, all places must be less than or equal to 100\");\n        }\n\n        // if all requirements met, start the round\n        nameToLeague[nameHash].roundOpen = true;\n        // clear players array\n        delete nameToLeague[nameHash].round.player;\n        delete nameToLeague[nameHash].round.acePoolWinners;\n        // set inputs to league round information\n        nameToLeague[nameHash].round.priceToJoin = _priceToJoin;\n        nameToLeague[nameHash].round.priceAcePool = _priceAcePool;\n        nameToLeague[nameHash].round.maxPlayers = _maxPlayers;\n        nameToLeague[nameHash].round.finishedCount = 0;\n        nameToLeague[nameHash].round.numberOfHoles = _numberOfHoles;\n        delete nameToLeague[nameHash].round.payoutPercentage;\n        nameToLeague[nameHash].round.payoutPercentage = _payoutPercentage;\n        \n        // round data event\n        //emit NewRound(nameHash, nameToLeague[nameHash].round);\n    }\n\n    function joinLeagueRound(\n        string memory _leagueName,\n        bool _joinAcePool\n    )\n        external\n        payable\n        leagueExists(_leagueName)\n        playerNotInRound(_leagueName)\n        nonReentrant()\n    {\n        bytes32 nameHash = keccak256(abi.encodePacked(_leagueName));\n        // a round has to already have been started\n        require(nameToLeague[nameHash].roundOpen, \"A round has not been started\");\n        // make sure there is an available space in the round\n        require(nameToLeague[nameHash].round.player.length < nameToLeague[nameHash].round.maxPlayers, \"No more spots available\");\n        // create temporary player that will later be pushed to the round player array\n        Player memory _player;\n        _player.userAddress = payable(msg.sender);\n        _player.scoresSubmitted = false;\n        delete _player.holeScores;\n        // ensure the player has sent enough funds to join the round\n        if (_joinAcePool) {\n            require(msg.value == SafeMath.add(nameToLeague[nameHash].round.priceToJoin, nameToLeague[nameHash].round.priceAcePool), \"Incorrect funds to join round + ace pool\");\n            // adjust balances\n            nameToLeague[nameHash].round.balance += nameToLeague[nameHash].round.priceToJoin;\n            nameToLeague[nameHash].acePoolBalance += nameToLeague[nameHash].round.priceAcePool;\n            // modify player data\n            _player.acePoolEntry = true;\n            // push player to round\n            nameToLeague[nameHash].round.player.push(_player);\n            // send funds to contract\n            (bool sent,) = payable(address(this)).call{value: msg.value}(\"\");\n            require(sent, \"Failed to send Ether\");\n        } else {\n            require(msg.value == nameToLeague[nameHash].round.priceToJoin, \"Incorrect funds to join round\");\n            // adjust balance\n            nameToLeague[nameHash].round.balance += nameToLeague[nameHash].round.priceToJoin;\n            // modify player data\n            _player.acePoolEntry = false;\n            // push player to round\n            nameToLeague[nameHash].round.player.push(_player);\n            // send funds to contract\n            (bool sent,) = payable(address(this)).call{value: msg.value}(\"\");\n            require(sent, \"Failed to send Ether\");\n        }\n\n        //emit PlayerJoinedRound(msg.sender, _player.nickname, nameHash);\n    }\n\n    function submitScores(\n        string memory _leagueName,\n        uint16[] memory _holeScore\n    )\n        external\n        payable\n        leagueExists(_leagueName)\n        nonReentrant\n    {\n        bytes32 nameHash = keccak256(abi.encodePacked(_leagueName));\n        // league round must be open\n        require(nameToLeague[nameHash].roundOpen, \"There is no open round for this league\");\n        // get the index of the player in the round.player[] array; player must be in the array to continue\n        uint16 _index = addressInRound(_leagueName, msg.sender);\n        require(_index != MAX_UINT16, \"Address is not included in this leagues round\");\n        // require that this player has not already submitted their scores\n        require(!nameToLeague[nameHash].round.player[_index].scoresSubmitted, \"Scores already submitted\");\n        nameToLeague[nameHash].round.player[_index].scoresSubmitted = true;\n        // The input _holeScore array size must be the same as the number of holes for the round\n        require(_holeScore.length == nameToLeague[nameHash].round.numberOfHoles, \"Invalid array size for hole scores\");\n        \n        // copy hole score inputs to round.player data\n        nameToLeague[nameHash].round.player[_index].holeScores = _holeScore;\n\n        // move inputted hole scores to the league round data\n        uint256 _scoreSum = 0;\n        for (uint256 i = 0; i < nameToLeague[nameHash].round.numberOfHoles; i++) {\n            // _scoreSum = SafeMath.add(uint256(nameToLeague[nameHash].round.player[_index].holeScores[i]), _scoreSum);\n            _scoreSum = SafeMath.add(uint256(_holeScore[i]), _scoreSum);\n            // if ace was had on this hole and player is in ace pool, set win ace pool \n            if (nameToLeague[nameHash].round.player[_index].acePoolEntry && _holeScore[i] == 1) {\n                nameToLeague[nameHash].round.player[_index].acePoolWin;\n                nameToLeague[nameHash].round.acePoolWinners.push(msg.sender);\n            }\n        }\n        nameToLeague[nameHash].round.player[_index].totalScore = _scoreSum;\n\n        // increment finished player count\n        nameToLeague[nameHash].round.finishedCount++;\n    }\n\n    function finishRound(string memory _leagueName)\n        external\n        leagueExists(_leagueName)\n    {\n        bytes32 nameHash = keccak256(abi.encodePacked(_leagueName));\n        // only the league owner can call payout\n        require(nameToLeague[nameHash].owner == msg.sender, \"Only the league owner can call payout\");\n        // league round must be open\n        require(nameToLeague[nameHash].roundOpen, \"There is no open round for this league\");\n        // when can payouts be done\n        require(nameToLeague[nameHash].round.finishedCount == nameToLeague[nameHash].round.player.length, \"Payout conditions not met\");\n        \n        // calculate ace pool payout \n        uint256 _acePoolPayout = 0;\n        if (nameToLeague[nameHash].round.acePoolWinners.length != 0) {\n            _acePoolPayout = SafeMath.div(nameToLeague[nameHash].acePoolBalance, nameToLeague[nameHash].round.acePoolWinners.length);\n        }\n\n        // sort player array within round data, players sorted by score from low to high\n        playerQuickSort(nameHash, 0, int(nameToLeague[nameHash].round.player.length - 1));\n\n        uint256 _totalRoundBalance = nameToLeague[nameHash].round.balance;\n        for (uint _payoutIndex = 0; (_payoutIndex < nameToLeague[nameHash].round.payoutPercentage.length) && (nameToLeague[nameHash].round.payoutPercentage[_payoutIndex] != 0); ) {\n            // get number of tied players for this spot in the payout scheme\n            uint16 _playersInPlaceCount = 1;\n            while (nameToLeague[nameHash].round.player[_payoutIndex].totalScore == nameToLeague[nameHash].round.player[_payoutIndex + _playersInPlaceCount].totalScore) {\n                _playersInPlaceCount++;\n            }\n\n            // get total percentage of payouts due to this group of players\n            // if players are tied, the percent payouts get added together, divided by number of players tied, and distributed to all tied players\n            // ex: if 2 players are tied for 1st, the payout percents of 1st and 2nd get added together and divided by 2, and both players get this percent\n            uint16 _totalPlacePayoutPercentage = 0;\n            for (uint16 j = 0; (j < _playersInPlaceCount) && (_payoutIndex + j < nameToLeague[nameHash].round.payoutPercentage.length); j++) {\n                _totalPlacePayoutPercentage += nameToLeague[nameHash].round.payoutPercentage[_payoutIndex + j];\n            }\n            // get the percentage of the round balance that each player taking this place will receive\n            // integer division means there may be left over funds after payouts, these are rolled into the league balance\n            uint256 _percentPayoutForPlace = SafeMath.div(uint(_totalPlacePayoutPercentage), uint(_playersInPlaceCount));\n            // get total amount paid for this place\n            uint256 _amountPaid = SafeMath.mul(_percentPayoutForPlace, SafeMath.div(uint(_totalRoundBalance), uint(100)));\n\n            // payout all players in this place\n            for (uint16 j = 0; j < _playersInPlaceCount; j++) {\n                // subtract from round balance\n                //require(nameToLeague[nameHash].round.balance >= _amountPaid, \"Round balance not large enough to pay out\");\n                //nameToLeague[nameHash].round.balance -= _amountPaid;\n                if(nameToLeague[nameHash].round.balance < _amountPaid) {\n                    _amountPaid = nameToLeague[nameHash].round.balance;\n                    nameToLeague[nameHash].round.balance = 0;\n                } else {\n                    nameToLeague[nameHash].round.balance -= _amountPaid;\n                }\n                if (nameToLeague[nameHash].round.player[_payoutIndex + j].acePoolWin) {\n                    require(nameToLeague[nameHash].acePoolBalance >= _acePoolPayout, \"Ace pool balance not large enough to pay out\");\n                    nameToLeague[nameHash].acePoolBalance -= _acePoolPayout;\n                    // send to address\n                    winnings[nameToLeague[nameHash].round.player[_payoutIndex + j].userAddress] += _amountPaid + _acePoolPayout;\n                } else {\n                    // send to address\n                    winnings[nameToLeague[nameHash].round.player[_payoutIndex + j].userAddress] += _amountPaid;\n                }\n            }\n\n            // adjust player payout index to account for any ties before looping to next in line for payout check\n            _payoutIndex += _playersInPlaceCount;\n        }\n\n        // move any leftover funds to the league's balance\n        nameToLeague[nameHash].balance += nameToLeague[nameHash].round.balance;\n        nameToLeague[nameHash].round.balance = 0;\n        // close round\n        nameToLeague[nameHash].roundOpen = false;\n    }\n\n    /*\n    // submits max value as this msg.sender's total score so it will automatically be last place\n    function forfeitRound(string memory _leagueName) external leagueExists(_leagueName) {\n        bytes32 nameHash = keccak256(abi.encodePacked(_leagueName));\n        // league must have an open round\n        require(nameToLeague[nameHash].roundOpen, \"There is no open round for this league\");\n        // get the index of the player in the round.player[] array; player must be in the array to continue\n        uint16 _index = addressInRound(_leagueName, msg.sender);\n        require(_index != MAX_UINT16, \"Address is not included in this leagues round\");\n        // require that this player has not already submitted their scores\n        require(!nameToLeague[nameHash].round.player[_index].scoresSubmitted, \"Scores already submitted\");\n        nameToLeague[nameHash].round.player[_index].scoresSubmitted = true;\n\n        nameToLeague[nameHash].round.player[_index].totalScore = MAX_UINT;\n\n        // increment finished player count\n        nameToLeague[nameHash].round.finishedCount++;\n    }\n    */\n\n    /*\n    function claimWinnings() external {\n        require(winnings[msg.sender] != 0, 'Nothnig to claim');\n        (bool sent,) = msg.sender.call{value: winnings[msg.sender]}(\"\");\n        require(sent, \"Failed to send Ether\");\n    }\n    */\n\n    // returns the index in the round's player[] array; if address is not in the league it will return max value of uint16(65535) \n    function addressInRound(string memory _leagueName, address _addressCheck)\n        public\n        view\n        leagueExists(_leagueName)\n        returns(uint16)\n    {\n        bytes32 nameHash = keccak256(abi.encodePacked(_leagueName));\n        // loop through all players in the round and check if msg.sender is in the round\n        for (uint16 i = 0; i < nameToLeague[nameHash].round.player.length; i++) {\n            if(nameToLeague[nameHash].round.player[i].userAddress == _addressCheck) {\n                return(i);\n            }\n        }\n        return(MAX_UINT16);\n    }\n\n    function playerQuickSort(bytes32 _nameHash, int _left, int _right) internal {\n        int _i = _left;\n        int _j = _right;\n        if(_i==_j) return;\n        uint pivot = nameToLeague[_nameHash].round.player[uint(_left + (_right - _left) / 2)].totalScore;\n        while (_i <= _j) {\n            while (nameToLeague[_nameHash].round.player[uint(_i)].totalScore < pivot) _i++;\n            while (pivot < nameToLeague[_nameHash].round.player[uint(_j)].totalScore) _j--;\n            if (_i <= _j) {\n                Player memory _tempPlayer = nameToLeague[_nameHash].round.player[uint(_i)];     // must copy to a temporary location to swap positions in array\n                nameToLeague[_nameHash].round.player[uint(_i)] = nameToLeague[_nameHash].round.player[uint(_j)];\n                nameToLeague[_nameHash].round.player[uint(_j)] = _tempPlayer;\n                _i++;\n                _j--;\n            }\n        }\n        if (_left < _j)\n            playerQuickSort(_nameHash, _left, _j);\n        if (_i < _right)\n            playerQuickSort(_nameHash, _i, _right);\n    }\n\n    function getLeagueInfo(string memory _leagueName) external view leagueExists(_leagueName) returns(League memory) {\n        bytes32 nameHash = keccak256(abi.encodePacked(_leagueName));\n        return nameToLeague[nameHash];\n    }\n\n    function getLeagueRoundInfo(string memory _leagueName) external view leagueExists(_leagueName) returns(Round memory) {\n        bytes32 nameHash = keccak256(abi.encodePacked(_leagueName));\n        require(nameToLeague[nameHash].roundOpen, 'No round open');\n        return nameToLeague[nameHash].round;\n    }\n\n    function getLeagueRoundPlayerInfo(string memory _leagueName, address _address) external view leagueExists(_leagueName) returns(Player memory) {\n        uint16 index = addressInRound(_leagueName, _address);\n        require(index != MAX_UINT16, 'Address not included in round');\n        bytes32 nameHash = keccak256(abi.encodePacked(_leagueName));\n        return nameToLeague[nameHash].round.player[index];\n    }\n}",
  "sourcePath": "/home/tyler-quinn/projects/SmartLeagues/contracts/SmartLeagues.sol",
  "compiler": {
    "name": "solc",
    "version": "0.8.0+commit.c7dfd78e.Emscripten.clang"
  },
  "schemaVersion": "3.4.3",
  "updatedAt": "2021-10-19T01:39:20.102Z",
  "devdoc": {
    "kind": "dev",
    "methods": {},
    "version": 1
  },
  "userdoc": {
    "kind": "user",
    "methods": {},
    "version": 1
  }
}