{
  "contractName": "SmartLeagues",
  "abi": [
    {
      "inputs": [],
      "stateMutability": "nonpayable",
      "type": "constructor"
    },
    {
      "anonymous": false,
      "inputs": [
        {
          "indexed": true,
          "internalType": "address",
          "name": "_owner",
          "type": "address"
        },
        {
          "indexed": true,
          "internalType": "bytes32",
          "name": "_leagueHash",
          "type": "bytes32"
        }
      ],
      "name": "NewLeague",
      "type": "event"
    },
    {
      "stateMutability": "payable",
      "type": "fallback"
    },
    {
      "inputs": [
        {
          "internalType": "address",
          "name": "",
          "type": "address"
        }
      ],
      "name": "winnings",
      "outputs": [
        {
          "internalType": "uint256",
          "name": "",
          "type": "uint256"
        }
      ],
      "stateMutability": "view",
      "type": "function"
    },
    {
      "stateMutability": "payable",
      "type": "receive"
    },
    {
      "inputs": [
        {
          "internalType": "string",
          "name": "_name",
          "type": "string"
        }
      ],
      "name": "createLeague",
      "outputs": [],
      "stateMutability": "nonpayable",
      "type": "function"
    },
    {
      "inputs": [
        {
          "internalType": "string",
          "name": "_leagueName",
          "type": "string"
        },
        {
          "internalType": "uint256",
          "name": "_priceToJoin",
          "type": "uint256"
        },
        {
          "internalType": "uint256",
          "name": "_priceAcePool",
          "type": "uint256"
        },
        {
          "internalType": "uint16",
          "name": "_maxPlayers",
          "type": "uint16"
        },
        {
          "internalType": "uint16",
          "name": "_numberOfHoles",
          "type": "uint16"
        },
        {
          "internalType": "uint8[]",
          "name": "_payoutPercentage",
          "type": "uint8[]"
        }
      ],
      "name": "startLeagueRound",
      "outputs": [],
      "stateMutability": "nonpayable",
      "type": "function"
    },
    {
      "inputs": [
        {
          "internalType": "string",
          "name": "_leagueName",
          "type": "string"
        },
        {
          "internalType": "bool",
          "name": "_joinAcePool",
          "type": "bool"
        }
      ],
      "name": "joinLeagueRound",
      "outputs": [],
      "stateMutability": "payable",
      "type": "function"
    },
    {
      "inputs": [
        {
          "internalType": "string",
          "name": "_leagueName",
          "type": "string"
        },
        {
          "internalType": "uint16[]",
          "name": "_holeScore",
          "type": "uint16[]"
        }
      ],
      "name": "submitScores",
      "outputs": [],
      "stateMutability": "payable",
      "type": "function"
    },
    {
      "inputs": [
        {
          "internalType": "string",
          "name": "_leagueName",
          "type": "string"
        }
      ],
      "name": "finishRound",
      "outputs": [],
      "stateMutability": "nonpayable",
      "type": "function"
    },
    {
      "inputs": [
        {
          "internalType": "string",
          "name": "_leagueName",
          "type": "string"
        }
      ],
      "name": "forfeitRound",
      "outputs": [],
      "stateMutability": "nonpayable",
      "type": "function"
    },
    {
      "inputs": [],
      "name": "claimWinnings",
      "outputs": [],
      "stateMutability": "nonpayable",
      "type": "function"
    },
    {
      "inputs": [
        {
          "internalType": "string",
          "name": "_leagueName",
          "type": "string"
        },
        {
          "internalType": "address",
          "name": "_addressCheck",
          "type": "address"
        }
      ],
      "name": "addressInRound",
      "outputs": [
        {
          "internalType": "uint16",
          "name": "",
          "type": "uint16"
        }
      ],
      "stateMutability": "view",
      "type": "function"
    },
    {
      "inputs": [
        {
          "internalType": "string",
          "name": "_leagueName",
          "type": "string"
        }
      ],
      "name": "getLeagueInfo",
      "outputs": [
        {
          "components": [
            {
              "internalType": "bytes32",
              "name": "name",
              "type": "bytes32"
            },
            {
              "internalType": "address",
              "name": "owner",
              "type": "address"
            },
            {
              "internalType": "uint256",
              "name": "balance",
              "type": "uint256"
            },
            {
              "internalType": "uint256",
              "name": "acePoolBalance",
              "type": "uint256"
            },
            {
              "components": [
                {
                  "components": [
                    {
                      "internalType": "address payable",
                      "name": "userAddress",
                      "type": "address"
                    },
                    {
                      "internalType": "uint16[]",
                      "name": "holeScores",
                      "type": "uint16[]"
                    },
                    {
                      "internalType": "uint256",
                      "name": "totalScore",
                      "type": "uint256"
                    },
                    {
                      "internalType": "bool",
                      "name": "scoresSubmitted",
                      "type": "bool"
                    },
                    {
                      "internalType": "bool",
                      "name": "acePoolEntry",
                      "type": "bool"
                    },
                    {
                      "internalType": "bool",
                      "name": "acePoolWin",
                      "type": "bool"
                    }
                  ],
                  "internalType": "struct SmartLeagues.Player[]",
                  "name": "player",
                  "type": "tuple[]"
                },
                {
                  "internalType": "uint256",
                  "name": "balance",
                  "type": "uint256"
                },
                {
                  "internalType": "uint256",
                  "name": "priceToJoin",
                  "type": "uint256"
                },
                {
                  "internalType": "uint256",
                  "name": "priceAcePool",
                  "type": "uint256"
                },
                {
                  "internalType": "address[]",
                  "name": "acePoolWinners",
                  "type": "address[]"
                },
                {
                  "internalType": "uint16",
                  "name": "maxPlayers",
                  "type": "uint16"
                },
                {
                  "internalType": "uint16",
                  "name": "finishedCount",
                  "type": "uint16"
                },
                {
                  "internalType": "uint16",
                  "name": "numberOfHoles",
                  "type": "uint16"
                },
                {
                  "internalType": "uint8[]",
                  "name": "payoutPercentage",
                  "type": "uint8[]"
                }
              ],
              "internalType": "struct SmartLeagues.Round",
              "name": "round",
              "type": "tuple"
            },
            {
              "internalType": "bool",
              "name": "roundOpen",
              "type": "bool"
            }
          ],
          "internalType": "struct SmartLeagues.League",
          "name": "",
          "type": "tuple"
        }
      ],
      "stateMutability": "view",
      "type": "function"
    },
    {
      "inputs": [
        {
          "internalType": "string",
          "name": "_leagueName",
          "type": "string"
        }
      ],
      "name": "getLeagueRoundInfo",
      "outputs": [
        {
          "components": [
            {
              "components": [
                {
                  "internalType": "address payable",
                  "name": "userAddress",
                  "type": "address"
                },
                {
                  "internalType": "uint16[]",
                  "name": "holeScores",
                  "type": "uint16[]"
                },
                {
                  "internalType": "uint256",
                  "name": "totalScore",
                  "type": "uint256"
                },
                {
                  "internalType": "bool",
                  "name": "scoresSubmitted",
                  "type": "bool"
                },
                {
                  "internalType": "bool",
                  "name": "acePoolEntry",
                  "type": "bool"
                },
                {
                  "internalType": "bool",
                  "name": "acePoolWin",
                  "type": "bool"
                }
              ],
              "internalType": "struct SmartLeagues.Player[]",
              "name": "player",
              "type": "tuple[]"
            },
            {
              "internalType": "uint256",
              "name": "balance",
              "type": "uint256"
            },
            {
              "internalType": "uint256",
              "name": "priceToJoin",
              "type": "uint256"
            },
            {
              "internalType": "uint256",
              "name": "priceAcePool",
              "type": "uint256"
            },
            {
              "internalType": "address[]",
              "name": "acePoolWinners",
              "type": "address[]"
            },
            {
              "internalType": "uint16",
              "name": "maxPlayers",
              "type": "uint16"
            },
            {
              "internalType": "uint16",
              "name": "finishedCount",
              "type": "uint16"
            },
            {
              "internalType": "uint16",
              "name": "numberOfHoles",
              "type": "uint16"
            },
            {
              "internalType": "uint8[]",
              "name": "payoutPercentage",
              "type": "uint8[]"
            }
          ],
          "internalType": "struct SmartLeagues.Round",
          "name": "",
          "type": "tuple"
        }
      ],
      "stateMutability": "view",
      "type": "function"
    },
    {
      "inputs": [
        {
          "internalType": "string",
          "name": "_leagueName",
          "type": "string"
        },
        {
          "internalType": "address",
          "name": "_address",
          "type": "address"
        }
      ],
      "name": "getLeagueRoundPlayerInfo",
      "outputs": [
        {
          "components": [
            {
              "internalType": "address payable",
              "name": "userAddress",
              "type": "address"
            },
            {
              "internalType": "uint16[]",
              "name": "holeScores",
              "type": "uint16[]"
            },
            {
              "internalType": "uint256",
              "name": "totalScore",
              "type": "uint256"
            },
            {
              "internalType": "bool",
              "name": "scoresSubmitted",
              "type": "bool"
            },
            {
              "internalType": "bool",
              "name": "acePoolEntry",
              "type": "bool"
            },
            {
              "internalType": "bool",
              "name": "acePoolWin",
              "type": "bool"
            }
          ],
          "internalType": "struct SmartLeagues.Player",
          "name": "",
          "type": "tuple"
        }
      ],
      "stateMutability": "view",
      "type": "function"
    }
  ],
  "bytecode": "0x60806040527fffffffffffffffffffffffffffffffffffffffffffffffffffffffffffffffff60045561ffff600560006101000a81548161ffff021916908361ffff16021790555034801561005357600080fd5b506001600081905550616046806200006c6000396000f3fe6080604052600436106100ab5760003560e01c8063a1170f1511610064578063a1170f15146101d9578063a5e19cff14610202578063b401faf11461023f578063ea3a149914610256578063f204468214610293578063fb69d265146102bc576100b2565b806333e79016146100b457806341666e28146100f157806345680a671461012e5780634cf04049146101575780635327704714610180578063832564e01461019c576100b2565b366100b257005b005b3480156100c057600080fd5b506100db60048036038101906100d691906143b2565b6102d8565b6040516100e891906157be565b60405180910390f35b3480156100fd57600080fd5b50610118600480360381019061011391906143f3565b610777565b6040516101259190615824565b60405180910390f35b34801561013a57600080fd5b50610155600480360381019061015091906143b2565b61094a565b005b34801561016357600080fd5b5061017e60048036038101906101799190614507565b6112f0565b005b61019a60048036038101906101959190614447565b61189c565b005b3480156101a857600080fd5b506101c360048036038101906101be91906143f3565b611fa1565b6040516101d091906157e0565b60405180910390f35b3480156101e557600080fd5b5061020060048036038101906101fb91906143b2565b61226e565b005b34801561020e57600080fd5b50610229600480360381019061022491906143b2565b61243e565b6040516102369190615802565b60405180910390f35b34801561024b57600080fd5b506102546128a0565b005b34801561026257600080fd5b5061027d60048036038101906102789190614389565b612a11565b60405161028a919061583f565b60405180910390f35b34801561029f57600080fd5b506102ba60048036038101906102b591906143b2565b612a29565b005b6102d660048036038101906102d191906144b3565b612d9e565b005b6102e0613d96565b8160026000826040516020016102f69190615452565b60405160208183030381529060405280519060200120815260200190815260200160002060009054906101000a900460ff16610367576040517f08c379a000000000000000000000000000000000000000000000000000000000815260040161035e906154be565b60405180910390fd5b60008360405160200161037a9190615452565b604051602081830303815290604052805190602001209050600160008281526020019081526020016000206040518060c0016040529081600082015481526020016001820160009054906101000a900473ffffffffffffffffffffffffffffffffffffffff1673ffffffffffffffffffffffffffffffffffffffff1673ffffffffffffffffffffffffffffffffffffffff1681526020016002820154815260200160038201548152602001600482016040518061012001604052908160008201805480602002602001604051908101604052809291908181526020016000905b828210156105bd57838290600052602060002090600402016040518060c00160405290816000820160009054906101000a900473ffffffffffffffffffffffffffffffffffffffff1673ffffffffffffffffffffffffffffffffffffffff1673ffffffffffffffffffffffffffffffffffffffff1681526020016001820180548060200260200160405190810160405280929190818152602001828054801561054a57602002820191906000526020600020906000905b82829054906101000a900461ffff1661ffff16815260200190600201906020826001010492830192600103820291508084116105115790505b50505050508152602001600282015481526020016003820160009054906101000a900460ff161515151581526020016003820160019054906101000a900460ff161515151581526020016003820160029054906101000a900460ff1615151515815250508152602001906001019061045a565b5050505081526020016001820154815260200160028201548152602001600382015481526020016004820180548060200260200160405190810160405280929190818152602001828054801561066857602002820191906000526020600020905b8160009054906101000a900473ffffffffffffffffffffffffffffffffffffffff1673ffffffffffffffffffffffffffffffffffffffff168152602001906001019080831161061e575b505050505081526020016005820160009054906101000a900461ffff1661ffff1661ffff1681526020016005820160029054906101000a900461ffff1661ffff1661ffff1681526020016005820160049054906101000a900461ffff1661ffff1661ffff1681526020016006820180548060200260200160405190810160405280929190818152602001828054801561074657602002820191906000526020600020906000905b82829054906101000a900460ff1660ff168152602001906001019060208260000104928301926001038202915080841161070f5790505b5050505050815250508152602001600b820160009054906101000a900460ff16151515158152505092505050919050565b600082600260008260405160200161078f9190615452565b60405160208183030381529060405280519060200120815260200190815260200160002060009054906101000a900460ff16610800576040517f08c379a00000000000000000000000000000000000000000000000000000000081526004016107f7906154be565b60405180910390fd5b6000846040516020016108139190615452565b60405160208183030381529060405280519060200120905060005b60016000838152602001908152602001600020600401600001805490508161ffff16101561092d578473ffffffffffffffffffffffffffffffffffffffff16600160008481526020019081526020016000206004016000018261ffff16815481106108c2577f4e487b7100000000000000000000000000000000000000000000000000000000600052603260045260246000fd5b906000526020600020906004020160000160009054906101000a900473ffffffffffffffffffffffffffffffffffffffff1673ffffffffffffffffffffffffffffffffffffffff16141561091a578093505050610943565b808061092590615e9c565b91505061082e565b50600560009054906101000a900461ffff169250505b5092915050565b8060026000826040516020016109609190615452565b60405160208183030381529060405280519060200120815260200190815260200160002060009054906101000a900460ff166109d1576040517f08c379a00000000000000000000000000000000000000000000000000000000081526004016109c8906154be565b60405180910390fd5b6000826040516020016109e49190615452565b6040516020818303038152906040528051906020012090503373ffffffffffffffffffffffffffffffffffffffff166001600083815260200190815260200160002060010160009054906101000a900473ffffffffffffffffffffffffffffffffffffffff1673ffffffffffffffffffffffffffffffffffffffff1614610aa0576040517f08c379a0000000000000000000000000000000000000000000000000000000008152600401610a979061549e565b60405180910390fd5b60016000828152602001908152602001600020600b0160009054906101000a900460ff16610b03576040517f08c379a0000000000000000000000000000000000000000000000000000000008152600401610afa9061575e565b60405180910390fd5b60016000828152602001908152602001600020600401600001805490506001600083815260200190815260200160002060040160050160029054906101000a900461ffff1661ffff1614610b8c576040517f08c379a0000000000000000000000000000000000000000000000000000000008152600401610b839061571e565b60405180910390fd5b600080600160008481526020019081526020016000206004016004018054905014610bf057610bed600160008481526020019081526020016000206003015460016000858152602001908152602001600020600401600401805490506136b3565b90505b610c23826000600180600087815260200190815260200160002060040160000180549050610c1e9190615d0b565b6136c9565b60006001600084815260200190815260200160002060040160010154905060005b600160008581526020019081526020016000206004016006018054905081108015610ce357506000600160008681526020019081526020016000206004016006018281548110610cbd577f4e487b7100000000000000000000000000000000000000000000000000000000600052603260045260246000fd5b90600052602060002090602091828204019190069054906101000a900460ff1660ff1614155b15611254576000600190505b600160008681526020019081526020016000206004016000018161ffff1683610d189190615af5565b81548110610d4f577f4e487b7100000000000000000000000000000000000000000000000000000000600052603260045260246000fd5b906000526020600020906004020160020154600160008781526020019081526020016000206004016000018381548110610db2577f4e487b7100000000000000000000000000000000000000000000000000000000600052603260045260246000fd5b9060005260206000209060040201600201541415610ddd578080610dd590615e9c565b915050610cef565b6000805b8261ffff168161ffff16108015610e22575060016000888152602001908152602001600020600401600601805490508161ffff1685610e209190615af5565b105b15610eca57600160008881526020019081526020016000206004016006018161ffff1685610e509190615af5565b81548110610e87577f4e487b7100000000000000000000000000000000000000000000000000000000600052603260045260246000fd5b90600052602060002090602091828204019190069054906101000a900460ff1660ff1682610eb59190615abd565b91508080610ec290615e9c565b915050610de1565b506000610edf8261ffff168461ffff166136b3565b90506000610ef782610ef28860646136b3565b613d6a565b905060005b8461ffff168161ffff1610156112385781600160008b81526020019081526020016000206004016001016000828254610f359190615d0b565b92505081905550600160008a81526020019081526020016000206004016000018161ffff1687610f659190615af5565b81548110610f9c577f4e487b7100000000000000000000000000000000000000000000000000000000600052603260045260246000fd5b906000526020600020906004020160030160029054906101000a900460ff161561113d5787600160008b8152602001908152602001600020600301541015611019576040517f08c379a0000000000000000000000000000000000000000000000000000000008152600401611010906156de565b60405180910390fd5b87600160008b8152602001908152602001600020600301600082825461103f9190615d0b565b9250508190555087826110529190615af5565b60036000600160008d81526020019081526020016000206004016000018461ffff168a61107f9190615af5565b815481106110b6577f4e487b7100000000000000000000000000000000000000000000000000000000600052603260045260246000fd5b906000526020600020906004020160000160009054906101000a900473ffffffffffffffffffffffffffffffffffffffff1673ffffffffffffffffffffffffffffffffffffffff1673ffffffffffffffffffffffffffffffffffffffff16815260200190815260200160002060008282546111319190615af5565b92505081905550611225565b8160036000600160008d81526020019081526020016000206004016000018461ffff168a61116b9190615af5565b815481106111a2577f4e487b7100000000000000000000000000000000000000000000000000000000600052603260045260246000fd5b906000526020600020906004020160000160009054906101000a900473ffffffffffffffffffffffffffffffffffffffff1673ffffffffffffffffffffffffffffffffffffffff1673ffffffffffffffffffffffffffffffffffffffff168152602001908152602001600020600082825461121d9190615af5565b925050819055505b808061123090615e9c565b915050610efc565b508361ffff16856112499190615af5565b945050505050610c44565b5060016000848152602001908152602001600020600401600101546001600085815260200190815260200160002060020160008282546112949190615af5565b9250508190555060006001600085815260200190815260200160002060040160010181905550600060016000858152602001908152602001600020600b0160006101000a81548160ff0219169083151502179055505050505050565b8560026000826040516020016113069190615452565b60405160208183030381529060405280519060200120815260200190815260200160002060009054906101000a900460ff16611377576040517f08c379a000000000000000000000000000000000000000000000000000000000815260040161136e906154be565b60405180910390fd5b863373ffffffffffffffffffffffffffffffffffffffff1660016000836040516020016113a49190615452565b60405160208183030381529060405280519060200120815260200190815260200160002060010160009054906101000a900473ffffffffffffffffffffffffffffffffffffffff1673ffffffffffffffffffffffffffffffffffffffff1614611442576040517f08c379a0000000000000000000000000000000000000000000000000000000008152600401611439906154de565b60405180910390fd5b6000886040516020016114559190615452565b60405160208183030381529060405280519060200120905060016000828152602001908152602001600020600b0160009054906101000a900460ff16156114d1576040517f08c379a00000000000000000000000000000000000000000000000000000000081526004016114c89061579e565b60405180910390fd5b60008811611514576040517f08c379a000000000000000000000000000000000000000000000000000000000815260040161150b9061565e565b60405180910390fd5b6000871015611558576040517f08c379a000000000000000000000000000000000000000000000000000000000815260040161154f9061553e565b60405180910390fd5b60018661ffff161161159f576040517f08c379a00000000000000000000000000000000000000000000000000000000081526004016115969061557e565b60405180910390fd5b60008561ffff16116115e6576040517f08c379a00000000000000000000000000000000000000000000000000000000081526004016115dd9061567e565b60405180910390fd5b6000805b85518110801561163e57506000868281518110611630577f4e487b7100000000000000000000000000000000000000000000000000000000600052603260045260246000fd5b602002602001015160ff1614155b156116eb5785818151811061167c577f4e487b7100000000000000000000000000000000000000000000000000000000600052603260045260246000fd5b60200260200101518261168f9190615b4b565b915060648260ff1611156116d8576040517f08c379a00000000000000000000000000000000000000000000000000000000081526004016116cf9061563e565b60405180910390fd5b80806116e390615ec7565b9150506115ea565b506001806000848152602001908152602001600020600b0160006101000a81548160ff02191690831515021790555060016000838152602001908152602001600020600401600001600061173f9190613ded565b6001600083815260200190815260200160002060040160040160006117649190613e11565b886001600084815260200190815260200160002060040160020181905550876001600084815260200190815260200160002060040160030181905550866001600084815260200190815260200160002060040160050160006101000a81548161ffff021916908361ffff16021790555060006001600084815260200190815260200160002060040160050160026101000a81548161ffff021916908361ffff160217905550856001600084815260200190815260200160002060040160050160046101000a81548161ffff021916908361ffff1602179055506001600083815260200190815260200160002060040160060160006118629190613e32565b8460016000848152602001908152602001600020600401600601908051906020019061188f929190613e5a565b5050505050505050505050565b8160026000826040516020016118b29190615452565b60405160208183030381529060405280519060200120815260200190815260200160002060009054906101000a900460ff16611923576040517f08c379a000000000000000000000000000000000000000000000000000000000815260040161191a906154be565b60405180910390fd5b60026000541415611969576040517f08c379a00000000000000000000000000000000000000000000000000000000081526004016119609061573e565b60405180910390fd5b60026000819055506000836040516020016119849190615452565b60405160208183030381529060405280519060200120905060016000828152602001908152602001600020600b0160009054906101000a900460ff166119ff576040517f08c379a00000000000000000000000000000000000000000000000000000000081526004016119f69061575e565b60405180910390fd5b6000611a0b8533610777565b9050600560009054906101000a900461ffff1661ffff168161ffff161415611a68576040517f08c379a0000000000000000000000000000000000000000000000000000000008152600401611a5f906155de565b60405180910390fd5b600160008381526020019081526020016000206004016000018161ffff1681548110611abd577f4e487b7100000000000000000000000000000000000000000000000000000000600052603260045260246000fd5b906000526020600020906004020160030160009054906101000a900460ff1615611b1c576040517f08c379a0000000000000000000000000000000000000000000000000000000008152600401611b139061577e565b60405180910390fd5b60018060008481526020019081526020016000206004016000018261ffff1681548110611b72577f4e487b7100000000000000000000000000000000000000000000000000000000600052603260045260246000fd5b906000526020600020906004020160030160006101000a81548160ff0219169083151502179055506001600083815260200190815260200160002060040160050160049054906101000a900461ffff1661ffff16845114611c08576040517f08c379a0000000000000000000000000000000000000000000000000000000008152600401611bff906155be565b60405180910390fd5b83600160008481526020019081526020016000206004016000018261ffff1681548110611c5e577f4e487b7100000000000000000000000000000000000000000000000000000000600052603260045260246000fd5b90600052602060002090600402016001019080519060200190611c82929190613f01565b506000805b6001600085815260200190815260200160002060040160050160049054906101000a900461ffff1661ffff16811015611ed357611d08868281518110611cf6577f4e487b7100000000000000000000000000000000000000000000000000000000600052603260045260246000fd5b602002602001015161ffff1683613d80565b9150600160008581526020019081526020016000206004016000018361ffff1681548110611d5f577f4e487b7100000000000000000000000000000000000000000000000000000000600052603260045260246000fd5b906000526020600020906004020160030160019054906101000a900460ff168015611dce57506001868281518110611dc0577f4e487b7100000000000000000000000000000000000000000000000000000000600052603260045260246000fd5b602002602001015161ffff16145b15611ec057600160008581526020019081526020016000206004016000018361ffff1681548110611e28577f4e487b7100000000000000000000000000000000000000000000000000000000600052603260045260246000fd5b906000526020600020906004020160030160029054906101000a90505060016000858152602001908152602001600020600401600401339080600181540180825580915050600190039060005260206000200160009091909190916101000a81548173ffffffffffffffffffffffffffffffffffffffff021916908373ffffffffffffffffffffffffffffffffffffffff1602179055505b8080611ecb90615ec7565b915050611c87565b5080600160008581526020019081526020016000206004016000018361ffff1681548110611f2a577f4e487b7100000000000000000000000000000000000000000000000000000000600052603260045260246000fd5b90600052602060002090600402016002018190555060016000848152602001908152602001600020600401600501600281819054906101000a900461ffff1680929190611f7690615e9c565b91906101000a81548161ffff021916908361ffff160217905550505050506001600081905550505050565b611fa9613fab565b826002600082604051602001611fbf9190615452565b60405160208183030381529060405280519060200120815260200190815260200160002060009054906101000a900460ff16612030576040517f08c379a0000000000000000000000000000000000000000000000000000000008152600401612027906154be565b60405180910390fd5b600061203c8585610777565b9050600560009054906101000a900461ffff1661ffff168161ffff161415612099576040517f08c379a00000000000000000000000000000000000000000000000000000000081526004016120909061559e565b60405180910390fd5b6000856040516020016120ac9190615452565b604051602081830303815290604052805190602001209050600160008281526020019081526020016000206004016000018261ffff1681548110612119577f4e487b7100000000000000000000000000000000000000000000000000000000600052603260045260246000fd5b90600052602060002090600402016040518060c00160405290816000820160009054906101000a900473ffffffffffffffffffffffffffffffffffffffff1673ffffffffffffffffffffffffffffffffffffffff1673ffffffffffffffffffffffffffffffffffffffff168152602001600182018054806020026020016040519081016040528092919081815260200182805480156121ff57602002820191906000526020600020906000905b82829054906101000a900461ffff1661ffff16815260200190600201906020826001010492830192600103820291508084116121c65790505b50505050508152602001600282015481526020016003820160009054906101000a900460ff161515151581526020016003820160019054906101000a900460ff161515151581526020016003820160029054906101000a900460ff161515151581525050935050505092915050565b8060026000826040516020016122849190615452565b60405160208183030381529060405280519060200120815260200190815260200160002060009054906101000a900460ff16156122f6576040517f08c379a00000000000000000000000000000000000000000000000000000000081526004016122ed906154fe565b60405180910390fd5b6000826040516020016123099190615452565b60405160208183030381529060405280519060200120905060016002600083815260200190815260200160002060006101000a81548160ff021916908315150217905550806001600083815260200190815260200160002060000181905550336001600083815260200190815260200160002060010160006101000a81548173ffffffffffffffffffffffffffffffffffffffff021916908373ffffffffffffffffffffffffffffffffffffffff1602179055506000600160008381526020019081526020016000206002018190555060006001600083815260200190815260200160002060030181905550803373ffffffffffffffffffffffffffffffffffffffff167f31c01fc8df5211cb4bb5037c775fee375f3277dd33bfb0a08b3bb0825f2ffaac60405160405180910390a3505050565b612446613ffd565b81600260008260405160200161245c9190615452565b60405160208183030381529060405280519060200120815260200190815260200160002060009054906101000a900460ff166124cd576040517f08c379a00000000000000000000000000000000000000000000000000000000081526004016124c4906154be565b60405180910390fd5b6000836040516020016124e09190615452565b60405160208183030381529060405280519060200120905060016000828152602001908152602001600020600b0160009054906101000a900460ff1661255b576040517f08c379a0000000000000000000000000000000000000000000000000000000008152600401612552906155fe565b60405180910390fd5b600160008281526020019081526020016000206004016040518061012001604052908160008201805480602002602001604051908101604052809291908181526020016000905b8282101561270557838290600052602060002090600402016040518060c00160405290816000820160009054906101000a900473ffffffffffffffffffffffffffffffffffffffff1673ffffffffffffffffffffffffffffffffffffffff1673ffffffffffffffffffffffffffffffffffffffff1681526020016001820180548060200260200160405190810160405280929190818152602001828054801561269257602002820191906000526020600020906000905b82829054906101000a900461ffff1661ffff16815260200190600201906020826001010492830192600103820291508084116126595790505b50505050508152602001600282015481526020016003820160009054906101000a900460ff161515151581526020016003820160019054906101000a900460ff161515151581526020016003820160029054906101000a900460ff161515151581525050815260200190600101906125a2565b505050508152602001600182015481526020016002820154815260200160038201548152602001600482018054806020026020016040519081016040528092919081815260200182805480156127b057602002820191906000526020600020905b8160009054906101000a900473ffffffffffffffffffffffffffffffffffffffff1673ffffffffffffffffffffffffffffffffffffffff1681526020019060010190808311612766575b505050505081526020016005820160009054906101000a900461ffff1661ffff1661ffff1681526020016005820160029054906101000a900461ffff1661ffff1661ffff1681526020016005820160049054906101000a900461ffff1661ffff1661ffff1681526020016006820180548060200260200160405190810160405280929190818152602001828054801561288e57602002820191906000526020600020906000905b82829054906101000a900460ff1660ff16815260200190600101906020826000010492830192600103820291508084116128575790505b50505050508152505092505050919050565b6000600360003373ffffffffffffffffffffffffffffffffffffffff1673ffffffffffffffffffffffffffffffffffffffff168152602001908152602001600020541415612923576040517f08c379a000000000000000000000000000000000000000000000000000000000815260040161291a906156be565b60405180910390fd5b60003373ffffffffffffffffffffffffffffffffffffffff16600360003373ffffffffffffffffffffffffffffffffffffffff1673ffffffffffffffffffffffffffffffffffffffff1681526020019081526020016000205460405161298890615469565b60006040518083038185875af1925050503d80600081146129c5576040519150601f19603f3d011682016040523d82523d6000602084013e6129ca565b606091505b5050905080612a0e576040517f08c379a0000000000000000000000000000000000000000000000000000000008152600401612a059061551e565b60405180910390fd5b50565b60036020528060005260406000206000915090505481565b806002600082604051602001612a3f9190615452565b60405160208183030381529060405280519060200120815260200190815260200160002060009054906101000a900460ff16612ab0576040517f08c379a0000000000000000000000000000000000000000000000000000000008152600401612aa7906154be565b60405180910390fd5b600082604051602001612ac39190615452565b60405160208183030381529060405280519060200120905060016000828152602001908152602001600020600b0160009054906101000a900460ff16612b3e576040517f08c379a0000000000000000000000000000000000000000000000000000000008152600401612b359061575e565b60405180910390fd5b6000612b4a8433610777565b9050600560009054906101000a900461ffff1661ffff168161ffff161415612ba7576040517f08c379a0000000000000000000000000000000000000000000000000000000008152600401612b9e906155de565b60405180910390fd5b600160008381526020019081526020016000206004016000018161ffff1681548110612bfc577f4e487b7100000000000000000000000000000000000000000000000000000000600052603260045260246000fd5b906000526020600020906004020160030160009054906101000a900460ff1615612c5b576040517f08c379a0000000000000000000000000000000000000000000000000000000008152600401612c529061577e565b60405180910390fd5b60018060008481526020019081526020016000206004016000018261ffff1681548110612cb1577f4e487b7100000000000000000000000000000000000000000000000000000000600052603260045260246000fd5b906000526020600020906004020160030160006101000a81548160ff021916908315150217905550600454600160008481526020019081526020016000206004016000018261ffff1681548110612d31577f4e487b7100000000000000000000000000000000000000000000000000000000600052603260045260246000fd5b90600052602060002090600402016002018190555060016000838152602001908152602001600020600401600501600281819054906101000a900461ffff1680929190612d7d90615e9c565b91906101000a81548161ffff021916908361ffff1602179055505050505050565b816002600082604051602001612db49190615452565b60405160208183030381529060405280519060200120815260200190815260200160002060009054906101000a900460ff16612e25576040517f08c379a0000000000000000000000000000000000000000000000000000000008152600401612e1c906154be565b60405180910390fd5b82600081604051602001612e399190615452565b60405160208183030381529060405280519060200120905060005b60016000838152602001908152602001600020600401600001805490508161ffff161015612f84573373ffffffffffffffffffffffffffffffffffffffff16600160008481526020019081526020016000206004016000018261ffff1681548110612ee8577f4e487b7100000000000000000000000000000000000000000000000000000000600052603260045260246000fd5b906000526020600020906004020160000160009054906101000a900473ffffffffffffffffffffffffffffffffffffffff1673ffffffffffffffffffffffffffffffffffffffff161415612f71576040517f08c379a0000000000000000000000000000000000000000000000000000000008152600401612f689061555e565b60405180910390fd5b8080612f7c90615e9c565b915050612e54565b5060026000541415612fcb576040517f08c379a0000000000000000000000000000000000000000000000000000000008152600401612fc29061573e565b60405180910390fd5b6002600081905550600085604051602001612fe69190615452565b60405160208183030381529060405280519060200120905060016000828152602001908152602001600020600b0160009054906101000a900460ff16613061576040517f08c379a00000000000000000000000000000000000000000000000000000000081526004016130589061569e565b60405180910390fd5b6001600082815260200190815260200160002060040160050160009054906101000a900461ffff1661ffff166001600083815260200190815260200160002060040160000180549050106130ea576040517f08c379a00000000000000000000000000000000000000000000000000000000081526004016130e19061561e565b60405180910390fd5b6130f2613fab565b33816000019073ffffffffffffffffffffffffffffffffffffffff16908173ffffffffffffffffffffffffffffffffffffffff16815250506000816060019015159081151581525050806020016060815250851561342c5761318660016000848152602001908152602001600020600401600201546001600085815260200190815260200160002060040160030154613d80565b34146131c7576040517f08c379a00000000000000000000000000000000000000000000000000000000081526004016131be9061547e565b60405180910390fd5b60016000838152602001908152602001600020600401600201546001600084815260200190815260200160002060040160010160008282546132099190615af5565b92505081905550600160008381526020019081526020016000206004016003015460016000848152602001908152602001600020600301600082825461324f9190615af5565b9250508190555060018160800190151590811515815250506001600083815260200190815260200160002060040160000181908060018154018082558091505060019003906000526020600020906004020160009091909190915060008201518160000160006101000a81548173ffffffffffffffffffffffffffffffffffffffff021916908373ffffffffffffffffffffffffffffffffffffffff160217905550602082015181600101908051906020019061330d929190613f01565b506040820151816002015560608201518160030160006101000a81548160ff02191690831515021790555060808201518160030160016101000a81548160ff02191690831515021790555060a08201518160030160026101000a81548160ff021916908315150217905550505060003073ffffffffffffffffffffffffffffffffffffffff16346040516133a090615469565b60006040518083038185875af1925050503d80600081146133dd576040519150601f19603f3d011682016040523d82523d6000602084013e6133e2565b606091505b5050905080613426576040517f08c379a000000000000000000000000000000000000000000000000000000000815260040161341d9061551e565b60405180910390fd5b506136a2565b60016000838152602001908152602001600020600401600201543414613487576040517f08c379a000000000000000000000000000000000000000000000000000000000815260040161347e906156fe565b60405180910390fd5b60016000838152602001908152602001600020600401600201546001600084815260200190815260200160002060040160010160008282546134c99190615af5565b9250508190555060008160800190151590811515815250506001600083815260200190815260200160002060040160000181908060018154018082558091505060019003906000526020600020906004020160009091909190915060008201518160000160006101000a81548173ffffffffffffffffffffffffffffffffffffffff021916908373ffffffffffffffffffffffffffffffffffffffff1602179055506020820151816001019080519060200190613587929190613f01565b506040820151816002015560608201518160030160006101000a81548160ff02191690831515021790555060808201518160030160016101000a81548160ff02191690831515021790555060a08201518160030160026101000a81548160ff021916908315150217905550505060003073ffffffffffffffffffffffffffffffffffffffff163460405161361a90615469565b60006040518083038185875af1925050503d8060008114613657576040519150601f19603f3d011682016040523d82523d6000602084013e61365c565b606091505b50509050806136a0576040517f08c379a00000000000000000000000000000000000000000000000000000000081526004016136979061551e565b60405180910390fd5b505b505060016000819055505050505050565b600081836136c19190615bec565b905092915050565b60008290506000829050808214156136e2575050613d65565b6000600160008781526020019081526020016000206004016000016002868661370b9190615c77565b6137159190615b82565b866137209190615a29565b81548110613757577f4e487b7100000000000000000000000000000000000000000000000000000000600052603260045260246000fd5b90600052602060002090600402016002015490505b818313613d39575b806001600088815260200190815260200160002060040160000184815481106137c6577f4e487b7100000000000000000000000000000000000000000000000000000000600052603260045260246000fd5b90600052602060002090600402016002015410156137f15782806137e990615e53565b935050613774565b5b600160008781526020019081526020016000206004016000018281548110613843577f4e487b7100000000000000000000000000000000000000000000000000000000600052603260045260246000fd5b90600052602060002090600402016002015481101561386f57818061386790615e0a565b9250506137f2565b818313613d345760006001600088815260200190815260200160002060040160000184815481106138c9577f4e487b7100000000000000000000000000000000000000000000000000000000600052603260045260246000fd5b90600052602060002090600402016040518060c00160405290816000820160009054906101000a900473ffffffffffffffffffffffffffffffffffffffff1673ffffffffffffffffffffffffffffffffffffffff1673ffffffffffffffffffffffffffffffffffffffff168152602001600182018054806020026020016040519081016040528092919081815260200182805480156139af57602002820191906000526020600020906000905b82829054906101000a900461ffff1661ffff16815260200190600201906020826001010492830192600103820291508084116139765790505b50505050508152602001600282015481526020016003820160009054906101000a900460ff161515151581526020016003820160019054906101000a900460ff161515151581526020016003820160029054906101000a900460ff1615151515815250509050600160008881526020019081526020016000206004016000018381548110613a66577f4e487b7100000000000000000000000000000000000000000000000000000000600052603260045260246000fd5b9060005260206000209060040201600160008981526020019081526020016000206004016000018581548110613ac5577f4e487b7100000000000000000000000000000000000000000000000000000000600052603260045260246000fd5b90600052602060002090600402016000820160009054906101000a900473ffffffffffffffffffffffffffffffffffffffff168160000160006101000a81548173ffffffffffffffffffffffffffffffffffffffff021916908373ffffffffffffffffffffffffffffffffffffffff1602179055506001820181600101908054613b50929190614055565b50600282015481600201556003820160009054906101000a900460ff168160030160006101000a81548160ff0219169083151502179055506003820160019054906101000a900460ff168160030160016101000a81548160ff0219169083151502179055506003820160029054906101000a900460ff168160030160026101000a81548160ff02191690831515021790555090505080600160008981526020019081526020016000206004016000018481548110613c37577f4e487b7100000000000000000000000000000000000000000000000000000000600052603260045260246000fd5b906000526020600020906004020160008201518160000160006101000a81548173ffffffffffffffffffffffffffffffffffffffff021916908373ffffffffffffffffffffffffffffffffffffffff1602179055506020820151816001019080519060200190613ca8929190613f01565b506040820151816002015560608201518160030160006101000a81548160ff02191690831515021790555060808201518160030160016101000a81548160ff02191690831515021790555060a08201518160030160026101000a81548160ff0219169083151502179055509050508380613d2190615e53565b9450508280613d2f90615e0a565b935050505b61376c565b81851215613d4d57613d4c8686846136c9565b5b83831215613d6157613d608684866136c9565b5b5050505b505050565b60008183613d789190615c1d565b905092915050565b60008183613d8e9190615af5565b905092915050565b6040518060c0016040528060008019168152602001600073ffffffffffffffffffffffffffffffffffffffff1681526020016000815260200160008152602001613dde613ffd565b81526020016000151581525090565b5080546000825560040290600052602060002090810190613e0e91906140b5565b50565b5080546000825590600052602060002090810190613e2f9190614147565b50565b50805460008255601f016020900490600052602060002090810190613e579190614147565b50565b82805482825590600052602060002090601f01602090048101928215613ef05791602002820160005b83821115613ec157835183826101000a81548160ff021916908360ff1602179055509260200192600101602081600001049283019260010302613e83565b8015613eee5782816101000a81549060ff0219169055600101602081600001049283019260010302613ec1565b505b509050613efd9190614147565b5090565b82805482825590600052602060002090600f01601090048101928215613f9a5791602002820160005b83821115613f6a57835183826101000a81548161ffff021916908361ffff1602179055509260200192600201602081600101049283019260010302613f2a565b8015613f985782816101000a81549061ffff0219169055600201602081600101049283019260010302613f6a565b505b509050613fa79190614147565b5090565b6040518060c00160405280600073ffffffffffffffffffffffffffffffffffffffff16815260200160608152602001600081526020016000151581526020016000151581526020016000151581525090565b6040518061012001604052806060815260200160008152602001600081526020016000815260200160608152602001600061ffff168152602001600061ffff168152602001600061ffff168152602001606081525090565b82805482825590600052602060002090600f016010900481019282156140a457600052602060002091600f016010900482015b828111156140a3578254825591600101919060010190614088565b5b5090506140b19190614147565b5090565b5b8082111561414357600080820160006101000a81549073ffffffffffffffffffffffffffffffffffffffff02191690556001820160006140f69190614164565b60028201600090556003820160006101000a81549060ff02191690556003820160016101000a81549060ff02191690556003820160026101000a81549060ff0219169055506004016140b6565b5090565b5b80821115614160576000816000905550600101614148565b5090565b50805460008255600f0160109004906000526020600020908101906141899190614147565b50565b600061419f61419a8461588b565b61585a565b905080838252602082019050828560208602820111156141be57600080fd5b60005b858110156141ee57816141d4888261434a565b8452602084019350602083019250506001810190506141c1565b5050509392505050565b600061420b614206846158b7565b61585a565b9050808382526020820190508285602086028201111561422a57600080fd5b60005b8581101561425a57816142408882614374565b84526020840193506020830192505060018101905061422d565b5050509392505050565b6000614277614272846158e3565b61585a565b90508281526020810184848401111561428f57600080fd5b61429a848285615dc8565b509392505050565b6000813590506142b181615f9d565b92915050565b600082601f8301126142c857600080fd5b81356142d884826020860161418c565b91505092915050565b600082601f8301126142f257600080fd5b81356143028482602086016141f8565b91505092915050565b60008135905061431a81615fb4565b92915050565b600082601f83011261433157600080fd5b8135614341848260208601614264565b91505092915050565b60008135905061435981615fcb565b92915050565b60008135905061436e81615fe2565b92915050565b60008135905061438381615ff9565b92915050565b60006020828403121561439b57600080fd5b60006143a9848285016142a2565b91505092915050565b6000602082840312156143c457600080fd5b600082013567ffffffffffffffff8111156143de57600080fd5b6143ea84828501614320565b91505092915050565b6000806040838503121561440657600080fd5b600083013567ffffffffffffffff81111561442057600080fd5b61442c85828601614320565b925050602061443d858286016142a2565b9150509250929050565b6000806040838503121561445a57600080fd5b600083013567ffffffffffffffff81111561447457600080fd5b61448085828601614320565b925050602083013567ffffffffffffffff81111561449d57600080fd5b6144a9858286016142b7565b9150509250929050565b600080604083850312156144c657600080fd5b600083013567ffffffffffffffff8111156144e057600080fd5b6144ec85828601614320565b92505060206144fd8582860161430b565b9150509250929050565b60008060008060008060c0878903121561452057600080fd5b600087013567ffffffffffffffff81111561453a57600080fd5b61454689828a01614320565b965050602061455789828a0161435f565b955050604061456889828a0161435f565b945050606061457989828a0161434a565b935050608061458a89828a0161434a565b92505060a087013567ffffffffffffffff8111156145a757600080fd5b6145b389828a016142e1565b9150509295509295509295565b60006145cc838361462b565b60208301905092915050565b60006145e4838361514f565b905092915050565b60006145f88383615407565b60208301905092915050565b60006146108383615443565b60208301905092915050565b61462581615d51565b82525050565b61463481615d3f565b82525050565b600061464582615953565b61464f81856159be565b935061465a83615913565b8060005b8381101561468b57815161467288826145c0565b975061467d8361598a565b92505060018101905061465e565b5085935050505092915050565b60006146a38261595e565b6146ad81856159cf565b9350836020820285016146bf85615923565b8060005b858110156146fb57848403895281516146dc85826145d8565b94506146e783615997565b925060208a019950506001810190506146c3565b50829750879550505050505092915050565b600061471882615969565b61472281856159e0565b935061472d83615933565b8060005b8381101561475e57815161474588826145ec565b9750614750836159a4565b925050600181019050614731565b5085935050505092915050565b600061477682615974565b61478081856159f1565b935061478b83615943565b8060005b838110156147bc5781516147a38882614604565b97506147ae836159b1565b92505060018101905061478f565b5085935050505092915050565b6147d281615d63565b82525050565b6147e181615d6f565b82525050565b60006147f28261597f565b6147fc8185615a1e565b935061480c818560208601615dd7565b80840191505092915050565b6000614825602883615a0d565b91507f496e636f72726563742066756e647320746f206a6f696e20726f756e64202b2060008301527f61636520706f6f6c0000000000000000000000000000000000000000000000006020830152604082019050919050565b600061488b602583615a0d565b91507f4f6e6c7920746865206c6561677565206f776e65722063616e2063616c6c207060008301527f61796f75740000000000000000000000000000000000000000000000000000006020830152604082019050919050565b60006148f1601a83615a0d565b91507f4c6561677565206e616d6520646f6573206e6f742065786973740000000000006000830152602082019050919050565b6000614931602383615a0d565b91507f4f6e6c79206c6561677565206f776e65722063616e207374617274206120726f60008301527f756e6400000000000000000000000000000000000000000000000000000000006020830152604082019050919050565b6000614997601a83615a0d565b91507f4c6561677565206e616d6520616c7265616479206578697374730000000000006000830152602082019050919050565b60006149d7601483615a0d565b91507f4661696c656420746f2073656e642045746865720000000000000000000000006000830152602082019050919050565b6000614a17603f83615a0d565b91507f41636520706f6f6c207072696365206d757374206265206e6f6e2d6e6567617460008301527f6976652c2073657420746f207a65726f206966206e6f2061636520706f6f6c006020830152604082019050919050565b6000614a7d602583615a0d565b91507f4164647265737320616c726561647920696e636c7564656420696e207468652060008301527f726f756e640000000000000000000000000000000000000000000000000000006020830152604082019050919050565b6000614ae3602b83615a0d565b91507f4d6178206e756d626572206f6620706c6179657273206d757374206265206d6f60008301527f7265207468616e206f6e650000000000000000000000000000000000000000006020830152604082019050919050565b6000614b49601d83615a0d565b91507f41646472657373206e6f7420696e636c7564656420696e20726f756e640000006000830152602082019050919050565b6000614b89602283615a0d565b91507f496e76616c69642061727261792073697a6520666f7220686f6c652073636f7260008301527f65730000000000000000000000000000000000000000000000000000000000006020830152604082019050919050565b6000614bef602d83615a0d565b91507f41646472657373206973206e6f7420696e636c7564656420696e20746869732060008301527f6c65616775657320726f756e64000000000000000000000000000000000000006020830152604082019050919050565b6000614c55600d83615a0d565b91507f4e6f20726f756e64206f70656e000000000000000000000000000000000000006000830152602082019050919050565b6000614c95601783615a0d565b91507f4e6f206d6f72652073706f747320617661696c61626c650000000000000000006000830152602082019050919050565b6000614cd5604383615a0d565b91507f5061796f757420736368656d6520696e76616c69642c20616c6c20706c61636560008301527f73206d757374206265206c657373207468616e206f7220657175616c20746f2060208301527f31303000000000000000000000000000000000000000000000000000000000006040830152606082019050919050565b6000614d61602883615a0d565b91507f507269636520746f206a6f696e206d75737420626520706f7369746976652c2060008301527f6e6f6e2d7a65726f0000000000000000000000000000000000000000000000006020830152604082019050919050565b6000614dc7603e83615a0d565b91507f4e65656420746f2068617665206120706f736974697665206e6f6e2d7a65726f60008301527f206e756d626572206f6620686f6c657320666f722074686520726f756e6400006020830152604082019050919050565b6000614e2d601c83615a0d565b91507f4120726f756e6420686173206e6f74206265656e2073746172746564000000006000830152602082019050919050565b6000614e6d601083615a0d565b91507f4e6f74686e696720746f20636c61696d000000000000000000000000000000006000830152602082019050919050565b6000614ead600083615a02565b9150600082019050919050565b6000614ec7602c83615a0d565b91507f41636520706f6f6c2062616c616e6365206e6f74206c6172676520656e6f756760008301527f6820746f20706179206f757400000000000000000000000000000000000000006020830152604082019050919050565b6000614f2d601d83615a0d565b91507f496e636f72726563742066756e647320746f206a6f696e20726f756e640000006000830152602082019050919050565b6000614f6d601983615a0d565b91507f5061796f757420636f6e646974696f6e73206e6f74206d6574000000000000006000830152602082019050919050565b6000614fad601f83615a0d565b91507f5265656e7472616e637947756172643a207265656e7472616e742063616c6c006000830152602082019050919050565b6000614fed602683615a0d565b91507f5468657265206973206e6f206f70656e20726f756e6420666f7220746869732060008301527f6c656167756500000000000000000000000000000000000000000000000000006020830152604082019050919050565b6000615053601883615a0d565b91507f53636f72657320616c7265616479207375626d697474656400000000000000006000830152602082019050919050565b6000615093601283615a0d565b91507f526f756e6420616c7265616479206f70656e00000000000000000000000000006000830152602082019050919050565b600060c0830160008301516150de60008601826147d8565b5060208301516150f1602086018261462b565b5060408301516151046040860182615425565b5060608301516151176060860182615425565b506080830151848203608086015261512f8282615261565b91505060a083015161514460a08601826147c9565b508091505092915050565b600060c083016000830151615167600086018261461c565b506020830151848203602086015261517f828261470d565b91505060408301516151946040860182615425565b5060608301516151a760608601826147c9565b5060808301516151ba60808601826147c9565b5060a08301516151cd60a08601826147c9565b508091505092915050565b600060c0830160008301516151f0600086018261461c565b5060208301518482036020860152615208828261470d565b915050604083015161521d6040860182615425565b50606083015161523060608601826147c9565b50608083015161524360808601826147c9565b5060a083015161525660a08601826147c9565b508091505092915050565b600061012083016000830151848203600086015261527f8282614698565b91505060208301516152946020860182615425565b5060408301516152a76040860182615425565b5060608301516152ba6060860182615425565b50608083015184820360808601526152d2828261463a565b91505060a08301516152e760a0860182615407565b5060c08301516152fa60c0860182615407565b5060e083015161530d60e0860182615407565b50610100830151848203610100860152615327828261476b565b9150508091505092915050565b60006101208301600083015184820360008601526153528282614698565b91505060208301516153676020860182615425565b50604083015161537a6040860182615425565b50606083015161538d6060860182615425565b50608083015184820360808601526153a5828261463a565b91505060a08301516153ba60a0860182615407565b5060c08301516153cd60c0860182615407565b5060e08301516153e060e0860182615407565b506101008301518482036101008601526153fa828261476b565b9150508091505092915050565b61541081615d83565b82525050565b61541f81615d83565b82525050565b61542e81615db1565b82525050565b61543d81615db1565b82525050565b61544c81615dbb565b82525050565b600061545e82846147e7565b915081905092915050565b600061547482614ea0565b9150819050919050565b6000602082019050818103600083015261549781614818565b9050919050565b600060208201905081810360008301526154b78161487e565b9050919050565b600060208201905081810360008301526154d7816148e4565b9050919050565b600060208201905081810360008301526154f781614924565b9050919050565b600060208201905081810360008301526155178161498a565b9050919050565b60006020820190508181036000830152615537816149ca565b9050919050565b6000602082019050818103600083015261555781614a0a565b9050919050565b6000602082019050818103600083015261557781614a70565b9050919050565b6000602082019050818103600083015261559781614ad6565b9050919050565b600060208201905081810360008301526155b781614b3c565b9050919050565b600060208201905081810360008301526155d781614b7c565b9050919050565b600060208201905081810360008301526155f781614be2565b9050919050565b6000602082019050818103600083015261561781614c48565b9050919050565b6000602082019050818103600083015261563781614c88565b9050919050565b6000602082019050818103600083015261565781614cc8565b9050919050565b6000602082019050818103600083015261567781614d54565b9050919050565b6000602082019050818103600083015261569781614dba565b9050919050565b600060208201905081810360008301526156b781614e20565b9050919050565b600060208201905081810360008301526156d781614e60565b9050919050565b600060208201905081810360008301526156f781614eba565b9050919050565b6000602082019050818103600083015261571781614f20565b9050919050565b6000602082019050818103600083015261573781614f60565b9050919050565b6000602082019050818103600083015261575781614fa0565b9050919050565b6000602082019050818103600083015261577781614fe0565b9050919050565b6000602082019050818103600083015261579781615046565b9050919050565b600060208201905081810360008301526157b781615086565b9050919050565b600060208201905081810360008301526157d881846150c6565b905092915050565b600060208201905081810360008301526157fa81846151d8565b905092915050565b6000602082019050818103600083015261581c8184615334565b905092915050565b60006020820190506158396000830184615416565b92915050565b60006020820190506158546000830184615434565b92915050565b6000604051905081810181811067ffffffffffffffff8211171561588157615880615f6e565b5b8060405250919050565b600067ffffffffffffffff8211156158a6576158a5615f6e565b5b602082029050602081019050919050565b600067ffffffffffffffff8211156158d2576158d1615f6e565b5b602082029050602081019050919050565b600067ffffffffffffffff8211156158fe576158fd615f6e565b5b601f19601f8301169050602081019050919050565b6000819050602082019050919050565b6000819050602082019050919050565b6000819050602082019050919050565b6000819050602082019050919050565b600081519050919050565b600081519050919050565b600081519050919050565b600081519050919050565b600081519050919050565b6000602082019050919050565b6000602082019050919050565b6000602082019050919050565b6000602082019050919050565b600082825260208201905092915050565b600082825260208201905092915050565b600082825260208201905092915050565b600082825260208201905092915050565b600081905092915050565b600082825260208201905092915050565b600081905092915050565b6000615a3482615d79565b9150615a3f83615d79565b9250817f7fffffffffffffffffffffffffffffffffffffffffffffffffffffffffffffff03831360008312151615615a7a57615a79615f10565b5b817f8000000000000000000000000000000000000000000000000000000000000000038312600083121615615ab257615ab1615f10565b5b828201905092915050565b6000615ac882615d83565b9150615ad383615d83565b92508261ffff03821115615aea57615ae9615f10565b5b828201905092915050565b6000615b0082615db1565b9150615b0b83615db1565b9250827fffffffffffffffffffffffffffffffffffffffffffffffffffffffffffffffff03821115615b4057615b3f615f10565b5b828201905092915050565b6000615b5682615dbb565b9150615b6183615dbb565b92508260ff03821115615b7757615b76615f10565b5b828201905092915050565b6000615b8d82615d79565b9150615b9883615d79565b925082615ba857615ba7615f3f565b5b600160000383147f800000000000000000000000000000000000000000000000000000000000000083141615615be157615be0615f10565b5b828205905092915050565b6000615bf782615db1565b9150615c0283615db1565b925082615c1257615c11615f3f565b5b828204905092915050565b6000615c2882615db1565b9150615c3383615db1565b9250817fffffffffffffffffffffffffffffffffffffffffffffffffffffffffffffffff0483118215151615615c6c57615c6b615f10565b5b828202905092915050565b6000615c8282615d79565b9150615c8d83615d79565b9250827f800000000000000000000000000000000000000000000000000000000000000001821260008412151615615cc857615cc7615f10565b5b827f7fffffffffffffffffffffffffffffffffffffffffffffffffffffffffffffff018213600084121615615d0057615cff615f10565b5b828203905092915050565b6000615d1682615db1565b9150615d2183615db1565b925082821015615d3457615d33615f10565b5b828203905092915050565b6000615d4a82615d91565b9050919050565b6000615d5c82615d91565b9050919050565b60008115159050919050565b6000819050919050565b6000819050919050565b600061ffff82169050919050565b600073ffffffffffffffffffffffffffffffffffffffff82169050919050565b6000819050919050565b600060ff82169050919050565b82818337600083830152505050565b60005b83811015615df5578082015181840152602081019050615dda565b83811115615e04576000848401525b50505050565b6000615e1582615d79565b91507f8000000000000000000000000000000000000000000000000000000000000000821415615e4857615e47615f10565b5b600182039050919050565b6000615e5e82615d79565b91507f7fffffffffffffffffffffffffffffffffffffffffffffffffffffffffffffff821415615e9157615e90615f10565b5b600182019050919050565b6000615ea782615d83565b915061ffff821415615ebc57615ebb615f10565b5b600182019050919050565b6000615ed282615db1565b91507fffffffffffffffffffffffffffffffffffffffffffffffffffffffffffffffff821415615f0557615f04615f10565b5b600182019050919050565b7f4e487b7100000000000000000000000000000000000000000000000000000000600052601160045260246000fd5b7f4e487b7100000000000000000000000000000000000000000000000000000000600052601260045260246000fd5b7f4e487b7100000000000000000000000000000000000000000000000000000000600052604160045260246000fd5b615fa681615d3f565b8114615fb157600080fd5b50565b615fbd81615d63565b8114615fc857600080fd5b50565b615fd481615d83565b8114615fdf57600080fd5b50565b615feb81615db1565b8114615ff657600080fd5b50565b61600281615dbb565b811461600d57600080fd5b5056fea2646970667358221220c83ef0c75e97dc8c69538a3c07cc77d97b32a40a07e791430c234e73c49ca22264736f6c63430008000033",
  "immutableReferences": {},
  "source": "//SPDX-License-Identifier: MIT\npragma solidity >=0.5.0 <0.9.0;\n\nimport \"./@openzeppelin/contracts/utils/math/SafeMath.sol\";\nimport \"./@openzeppelin/contracts/security/ReentrancyGuard.sol\";\n\ncontract SmartLeagues is ReentrancyGuard{\n    constructor() {\n    }\n\n    using SafeMath for uint256;\n    using SafeMath for uint64;\n    using SafeMath for uint16;\n\n    struct Player {\n        address payable userAddress;\n        uint16[] holeScores;\n        uint256 totalScore;\n        bool scoresSubmitted;\n        bool acePoolEntry;\n        bool acePoolWin;\n    }\n\n    struct Round {\n        Player[] player;\n        uint256 balance;            // total balance of entry fees\n        uint256 priceToJoin;\n        uint256 priceAcePool;\n        address[] acePoolWinners;   // contains all winners of the ace pool\n        uint16 maxPlayers;          // max number of players allowed in the round\n        uint16 finishedCount;       // how many have submitted scores\n        uint16 numberOfHoles;       // used for player.holeScores array size \n        uint8[] payoutPercentage;   // 0-100 percentage of pool paid out to winners where [0] is first place, [1] is seconds place, etc.\n                                    // any total percentage under 100, the leftover will be donated back to the league funds\n    }\n\n    struct League {\n        bytes32 name;                               // name: hash of name of league input upon creation\n        address owner;                              // owner: address that calls createLeague()\n        uint256 balance;                            // totalBalance: total balance deposited in this league\n        uint256 acePoolBalance;                     // acePoolBalance: total balance of current ace pool\n        Round round;                                // round: holds active round data\n        bool roundOpen;                             // roundOpen: 1 if there is an active round started that has not finished\n    }\n    \n    event NewLeague(address indexed _owner, bytes32 indexed _leagueHash);\n    //event NewRound(bytes32 indexed _leagueHash, Round indexed _roundData);\n    //event PlayerJoinedRound(address indexed _player, string indexed _nickname, bytes32 indexed _leagueHash);\n\n    mapping (bytes32 => League) internal nameToLeague;\n    mapping (bytes32 => bool) internal leagueNames;\n    mapping (address => uint) public winnings;\n\n    uint256 MAX_UINT = 0xffffffffffffffffffffffffffffffffffffffffffffffffffffffffffffffff;\n    uint16 MAX_UINT16 = 0xffff;\n\n    modifier leagueExists(string memory _name) {\n        require(leagueNames[keccak256(abi.encodePacked(_name))], \"League name does not exist\");\n        _;\n    }\n\n    modifier leagueDoesNotExist(string memory _name) {\n        require(!leagueNames[keccak256(abi.encodePacked(_name))], \"League name already exists\");\n        _;\n    }\n\n    // can start a round if you are the league owner of this league \n    modifier startLeagueRoundAccess(string memory _leagueName) {\n        require(nameToLeague[keccak256(abi.encodePacked(_leagueName))].owner == msg.sender, \"Only league owner can start a round\");\n        _;\n    }\n\n    // allows function to run if msg.sender is not already part of this round\n    modifier playerNotInRound(string memory _leagueName) {\n        bytes32 nameHash = keccak256(abi.encodePacked(_leagueName));\n        for (uint16 i = 0; i < nameToLeague[nameHash].round.player.length; i++) {\n            require(nameToLeague[nameHash].round.player[i].userAddress != msg.sender, \"Address already included in the round\");\n        }\n        _;\n    }\n\n    // allows function to run if msg.sender is part of this round\n    modifier playerInRound(string memory _leagueName) {\n        bytes32 nameHash = keccak256(abi.encodePacked(_leagueName));\n        for (uint16 i = 0; i < nameToLeague[nameHash].round.player.length; i++) {\n            if (nameToLeague[nameHash].round.player[i].userAddress == msg.sender) {\n                _;\n            }\n        }\n        require(false, \"Address is not included in the round\");\n    }\n    \n    // Function to receive Ether. msg.data must be empty\n    receive() external payable {}\n\n    // Fallback function is called when msg.data is not empty\n    fallback() external payable {}\n\n    function createLeague(string memory _name) external leagueDoesNotExist(_name) {\n        bytes32 nameHash = keccak256(abi.encodePacked(_name));\n        // if unique name, add to the leagueNames\n        leagueNames[nameHash] = true;\n\n         // hash input for league name\n        nameToLeague[nameHash].name = nameHash;\n        // make caller owner of this league\n        nameToLeague[nameHash].owner = msg.sender;\n        // initialize balances\n        nameToLeague[nameHash].balance = 0;\n        nameToLeague[nameHash].acePoolBalance = 0;\n        \n        // create new league event\n        emit NewLeague(msg.sender, nameHash);\n    }\n\n    function startLeagueRound(\n        string memory _leagueName,\n        uint256 _priceToJoin,\n        uint256 _priceAcePool,\n        uint16 _maxPlayers,\n        uint16 _numberOfHoles,\n        uint8[] memory _payoutPercentage\n    )\n        external\n        leagueExists(_leagueName)\n        startLeagueRoundAccess(_leagueName)\n    {\n        bytes32 nameHash = keccak256(abi.encodePacked(_leagueName));\n        // cannot start a round if a round is already in progress\n        require(!nameToLeague[nameHash].roundOpen, \"Round already open\");\n        // price to join must be positive\n        require(_priceToJoin > 0, \"Price to join must be positive, non-zero\");\n        // ace pool price must be non-negative\n        require(_priceAcePool >= 0, \"Ace pool price must be non-negative, set to zero if no ace pool\");\n        // amount of max players must be more than one\n        require(_maxPlayers > 1, \"Max number of players must be more than one\");\n        // number of holes needs to be positive non-zero\n        require(_numberOfHoles > 0, \"Need to have a positive non-zero number of holes for the round\");\n        // validate payout scheme\n        uint8 _totalPayoutPercentage = 0;\n        for (uint i = 0; (i < _payoutPercentage.length) && (_payoutPercentage[i] != 0); i++) {\n            _totalPayoutPercentage += _payoutPercentage[i];\n            require(_totalPayoutPercentage <= 100, \"Payout scheme invalid, all places must be less than or equal to 100\");\n        }\n\n        // if all requirements met, start the round\n        nameToLeague[nameHash].roundOpen = true;\n        // clear players array\n        delete nameToLeague[nameHash].round.player;\n        delete nameToLeague[nameHash].round.acePoolWinners;\n        // set inputs to league round information\n        nameToLeague[nameHash].round.priceToJoin = _priceToJoin;\n        nameToLeague[nameHash].round.priceAcePool = _priceAcePool;\n        nameToLeague[nameHash].round.maxPlayers = _maxPlayers;\n        nameToLeague[nameHash].round.finishedCount = 0;\n        nameToLeague[nameHash].round.numberOfHoles = _numberOfHoles;\n        delete nameToLeague[nameHash].round.payoutPercentage;\n        nameToLeague[nameHash].round.payoutPercentage = _payoutPercentage;\n        \n        // round data event\n        //emit NewRound(nameHash, nameToLeague[nameHash].round);\n    }\n\n    function joinLeagueRound(\n        string memory _leagueName,\n        bool _joinAcePool\n    )\n        external\n        payable\n        leagueExists(_leagueName)\n        playerNotInRound(_leagueName)\n        nonReentrant()\n    {\n        bytes32 nameHash = keccak256(abi.encodePacked(_leagueName));\n        // a round has to already have been started\n        require(nameToLeague[nameHash].roundOpen, \"A round has not been started\");\n        // make sure there is an available space in the round\n        require(nameToLeague[nameHash].round.player.length < nameToLeague[nameHash].round.maxPlayers, \"No more spots available\");\n        // create temporary player that will later be pushed to the round player array\n        Player memory _player;\n        _player.userAddress = payable(msg.sender);\n        _player.scoresSubmitted = false;\n        delete _player.holeScores;\n        // ensure the player has sent enough funds to join the round\n        if (_joinAcePool) {\n            require(msg.value == SafeMath.add(nameToLeague[nameHash].round.priceToJoin, nameToLeague[nameHash].round.priceAcePool), \"Incorrect funds to join round + ace pool\");\n            // adjust balances\n            nameToLeague[nameHash].round.balance += nameToLeague[nameHash].round.priceToJoin;\n            nameToLeague[nameHash].acePoolBalance += nameToLeague[nameHash].round.priceAcePool;\n            // modify player data\n            _player.acePoolEntry = true;\n            // push player to round\n            nameToLeague[nameHash].round.player.push(_player);\n            // send funds to contract\n            (bool sent,) = payable(address(this)).call{value: msg.value}(\"\");\n            require(sent, \"Failed to send Ether\");\n        } else {\n            require(msg.value == nameToLeague[nameHash].round.priceToJoin, \"Incorrect funds to join round\");\n            // adjust balance\n            nameToLeague[nameHash].round.balance += nameToLeague[nameHash].round.priceToJoin;\n            // modify player data\n            _player.acePoolEntry = false;\n            // push player to round\n            nameToLeague[nameHash].round.player.push(_player);\n            // send funds to contract\n            (bool sent,) = payable(address(this)).call{value: msg.value}(\"\");\n            require(sent, \"Failed to send Ether\");\n        }\n\n        //emit PlayerJoinedRound(msg.sender, _player.nickname, nameHash);\n    }\n\n    function submitScores(\n        string memory _leagueName,\n        uint16[] memory _holeScore\n    )\n        external\n        payable\n        leagueExists(_leagueName)\n        nonReentrant\n    {\n        bytes32 nameHash = keccak256(abi.encodePacked(_leagueName));\n        // league round must be open\n        require(nameToLeague[nameHash].roundOpen, \"There is no open round for this league\");\n        // get the index of the player in the round.player[] array; player must be in the array to continue\n        uint16 _index = addressInRound(_leagueName, msg.sender);\n        require(_index != MAX_UINT16, \"Address is not included in this leagues round\");\n        // require that this player has not already submitted their scores\n        require(!nameToLeague[nameHash].round.player[_index].scoresSubmitted, \"Scores already submitted\");\n        nameToLeague[nameHash].round.player[_index].scoresSubmitted = true;\n        // The input _holeScore array size must be the same as the number of holes for the round\n        require(_holeScore.length == nameToLeague[nameHash].round.numberOfHoles, \"Invalid array size for hole scores\");\n        \n        // copy hole score inputs to round.player data\n        nameToLeague[nameHash].round.player[_index].holeScores = _holeScore;\n\n        // move inputted hole scores to the league round data\n        uint256 _scoreSum = 0;\n        for (uint256 i = 0; i < nameToLeague[nameHash].round.numberOfHoles; i++) {\n            // _scoreSum = SafeMath.add(uint256(nameToLeague[nameHash].round.player[_index].holeScores[i]), _scoreSum);\n            _scoreSum = SafeMath.add(uint256(_holeScore[i]), _scoreSum);\n            // if ace was had on this hole and player is in ace pool, set win ace pool \n            if (nameToLeague[nameHash].round.player[_index].acePoolEntry && _holeScore[i] == 1) {\n                nameToLeague[nameHash].round.player[_index].acePoolWin;\n                nameToLeague[nameHash].round.acePoolWinners.push(msg.sender);\n            }\n        }\n        nameToLeague[nameHash].round.player[_index].totalScore = _scoreSum;\n\n        // increment finished player count\n        nameToLeague[nameHash].round.finishedCount++;\n    }\n\n    function finishRound(string memory _leagueName)\n        external\n        leagueExists(_leagueName)\n    {\n        bytes32 nameHash = keccak256(abi.encodePacked(_leagueName));\n        // only the league owner can call payout\n        require(nameToLeague[nameHash].owner == msg.sender, \"Only the league owner can call payout\");\n        // league round must be open\n        require(nameToLeague[nameHash].roundOpen, \"There is no open round for this league\");\n        // when can payouts be done\n        require(nameToLeague[nameHash].round.finishedCount == nameToLeague[nameHash].round.player.length, \"Payout conditions not met\");\n        \n        // calculate ace pool payout \n        uint256 _acePoolPayout = 0;\n        if (nameToLeague[nameHash].round.acePoolWinners.length != 0) {\n            _acePoolPayout = SafeMath.div(nameToLeague[nameHash].acePoolBalance, nameToLeague[nameHash].round.acePoolWinners.length);\n        }\n\n        // sort player array within round data, players sorted by score from low to high\n        playerQuickSort(nameHash, 0, int(nameToLeague[nameHash].round.player.length - 1));\n\n        uint256 _totalRoundBalance = nameToLeague[nameHash].round.balance;\n        for (uint _payoutIndex = 0; (_payoutIndex < nameToLeague[nameHash].round.payoutPercentage.length) && (nameToLeague[nameHash].round.payoutPercentage[_payoutIndex] != 0); ) {\n            // get number of tied players for this spot in the payout scheme\n            uint16 _playersInPlaceCount = 1;\n            while (nameToLeague[nameHash].round.player[_payoutIndex].totalScore == nameToLeague[nameHash].round.player[_payoutIndex + _playersInPlaceCount].totalScore) {\n                _playersInPlaceCount++;\n            }\n\n            // get total percentage of payouts due to this group of players\n            // if players are tied, the percent payouts get added together, divided by number of players tied, and distributed to all tied players\n            // ex: if 2 players are tied for 1st, the payout percents of 1st and 2nd get added together and divided by 2, and both players get this percent\n            uint16 _totalPlacePayoutPercentage = 0;\n            for (uint16 j = 0; (j < _playersInPlaceCount) && (_payoutIndex + j < nameToLeague[nameHash].round.payoutPercentage.length); j++) {\n                _totalPlacePayoutPercentage += nameToLeague[nameHash].round.payoutPercentage[_payoutIndex + j];\n            }\n            // get the percentage of the round balance that each player taking this place will receive\n            // integer division means there may be left over funds after payouts, these are rolled into the league balance\n            uint256 _percentPayoutForPlace = SafeMath.div(uint(_totalPlacePayoutPercentage), uint(_playersInPlaceCount));\n            // get total amount paid for this place\n            uint256 _amountPaid = SafeMath.mul(_percentPayoutForPlace, SafeMath.div(uint(_totalRoundBalance), uint(100)));\n\n            // payout all players in this place\n            for (uint16 j = 0; j < _playersInPlaceCount; j++) {\n                // subtract from round balance\n                //require(nameToLeague[nameHash].round.balance >= _amountPaid, \"Round balance not large enough to pay out\");\n                nameToLeague[nameHash].round.balance -= _amountPaid;\n                /*\n                if(nameToLeague[nameHash].round.balance < _amountPaid) {\n                    _amountPaid = nameToLeague[nameHash].round.balance;\n                    nameToLeague[nameHash].round.balance = 0;\n                } else {\n                    nameToLeague[nameHash].round.balance -= _amountPaid;\n                }\n                */\n                if (nameToLeague[nameHash].round.player[_payoutIndex + j].acePoolWin) {\n                    require(nameToLeague[nameHash].acePoolBalance >= _acePoolPayout, \"Ace pool balance not large enough to pay out\");\n                    nameToLeague[nameHash].acePoolBalance -= _acePoolPayout;\n                    // send to address\n                    winnings[nameToLeague[nameHash].round.player[_payoutIndex + j].userAddress] += _amountPaid + _acePoolPayout;\n                } else {\n                    // send to address\n                    winnings[nameToLeague[nameHash].round.player[_payoutIndex + j].userAddress] += _amountPaid;\n                }\n            }\n\n            // adjust player payout index to account for any ties before looping to next in line for payout check\n            _payoutIndex += _playersInPlaceCount;\n        }\n        \n\n        // move any leftover funds to the league's balance\n        nameToLeague[nameHash].balance += nameToLeague[nameHash].round.balance;\n        nameToLeague[nameHash].round.balance = 0;\n        // close round\n        nameToLeague[nameHash].roundOpen = false;\n    }\n\n    // submits max value as this msg.sender's total score so it will automatically be last place\n    function forfeitRound(string memory _leagueName) external leagueExists(_leagueName) {\n        bytes32 nameHash = keccak256(abi.encodePacked(_leagueName));\n        // league must have an open round\n        require(nameToLeague[nameHash].roundOpen, \"There is no open round for this league\");\n        // get the index of the player in the round.player[] array; player must be in the array to continue\n        uint16 _index = addressInRound(_leagueName, msg.sender);\n        require(_index != MAX_UINT16, \"Address is not included in this leagues round\");\n        // require that this player has not already submitted their scores\n        require(!nameToLeague[nameHash].round.player[_index].scoresSubmitted, \"Scores already submitted\");\n        nameToLeague[nameHash].round.player[_index].scoresSubmitted = true;\n\n        nameToLeague[nameHash].round.player[_index].totalScore = MAX_UINT;\n\n        // increment finished player count\n        nameToLeague[nameHash].round.finishedCount++;\n    }\n\n    function claimWinnings() external {\n        require(winnings[msg.sender] != 0, 'Nothnig to claim');\n        (bool sent,) = msg.sender.call{value: winnings[msg.sender]}(\"\");\n        require(sent, \"Failed to send Ether\");\n    }\n\n    // returns the index in the round's player[] array; if address is not in the league it will return max value of uint16(65535) \n    function addressInRound(string memory _leagueName, address _addressCheck)\n        public\n        view\n        leagueExists(_leagueName)\n        returns(uint16)\n    {\n        bytes32 nameHash = keccak256(abi.encodePacked(_leagueName));\n        // loop through all players in the round and check if msg.sender is in the round\n        for (uint16 i = 0; i < nameToLeague[nameHash].round.player.length; i++) {\n            if(nameToLeague[nameHash].round.player[i].userAddress == _addressCheck) {\n                return(i);\n            }\n        }\n        return(MAX_UINT16);\n    }\n\n    function playerQuickSort(bytes32 _nameHash, int _left, int _right) internal {\n        int _i = _left;\n        int _j = _right;\n        if(_i==_j) return;\n        uint pivot = nameToLeague[_nameHash].round.player[uint(_left + (_right - _left) / 2)].totalScore;\n        while (_i <= _j) {\n            while (nameToLeague[_nameHash].round.player[uint(_i)].totalScore < pivot) _i++;\n            while (pivot < nameToLeague[_nameHash].round.player[uint(_j)].totalScore) _j--;\n            if (_i <= _j) {\n                Player memory _tempPlayer = nameToLeague[_nameHash].round.player[uint(_i)];     // must copy to a temporary location to swap positions in array\n                nameToLeague[_nameHash].round.player[uint(_i)] = nameToLeague[_nameHash].round.player[uint(_j)];\n                nameToLeague[_nameHash].round.player[uint(_j)] = _tempPlayer;\n                _i++;\n                _j--;\n            }\n        }\n        if (_left < _j)\n            playerQuickSort(_nameHash, _left, _j);\n        if (_i < _right)\n            playerQuickSort(_nameHash, _i, _right);\n    }\n\n    function getLeagueInfo(string memory _leagueName) external view leagueExists(_leagueName) returns(League memory) {\n        bytes32 nameHash = keccak256(abi.encodePacked(_leagueName));\n        return nameToLeague[nameHash];\n    }\n\n    function getLeagueRoundInfo(string memory _leagueName) external view leagueExists(_leagueName) returns(Round memory) {\n        bytes32 nameHash = keccak256(abi.encodePacked(_leagueName));\n        require(nameToLeague[nameHash].roundOpen, 'No round open');\n        return nameToLeague[nameHash].round;\n    }\n\n    function getLeagueRoundPlayerInfo(string memory _leagueName, address _address) external view leagueExists(_leagueName) returns(Player memory) {\n        uint16 index = addressInRound(_leagueName, _address);\n        require(index != MAX_UINT16, 'Address not included in round');\n        bytes32 nameHash = keccak256(abi.encodePacked(_leagueName));\n        return nameToLeague[nameHash].round.player[index];\n    }\n}",
  "sourcePath": "/home/tyler-quinn/projects/SmartLeagues/contracts/SmartLeagues.sol",
  "compiler": {
    "name": "solc",
    "version": "0.8.0+commit.c7dfd78e.Emscripten.clang"
  },
  "schemaVersion": "3.4.3",
  "updatedAt": "2021-10-12T04:38:14.400Z",
  "devdoc": {
    "kind": "dev",
    "methods": {},
    "version": 1
  },
  "userdoc": {
    "kind": "user",
    "methods": {},
    "version": 1
  }
}