{
  "contractName": "SmartLeaguesBase",
  "abi": [
    {
      "inputs": [],
      "stateMutability": "nonpayable",
      "type": "constructor"
    },
    {
      "stateMutability": "payable",
      "type": "fallback"
    },
    {
      "inputs": [
        {
          "internalType": "address",
          "name": "",
          "type": "address"
        }
      ],
      "name": "winnings",
      "outputs": [
        {
          "internalType": "uint256",
          "name": "",
          "type": "uint256"
        }
      ],
      "stateMutability": "view",
      "type": "function"
    },
    {
      "stateMutability": "payable",
      "type": "receive"
    },
    {
      "inputs": [],
      "name": "claimWinnings",
      "outputs": [],
      "stateMutability": "nonpayable",
      "type": "function"
    }
  ],
  "bytecode": "0x60806040527fffffffffffffffffffffffffffffffffffffffffffffffffffffffffffffffff60025561ffff600360006101000a81548161ffff021916908361ffff16021790555034801561005357600080fd5b5060016000819055506104c58061006b6000396000f3fe60806040526004361061002d5760003560e01c8063b401faf114610036578063ea3a14991461004d57610034565b3661003457005b005b34801561004257600080fd5b5061004b61008a565b005b34801561005957600080fd5b50610074600480360381019061006f919061027e565b610251565b6040516100819190610405565b60405180910390f35b600260005414156100d0576040517f08c379a00000000000000000000000000000000000000000000000000000000081526004016100c7906103e5565b60405180910390fd5b60026000819055506000600160003373ffffffffffffffffffffffffffffffffffffffff1673ffffffffffffffffffffffffffffffffffffffff16815260200190815260200160002054141561015b576040517f08c379a0000000000000000000000000000000000000000000000000000000008152600401610152906103c5565b60405180910390fd5b60003373ffffffffffffffffffffffffffffffffffffffff16600160003373ffffffffffffffffffffffffffffffffffffffff1673ffffffffffffffffffffffffffffffffffffffff168152602001908152602001600020546040516101c090610390565b60006040518083038185875af1925050503d80600081146101fd576040519150601f19603f3d011682016040523d82523d6000602084013e610202565b606091505b5050905080610246576040517f08c379a000000000000000000000000000000000000000000000000000000000815260040161023d906103a5565b60405180910390fd5b506001600081905550565b60016020528060005260406000206000915090505481565b60008135905061027881610478565b92915050565b60006020828403121561029057600080fd5b600061029e84828501610269565b91505092915050565b60006102b460148361042b565b91507f4661696c656420746f2073656e642045746865720000000000000000000000006000830152602082019050919050565b60006102f460108361042b565b91507f4e6f74686e696720746f20636c61696d000000000000000000000000000000006000830152602082019050919050565b6000610334600083610420565b9150600082019050919050565b600061034e601f8361042b565b91507f5265656e7472616e637947756172643a207265656e7472616e742063616c6c006000830152602082019050919050565b61038a8161046e565b82525050565b600061039b82610327565b9150819050919050565b600060208201905081810360008301526103be816102a7565b9050919050565b600060208201905081810360008301526103de816102e7565b9050919050565b600060208201905081810360008301526103fe81610341565b9050919050565b600060208201905061041a6000830184610381565b92915050565b600081905092915050565b600082825260208201905092915050565b60006104478261044e565b9050919050565b600073ffffffffffffffffffffffffffffffffffffffff82169050919050565b6000819050919050565b6104818161043c565b811461048c57600080fd5b5056fea26469706673582212204e1d5646ace5df72e51aa3cd5a29910c16a478d56e7bbe61516d39a082baae7964736f6c63430008000033",
  "immutableReferences": {},
  "source": "//SPDX-License-Identifier: MIT\npragma solidity >=0.5.0 <0.9.0;\n\nimport \"./@openzeppelin/contracts/security/ReentrancyGuard.sol\";\n\ncontract SmartLeaguesBase is ReentrancyGuard{\n    constructor() {\n    }\n\n    mapping (address => uint) public winnings;\n\n    uint256 MAX_UINT = 0xffffffffffffffffffffffffffffffffffffffffffffffffffffffffffffffff;\n    uint16 MAX_UINT16 = 0xffff;\n\n    // Function to receive Ether. msg.data must be empty\n    receive() external payable {}\n\n    // Fallback function is called when msg.data is not empty\n    fallback() external payable {}\n\n    function claimWinnings() external nonReentrant() {\n        require(winnings[msg.sender] != 0, 'Nothnig to claim');\n        (bool sent,) = msg.sender.call{value: winnings[msg.sender]}(\"\");\n        require(sent, \"Failed to send Ether\");\n    }\n}",
  "sourcePath": "/home/tyler-quinn/projects/SmartLeagues/contracts/SmartLeaguesBase.sol",
  "compiler": {
    "name": "solc",
    "version": "0.8.0+commit.c7dfd78e.Emscripten.clang"
  },
  "schemaVersion": "3.4.3",
  "updatedAt": "2021-10-19T01:15:36.601Z",
  "devdoc": {
    "kind": "dev",
    "methods": {},
    "version": 1
  },
  "userdoc": {
    "kind": "user",
    "methods": {},
    "version": 1
  }
}