{
  "contractName": "SmartLeagues",
  "abi": [
    {
      "inputs": [],
      "stateMutability": "nonpayable",
      "type": "constructor"
    },
    {
      "anonymous": false,
      "inputs": [
        {
          "indexed": true,
          "internalType": "address",
          "name": "_owner",
          "type": "address"
        },
        {
          "indexed": true,
          "internalType": "bytes32",
          "name": "_leagueHash",
          "type": "bytes32"
        }
      ],
      "name": "NewLeague",
      "type": "event"
    },
    {
      "stateMutability": "payable",
      "type": "fallback"
    },
    {
      "stateMutability": "payable",
      "type": "receive"
    },
    {
      "inputs": [
        {
          "internalType": "string",
          "name": "_name",
          "type": "string"
        }
      ],
      "name": "createLeague",
      "outputs": [],
      "stateMutability": "nonpayable",
      "type": "function"
    },
    {
      "inputs": [
        {
          "internalType": "string",
          "name": "_leagueName",
          "type": "string"
        },
        {
          "internalType": "uint256",
          "name": "_priceToJoin",
          "type": "uint256"
        },
        {
          "internalType": "uint256",
          "name": "_priceAcePool",
          "type": "uint256"
        },
        {
          "internalType": "uint256",
          "name": "_joinDeadlineMinutes",
          "type": "uint256"
        },
        {
          "internalType": "uint16",
          "name": "_maxPlayers",
          "type": "uint16"
        },
        {
          "internalType": "uint16",
          "name": "_numberOfHoles",
          "type": "uint16"
        },
        {
          "internalType": "uint8[]",
          "name": "_payoutPercentage",
          "type": "uint8[]"
        }
      ],
      "name": "startLeagueRound",
      "outputs": [],
      "stateMutability": "nonpayable",
      "type": "function"
    },
    {
      "inputs": [
        {
          "internalType": "string",
          "name": "_leagueName",
          "type": "string"
        },
        {
          "internalType": "string",
          "name": "_nickname",
          "type": "string"
        },
        {
          "internalType": "bool",
          "name": "_joinAcePool",
          "type": "bool"
        }
      ],
      "name": "joinLeagueRound",
      "outputs": [],
      "stateMutability": "payable",
      "type": "function"
    },
    {
      "inputs": [
        {
          "internalType": "string",
          "name": "_leagueName",
          "type": "string"
        },
        {
          "internalType": "uint16[]",
          "name": "_holeScore",
          "type": "uint16[]"
        }
      ],
      "name": "submitScores",
      "outputs": [],
      "stateMutability": "payable",
      "type": "function"
    },
    {
      "inputs": [
        {
          "internalType": "string",
          "name": "_leagueName",
          "type": "string"
        }
      ],
      "name": "forfeitRound",
      "outputs": [],
      "stateMutability": "nonpayable",
      "type": "function"
    },
    {
      "inputs": [
        {
          "internalType": "string",
          "name": "_leagueName",
          "type": "string"
        }
      ],
      "name": "getNumberOfPlayers",
      "outputs": [
        {
          "internalType": "uint16",
          "name": "",
          "type": "uint16"
        }
      ],
      "stateMutability": "view",
      "type": "function"
    },
    {
      "inputs": [
        {
          "internalType": "string",
          "name": "_leagueName",
          "type": "string"
        }
      ],
      "name": "getLeagueBalance",
      "outputs": [
        {
          "internalType": "uint256",
          "name": "",
          "type": "uint256"
        }
      ],
      "stateMutability": "view",
      "type": "function"
    },
    {
      "inputs": [
        {
          "internalType": "string",
          "name": "_leagueName",
          "type": "string"
        }
      ],
      "name": "getRoundBalance",
      "outputs": [
        {
          "internalType": "uint256",
          "name": "",
          "type": "uint256"
        }
      ],
      "stateMutability": "view",
      "type": "function"
    },
    {
      "inputs": [
        {
          "internalType": "string",
          "name": "_leagueName",
          "type": "string"
        }
      ],
      "name": "getAcePoolBalance",
      "outputs": [
        {
          "internalType": "uint256",
          "name": "",
          "type": "uint256"
        }
      ],
      "stateMutability": "view",
      "type": "function"
    }
  ],
  "bytecode": "0x60806040527fffffffffffffffffffffffffffffffffffffffffffffffffffffffffffffffff60045561ffff600560006101000a81548161ffff021916908361ffff16021790555034801561005357600080fd5b5060016000819055506152808061006b6000396000f3fe60806040526004361061008a5760003560e01c8063cef1464811610059578063cef1464814610152578063e95f82c01461018f578063ebc91661146101ab578063ee20cb4f146101d4578063f20446821461021157610091565b80633c8a19f21461009357806353277047146100d0578063a1170f15146100ec578063bd27ac3e1461011557610091565b3661009157005b005b34801561009f57600080fd5b506100ba60048036038101906100b59190613cf7565b61023a565b6040516100c79190614b61565b60405180910390f35b6100ea60048036038101906100e59190613d38565b61030e565b005b3480156100f857600080fd5b50610113600480360381019061010e9190613cf7565b610a6c565b005b34801561012157600080fd5b5061013c60048036038101906101379190613cf7565b610c3c565b6040516101499190614b46565b60405180910390f35b34801561015e57600080fd5b5061017960048036038101906101749190613cf7565b610d79565b6040516101869190614b61565b60405180910390f35b6101a960048036038101906101a49190613da4565b610eb3565b005b3480156101b757600080fd5b506101d260048036038101906101cd9190613e23565b61180c565b005b3480156101e057600080fd5b506101fb60048036038101906101f69190613cf7565b611e30565b6040516102089190614b61565b60405180910390f35b34801561021d57600080fd5b5061023860048036038101906102339190613cf7565b611f04565b005b600081600260008260405160200161025291906147fa565b60405160208183030381529060405280519060200120815260200190815260200160002060009054906101000a900460ff166102c3576040517f08c379a00000000000000000000000000000000000000000000000000000000081526004016102ba90614846565b60405180910390fd5b6000836040516020016102d691906147fa565b604051602081830303815290604052805190602001209050600160008281526020019081526020016000206002015492505050919050565b81600260008260405160200161032491906147fa565b60405160208183030381529060405280519060200120815260200190815260200160002060009054906101000a900460ff16610395576040517f08c379a000000000000000000000000000000000000000000000000000000000815260040161038c90614846565b60405180910390fd5b600260005414156103db576040517f08c379a00000000000000000000000000000000000000000000000000000000081526004016103d290614aa6565b60405180910390fd5b60026000819055506000836040516020016103f691906147fa565b60405160208183030381529060405280519060200120905060016000828152602001908152602001600020600c0160009054906101000a900460ff16610471576040517f08c379a000000000000000000000000000000000000000000000000000000000815260040161046890614ac6565b60405180910390fd5b600061047d85336122d2565b9050600560009054906101000a900461ffff1661ffff168161ffff1614156104da576040517f08c379a00000000000000000000000000000000000000000000000000000000081526004016104d190614946565b60405180910390fd5b600160008381526020019081526020016000206004016000018161ffff168154811061052f577f4e487b7100000000000000000000000000000000000000000000000000000000600052603260045260246000fd5b906000526020600020906005020160040160009054906101000a900460ff161561058e576040517f08c379a000000000000000000000000000000000000000000000000000000000815260040161058590614ae6565b60405180910390fd5b60018060008481526020019081526020016000206004016000018261ffff16815481106105e4577f4e487b7100000000000000000000000000000000000000000000000000000000600052603260045260246000fd5b906000526020600020906005020160040160006101000a81548160ff0219169083151502179055506001600083815260200190815260200160002060040160060160049054906101000a900461ffff1661ffff1684511461067a576040517f08c379a000000000000000000000000000000000000000000000000000000000815260040161067190614966565b60405180910390fd5b83600160008481526020019081526020016000206004016000018261ffff16815481106106d0577f4e487b7100000000000000000000000000000000000000000000000000000000600052603260045260246000fd5b906000526020600020906005020160020190805190602001906106f492919061365e565b506000805b6001600085815260200190815260200160002060040160060160049054906101000a900461ffff1661ffff168110156109455761077a868281518110610768577f4e487b7100000000000000000000000000000000000000000000000000000000600052603260045260246000fd5b602002602001015161ffff16836124a5565b9150600160008581526020019081526020016000206004016000018361ffff16815481106107d1577f4e487b7100000000000000000000000000000000000000000000000000000000600052603260045260246000fd5b906000526020600020906005020160040160019054906101000a900460ff16801561084057506001868281518110610832577f4e487b7100000000000000000000000000000000000000000000000000000000600052603260045260246000fd5b602002602001015161ffff16145b1561093257600160008581526020019081526020016000206004016000018361ffff168154811061089a577f4e487b7100000000000000000000000000000000000000000000000000000000600052603260045260246000fd5b906000526020600020906005020160040160029054906101000a90505060016000858152602001908152602001600020600401600501339080600181540180825580915050600190039060005260206000200160009091909190916101000a81548173ffffffffffffffffffffffffffffffffffffffff021916908373ffffffffffffffffffffffffffffffffffffffff1602179055505b808061093d906150e9565b9150506106f9565b5080600160008581526020019081526020016000206004016000018361ffff168154811061099c577f4e487b7100000000000000000000000000000000000000000000000000000000600052603260045260246000fd5b90600052602060002090600502016003018190555060016000848152602001908152602001600020600401600601600281819054906101000a900461ffff16809291906109e8906150be565b91906101000a81548161ffff021916908361ffff1602179055505060016000848152602001908152602001600020600401600001805490506001600085815260200190815260200160002060040160060160029054906101000a900461ffff1661ffff161415610a5c57610a5b866124bb565b5b5050506001600081905550505050565b806002600082604051602001610a8291906147fa565b60405160208183030381529060405280519060200120815260200190815260200160002060009054906101000a900460ff1615610af4576040517f08c379a0000000000000000000000000000000000000000000000000000000008152600401610aeb90614886565b60405180910390fd5b600082604051602001610b0791906147fa565b60405160208183030381529060405280519060200120905060016002600083815260200190815260200160002060006101000a81548160ff021916908315150217905550806001600083815260200190815260200160002060000181905550336001600083815260200190815260200160002060010160006101000a81548173ffffffffffffffffffffffffffffffffffffffff021916908373ffffffffffffffffffffffffffffffffffffffff1602179055506000600160008381526020019081526020016000206002018190555060006001600083815260200190815260200160002060030181905550803373ffffffffffffffffffffffffffffffffffffffff167f31c01fc8df5211cb4bb5037c775fee375f3277dd33bfb0a08b3bb0825f2ffaac60405160405180910390a3505050565b6000816002600082604051602001610c5491906147fa565b60405160208183030381529060405280519060200120815260200190815260200160002060009054906101000a900460ff16610cc5576040517f08c379a0000000000000000000000000000000000000000000000000000000008152600401610cbc90614846565b60405180910390fd5b600083604051602001610cd891906147fa565b60405160208183030381529060405280519060200120905060016000828152602001908152602001600020600c0160009054906101000a900460ff16610d53576040517f08c379a0000000000000000000000000000000000000000000000000000000008152600401610d4a90614a66565b60405180910390fd5b600160008281526020019081526020016000206004016000018054905092505050919050565b6000816002600082604051602001610d9191906147fa565b60405160208183030381529060405280519060200120815260200190815260200160002060009054906101000a900460ff16610e02576040517f08c379a0000000000000000000000000000000000000000000000000000000008152600401610df990614846565b60405180910390fd5b600083604051602001610e1591906147fa565b60405160208183030381529060405280519060200120905060016000828152602001908152602001600020600c0160009054906101000a900460ff16610e90576040517f08c379a0000000000000000000000000000000000000000000000000000000008152600401610e8790614a66565b60405180910390fd5b600160008281526020019081526020016000206004016001015492505050919050565b826002600082604051602001610ec991906147fa565b60405160208183030381529060405280519060200120815260200190815260200160002060009054906101000a900460ff16610f3a576040517f08c379a0000000000000000000000000000000000000000000000000000000008152600401610f3190614846565b60405180910390fd5b83600081604051602001610f4e91906147fa565b60405160208183030381529060405280519060200120905060005b60016000838152602001908152602001600020600401600001805490508161ffff161015611099573373ffffffffffffffffffffffffffffffffffffffff16600160008481526020019081526020016000206004016000018261ffff1681548110610ffd577f4e487b7100000000000000000000000000000000000000000000000000000000600052603260045260246000fd5b906000526020600020906005020160000160009054906101000a900473ffffffffffffffffffffffffffffffffffffffff1673ffffffffffffffffffffffffffffffffffffffff161415611086576040517f08c379a000000000000000000000000000000000000000000000000000000000815260040161107d906148e6565b60405180910390fd5b8080611091906150be565b915050610f69565b50600260005414156110e0576040517f08c379a00000000000000000000000000000000000000000000000000000000081526004016110d790614aa6565b60405180910390fd5b60026000819055506000866040516020016110fb91906147fa565b60405160208183030381529060405280519060200120905060016000828152602001908152602001600020600c0160009054906101000a900460ff16611176576040517f08c379a000000000000000000000000000000000000000000000000000000000815260040161116d906149e6565b60405180910390fd5b6001600082815260200190815260200160002060040160060160009054906101000a900461ffff1661ffff166001600083815260200190815260200160002060040160000180549050106111ff576040517f08c379a00000000000000000000000000000000000000000000000000000000081526004016111f690614986565b60405180910390fd5b611207613708565b33816000019073ffffffffffffffffffffffffffffffffffffffff16908173ffffffffffffffffffffffffffffffffffffffff168152505086816020018190525060008160800190151590811515815250508060400160608152508515611567576112a4600160008481526020019081526020016000206004016002015460016000858152602001908152602001600020600401600301546124a5565b34146112e5576040517f08c379a00000000000000000000000000000000000000000000000000000000081526004016112dc90614826565b60405180910390fd5b60016000838152602001908152602001600020600401600201546001600084815260200190815260200160002060040160010160008282546113279190614d33565b92505081905550600160008381526020019081526020016000206004016003015460016000848152602001908152602001600020600301600082825461136d9190614d33565b9250508190555060018160a00190151590811515815250506001600083815260200190815260200160002060040160000181908060018154018082558091505060019003906000526020600020906005020160009091909190915060008201518160000160006101000a81548173ffffffffffffffffffffffffffffffffffffffff021916908373ffffffffffffffffffffffffffffffffffffffff160217905550602082015181600101908051906020019061142b929190613761565b50604082015181600201908051906020019061144892919061365e565b506060820151816003015560808201518160040160006101000a81548160ff02191690831515021790555060a08201518160040160016101000a81548160ff02191690831515021790555060c08201518160040160026101000a81548160ff021916908315150217905550505060003073ffffffffffffffffffffffffffffffffffffffff16346040516114db90614811565b60006040518083038185875af1925050503d8060008114611518576040519150601f19603f3d011682016040523d82523d6000602084013e61151d565b606091505b5050905080611561576040517f08c379a0000000000000000000000000000000000000000000000000000000008152600401611558906148a6565b60405180910390fd5b506117fa565b600160008381526020019081526020016000206004016002015434146115c2576040517f08c379a00000000000000000000000000000000000000000000000000000000081526004016115b990614a46565b60405180910390fd5b60016000838152602001908152602001600020600401600201546001600084815260200190815260200160002060040160010160008282546116049190614d33565b9250508190555060008160a00190151590811515815250506001600083815260200190815260200160002060040160000181908060018154018082558091505060019003906000526020600020906005020160009091909190915060008201518160000160006101000a81548173ffffffffffffffffffffffffffffffffffffffff021916908373ffffffffffffffffffffffffffffffffffffffff16021790555060208201518160010190805190602001906116c2929190613761565b5060408201518160020190805190602001906116df92919061365e565b506060820151816003015560808201518160040160006101000a81548160ff02191690831515021790555060a08201518160040160016101000a81548160ff02191690831515021790555060c08201518160040160026101000a81548160ff021916908315150217905550505060003073ffffffffffffffffffffffffffffffffffffffff163460405161177290614811565b60006040518083038185875af1925050503d80600081146117af576040519150601f19603f3d011682016040523d82523d6000602084013e6117b4565b606091505b50509050806117f8576040517f08c379a00000000000000000000000000000000000000000000000000000000081526004016117ef906148a6565b60405180910390fd5b505b50506001600081905550505050505050565b86600260008260405160200161182291906147fa565b60405160208183030381529060405280519060200120815260200190815260200160002060009054906101000a900460ff16611893576040517f08c379a000000000000000000000000000000000000000000000000000000000815260040161188a90614846565b60405180910390fd5b873373ffffffffffffffffffffffffffffffffffffffff1660016000836040516020016118c091906147fa565b60405160208183030381529060405280519060200120815260200190815260200160002060010160009054906101000a900473ffffffffffffffffffffffffffffffffffffffff1673ffffffffffffffffffffffffffffffffffffffff161461195e576040517f08c379a000000000000000000000000000000000000000000000000000000000815260040161195590614866565b60405180910390fd5b60008960405160200161197191906147fa565b60405160208183030381529060405280519060200120905060016000828152602001908152602001600020600c0160009054906101000a900460ff16156119ed576040517f08c379a00000000000000000000000000000000000000000000000000000000081526004016119e490614b26565b60405180910390fd5b60008911611a30576040517f08c379a0000000000000000000000000000000000000000000000000000000008152600401611a2790614a06565b60405180910390fd5b6000881015611a74576040517f08c379a0000000000000000000000000000000000000000000000000000000008152600401611a6b906148c6565b60405180910390fd5b60018661ffff1611611abb576040517f08c379a0000000000000000000000000000000000000000000000000000000008152600401611ab290614926565b60405180910390fd5b6005871015611aff576040517f08c379a0000000000000000000000000000000000000000000000000000000008152600401611af690614906565b60405180910390fd5b60008561ffff1611611b46576040517f08c379a0000000000000000000000000000000000000000000000000000000008152600401611b3d906149c6565b60405180910390fd5b6000805b855181108015611b9e57506000868281518110611b90577f4e487b7100000000000000000000000000000000000000000000000000000000600052603260045260246000fd5b602002602001015160ff1614155b15611c4b57858181518110611bdc577f4e487b7100000000000000000000000000000000000000000000000000000000600052603260045260246000fd5b602002602001015182611bef9190614d89565b915060648260ff161115611c38576040517f08c379a0000000000000000000000000000000000000000000000000000000008152600401611c2f906149a6565b60405180910390fd5b8080611c43906150e9565b915050611b4a565b506001806000848152602001908152602001600020600c0160006101000a81548160ff021916908315150217905550600160008381526020019081526020016000206004016000016000611c9f91906137e7565b600160008381526020019081526020016000206004016005016000611cc4919061380b565b896001600084815260200190815260200160002060040160020181905550886001600084815260200190815260200160002060040160030181905550866001600084815260200190815260200160002060040160060160006101000a81548161ffff021916908361ffff16021790555060006001600084815260200190815260200160002060040160060160026101000a81548161ffff021916908361ffff160217905550611d7f42603c8a611d7a9190614e5b565b6124a5565b6001600084815260200190815260200160002060040160040181905550856001600084815260200190815260200160002060040160060160046101000a81548161ffff021916908361ffff160217905550600160008381526020019081526020016000206004016007016000611df5919061382c565b84600160008481526020019081526020016000206004016007019080519060200190611e22929190613854565b505050505050505050505050565b6000816002600082604051602001611e4891906147fa565b60405160208183030381529060405280519060200120815260200190815260200160002060009054906101000a900460ff16611eb9576040517f08c379a0000000000000000000000000000000000000000000000000000000008152600401611eb090614846565b60405180910390fd5b600083604051602001611ecc91906147fa565b604051602081830303815290604052805190602001209050600160008281526020019081526020016000206003015492505050919050565b806002600082604051602001611f1a91906147fa565b60405160208183030381529060405280519060200120815260200190815260200160002060009054906101000a900460ff16611f8b576040517f08c379a0000000000000000000000000000000000000000000000000000000008152600401611f8290614846565b60405180910390fd5b600082604051602001611f9e91906147fa565b60405160208183030381529060405280519060200120905060016000828152602001908152602001600020600c0160009054906101000a900460ff16612019576040517f08c379a000000000000000000000000000000000000000000000000000000000815260040161201090614ac6565b60405180910390fd5b600061202584336122d2565b9050600560009054906101000a900461ffff1661ffff168161ffff161415612082576040517f08c379a000000000000000000000000000000000000000000000000000000000815260040161207990614946565b60405180910390fd5b600160008381526020019081526020016000206004016000018161ffff16815481106120d7577f4e487b7100000000000000000000000000000000000000000000000000000000600052603260045260246000fd5b906000526020600020906005020160040160009054906101000a900460ff1615612136576040517f08c379a000000000000000000000000000000000000000000000000000000000815260040161212d90614ae6565b60405180910390fd5b60018060008481526020019081526020016000206004016000018261ffff168154811061218c577f4e487b7100000000000000000000000000000000000000000000000000000000600052603260045260246000fd5b906000526020600020906005020160040160006101000a81548160ff021916908315150217905550600454600160008481526020019081526020016000206004016000018261ffff168154811061220c577f4e487b7100000000000000000000000000000000000000000000000000000000600052603260045260246000fd5b90600052602060002090600502016003018190555060016000838152602001908152602001600020600401600601600281819054906101000a900461ffff1680929190612258906150be565b91906101000a81548161ffff021916908361ffff1602179055505060016000838152602001908152602001600020600401600001805490506001600084815260200190815260200160002060040160060160029054906101000a900461ffff1661ffff1614156122cc576122cb846124bb565b5b50505050565b60008260026000826040516020016122ea91906147fa565b60405160208183030381529060405280519060200120815260200190815260200160002060009054906101000a900460ff1661235b576040517f08c379a000000000000000000000000000000000000000000000000000000000815260040161235290614846565b60405180910390fd5b60008460405160200161236e91906147fa565b60405160208183030381529060405280519060200120905060005b60016000838152602001908152602001600020600401600001805490508161ffff161015612488578473ffffffffffffffffffffffffffffffffffffffff16600160008481526020019081526020016000206004016000018261ffff168154811061241d577f4e487b7100000000000000000000000000000000000000000000000000000000600052603260045260246000fd5b906000526020600020906005020160000160009054906101000a900473ffffffffffffffffffffffffffffffffffffffff1673ffffffffffffffffffffffffffffffffffffffff16141561247557809350505061249e565b8080612480906150be565b915050612389565b50600560009054906101000a900461ffff169250505b5092915050565b600081836124b39190614d33565b905092915050565b8060026000826040516020016124d191906147fa565b60405160208183030381529060405280519060200120815260200190815260200160002060009054906101000a900460ff16612542576040517f08c379a000000000000000000000000000000000000000000000000000000000815260040161253990614846565b60405180910390fd5b60008260405160200161255591906147fa565b60405160208183030381529060405280519060200120905060016000828152602001908152602001600020600c0160009054906101000a900460ff166125d0576040517f08c379a00000000000000000000000000000000000000000000000000000000081526004016125c790614ac6565b60405180910390fd5b60016000828152602001908152602001600020600401600001805490506001600083815260200190815260200160002060040160060160029054906101000a900461ffff1661ffff1614612659576040517f08c379a000000000000000000000000000000000000000000000000000000000815260040161265090614a86565b60405180910390fd5b6000806001600084815260200190815260200160002060040160050180549050146126bd576126ba60016000848152602001908152602001600020600301546001600085815260200190815260200160002060040160050180549050612ec2565b90505b6126f08260006001806000878152602001908152602001600020600401600001805490506126eb9190614f49565b612ed8565b60006001600084815260200190815260200160002060040160010154905060005b6001600085815260200190815260200160002060040160070180549050811080156127b05750600060016000868152602001908152602001600020600401600701828154811061278a577f4e487b7100000000000000000000000000000000000000000000000000000000600052603260045260246000fd5b90600052602060002090602091828204019190069054906101000a900460ff1660ff1614155b15612e26576000600190505b600160008681526020019081526020016000206004016000018161ffff16836127e59190614d33565b8154811061281c577f4e487b7100000000000000000000000000000000000000000000000000000000600052603260045260246000fd5b90600052602060002090600502016003015460016000878152602001908152602001600020600401600001838154811061287f577f4e487b7100000000000000000000000000000000000000000000000000000000600052603260045260246000fd5b90600052602060002090600502016003015414156128aa5780806128a2906150be565b9150506127bc565b6000805b8261ffff168161ffff161080156128ef575060016000888152602001908152602001600020600401600701805490508161ffff16856128ed9190614d33565b105b1561299757600160008881526020019081526020016000206004016007018161ffff168561291d9190614d33565b81548110612954577f4e487b7100000000000000000000000000000000000000000000000000000000600052603260045260246000fd5b90600052602060002090602091828204019190069054906101000a900460ff1660ff16826129829190614cfb565b9150808061298f906150be565b9150506128ae565b5060006129ac8261ffff168461ffff16612ec2565b905060006129c4826129bf886064612ec2565b613648565b905060005b8461ffff168161ffff161015612e0a5781600160008b8152602001908152602001600020600401600101541015612a35576040517f08c379a0000000000000000000000000000000000000000000000000000000008152600401612a2c90614b06565b60405180910390fd5b81600160008b81526020019081526020016000206004016001016000828254612a5e9190614f49565b92505081905550600160008a81526020019081526020016000206004016000018161ffff1696508681548110612abd577f4e487b7100000000000000000000000000000000000000000000000000000000600052603260045260246000fd5b906000526020600020906005020160040160029054906101000a900460ff1615612cb85787600160008b8152602001908152602001600020600401600101541015612b3d576040517f08c379a0000000000000000000000000000000000000000000000000000000008152600401612b3490614a26565b60405180910390fd5b87600160008b81526020019081526020016000206003016000828254612b639190614f49565b925050819055506000600160008b81526020019081526020016000206004016000018261ffff1688612b959190614d33565b81548110612bcc577f4e487b7100000000000000000000000000000000000000000000000000000000600052603260045260246000fd5b906000526020600020906005020160000160009054906101000a900473ffffffffffffffffffffffffffffffffffffffff1673ffffffffffffffffffffffffffffffffffffffff168984612c209190614d33565b604051612c2c90614811565b60006040518083038185875af1925050503d8060008114612c69576040519150601f19603f3d011682016040523d82523d6000602084013e612c6e565b606091505b5050905080612cb2576040517f08c379a0000000000000000000000000000000000000000000000000000000008152600401612ca9906148a6565b60405180910390fd5b50612df7565b6000600160008b81526020019081526020016000206004016000018261ffff1688612ce39190614d33565b81548110612d1a577f4e487b7100000000000000000000000000000000000000000000000000000000600052603260045260246000fd5b906000526020600020906005020160000160009054906101000a900473ffffffffffffffffffffffffffffffffffffffff1673ffffffffffffffffffffffffffffffffffffffff1683604051612d6f90614811565b60006040518083038185875af1925050503d8060008114612dac576040519150601f19603f3d011682016040523d82523d6000602084013e612db1565b606091505b5050905080612df5576040517f08c379a0000000000000000000000000000000000000000000000000000000008152600401612dec906148a6565b60405180910390fd5b505b8080612e02906150be565b9150506129c9565b508361ffff1685612e1b9190614d33565b945050505050612711565b506001600084815260200190815260200160002060040160010154600160008581526020019081526020016000206002016000828254612e669190614d33565b9250508190555060006001600085815260200190815260200160002060040160010181905550600060016000858152602001908152602001600020600c0160006101000a81548160ff0219169083151502179055505050505050565b60008183612ed09190614e2a565b905092915050565b6000829050600082905080821415612ef1575050613643565b60006001600087815260200190815260200160002060040160000160028686612f1a9190614eb5565b612f249190614dc0565b86612f2f9190614c67565b81548110612f66577f4e487b7100000000000000000000000000000000000000000000000000000000600052603260045260246000fd5b90600052602060002090600502016003015490505b818313613617575b80600160008881526020019081526020016000206004016000018481548110612fd5577f4e487b7100000000000000000000000000000000000000000000000000000000600052603260045260246000fd5b9060005260206000209060050201600301541015613000578280612ff890615075565b935050612f83565b5b600160008781526020019081526020016000206004016000018281548110613052577f4e487b7100000000000000000000000000000000000000000000000000000000600052603260045260246000fd5b90600052602060002090600502016003015481101561307e57818061307690614ffa565b925050613001565b8183136136125760006001600088815260200190815260200160002060040160000184815481106130d8577f4e487b7100000000000000000000000000000000000000000000000000000000600052603260045260246000fd5b90600052602060002090600502016040518060e00160405290816000820160009054906101000a900473ffffffffffffffffffffffffffffffffffffffff1673ffffffffffffffffffffffffffffffffffffffff1673ffffffffffffffffffffffffffffffffffffffff16815260200160018201805461315790615043565b80601f016020809104026020016040519081016040528092919081815260200182805461318390615043565b80156131d05780601f106131a5576101008083540402835291602001916131d0565b820191906000526020600020905b8154815290600101906020018083116131b357829003601f168201915b505050505081526020016002820180548060200260200160405190810160405280929190818152602001828054801561325057602002820191906000526020600020906000905b82829054906101000a900461ffff1661ffff16815260200190600201906020826001010492830192600103820291508084116132175790505b50505050508152602001600382015481526020016004820160009054906101000a900460ff161515151581526020016004820160019054906101000a900460ff161515151581526020016004820160029054906101000a900460ff1615151515815250509050600160008881526020019081526020016000206004016000018381548110613307577f4e487b7100000000000000000000000000000000000000000000000000000000600052603260045260246000fd5b9060005260206000209060050201600160008981526020019081526020016000206004016000018581548110613366577f4e487b7100000000000000000000000000000000000000000000000000000000600052603260045260246000fd5b90600052602060002090600502016000820160009054906101000a900473ffffffffffffffffffffffffffffffffffffffff168160000160006101000a81548173ffffffffffffffffffffffffffffffffffffffff021916908373ffffffffffffffffffffffffffffffffffffffff16021790555060018201816001019080546133ef90615043565b6133fa9291906138fb565b506002820181600201908054613411929190613988565b50600382015481600301556004820160009054906101000a900460ff168160040160006101000a81548160ff0219169083151502179055506004820160019054906101000a900460ff168160040160016101000a81548160ff0219169083151502179055506004820160029054906101000a900460ff168160040160026101000a81548160ff021916908315150217905550905050806001600089815260200190815260200160002060040160000184815481106134f8577f4e487b7100000000000000000000000000000000000000000000000000000000600052603260045260246000fd5b906000526020600020906005020160008201518160000160006101000a81548173ffffffffffffffffffffffffffffffffffffffff021916908373ffffffffffffffffffffffffffffffffffffffff1602179055506020820151816001019080519060200190613569929190613761565b50604082015181600201908051906020019061358692919061365e565b506060820151816003015560808201518160040160006101000a81548160ff02191690831515021790555060a08201518160040160016101000a81548160ff02191690831515021790555060c08201518160040160026101000a81548160ff02191690831515021790555090505083806135ff90615075565b945050828061360d90614ffa565b935050505b612f7b565b8185121561362b5761362a868684612ed8565b5b8383121561363f5761363e868486612ed8565b5b5050505b505050565b600081836136569190614e5b565b905092915050565b82805482825590600052602060002090600f016010900481019282156136f75791602002820160005b838211156136c757835183826101000a81548161ffff021916908361ffff1602179055509260200192600201602081600101049283019260010302613687565b80156136f55782816101000a81549061ffff02191690556002016020816001010492830192600103026136c7565b505b50905061370491906139e8565b5090565b6040518060e00160405280600073ffffffffffffffffffffffffffffffffffffffff1681526020016060815260200160608152602001600081526020016000151581526020016000151581526020016000151581525090565b82805461376d90615043565b90600052602060002090601f01602090048101928261378f57600085556137d6565b82601f106137a857805160ff19168380011785556137d6565b828001600101855582156137d6579182015b828111156137d55782518255916020019190600101906137ba565b5b5090506137e391906139e8565b5090565b50805460008255600502906000526020600020908101906138089190613a05565b50565b508054600082559060005260206000209081019061382991906139e8565b50565b50805460008255601f01602090049060005260206000209081019061385191906139e8565b50565b82805482825590600052602060002090601f016020900481019282156138ea5791602002820160005b838211156138bb57835183826101000a81548160ff021916908360ff160217905550926020019260010160208160000104928301926001030261387d565b80156138e85782816101000a81549060ff02191690556001016020816000010492830192600103026138bb565b505b5090506138f791906139e8565b5090565b82805461390790615043565b90600052602060002090601f0160209004810192826139295760008555613977565b82601f1061393a5780548555613977565b8280016001018555821561397757600052602060002091601f016020900482015b8281111561397657825482559160010191906001019061395b565b5b50905061398491906139e8565b5090565b82805482825590600052602060002090600f016010900481019282156139d757600052602060002091600f016010900482015b828111156139d65782548255916001019190600101906139bb565b5b5090506139e491906139e8565b5090565b5b80821115613a015760008160009055506001016139e9565b5090565b5b80821115613aa357600080820160006101000a81549073ffffffffffffffffffffffffffffffffffffffff0219169055600182016000613a469190613aa7565b600282016000613a569190613ae7565b60038201600090556004820160006101000a81549060ff02191690556004820160016101000a81549060ff02191690556004820160026101000a81549060ff021916905550600501613a06565b5090565b508054613ab390615043565b6000825580601f10613ac55750613ae4565b601f016020900490600052602060002090810190613ae391906139e8565b5b50565b50805460008255600f016010900490600052602060002090810190613b0c91906139e8565b50565b6000613b22613b1d84614bad565b614b7c565b90508083825260208201905082856020860282011115613b4157600080fd5b60005b85811015613b715781613b578882613cb8565b845260208401935060208301925050600181019050613b44565b5050509392505050565b6000613b8e613b8984614bd9565b614b7c565b90508083825260208201905082856020860282011115613bad57600080fd5b60005b85811015613bdd5781613bc38882613ce2565b845260208401935060208301925050600181019050613bb0565b5050509392505050565b6000613bfa613bf584614c05565b614b7c565b905082815260208101848484011115613c1257600080fd5b613c1d848285614fb8565b509392505050565b600082601f830112613c3657600080fd5b8135613c46848260208601613b0f565b91505092915050565b600082601f830112613c6057600080fd5b8135613c70848260208601613b7b565b91505092915050565b600081359050613c88816151ee565b92915050565b600082601f830112613c9f57600080fd5b8135613caf848260208601613be7565b91505092915050565b600081359050613cc781615205565b92915050565b600081359050613cdc8161521c565b92915050565b600081359050613cf181615233565b92915050565b600060208284031215613d0957600080fd5b600082013567ffffffffffffffff811115613d2357600080fd5b613d2f84828501613c8e565b91505092915050565b60008060408385031215613d4b57600080fd5b600083013567ffffffffffffffff811115613d6557600080fd5b613d7185828601613c8e565b925050602083013567ffffffffffffffff811115613d8e57600080fd5b613d9a85828601613c25565b9150509250929050565b600080600060608486031215613db957600080fd5b600084013567ffffffffffffffff811115613dd357600080fd5b613ddf86828701613c8e565b935050602084013567ffffffffffffffff811115613dfc57600080fd5b613e0886828701613c8e565b9250506040613e1986828701613c79565b9150509250925092565b600080600080600080600060e0888a031215613e3e57600080fd5b600088013567ffffffffffffffff811115613e5857600080fd5b613e648a828b01613c8e565b9750506020613e758a828b01613ccd565b9650506040613e868a828b01613ccd565b9550506060613e978a828b01613ccd565b9450506080613ea88a828b01613cb8565b93505060a0613eb98a828b01613cb8565b92505060c088013567ffffffffffffffff811115613ed657600080fd5b613ee28a828b01613c4f565b91505092959891949750929550565b6000613efc82614c35565b613f068185614c5c565b9350613f16818560208601614fc7565b80840191505092915050565b6000613f2f602883614c4b565b91507f496e636f72726563742066756e647320746f206a6f696e20726f756e64202b2060008301527f61636520706f6f6c0000000000000000000000000000000000000000000000006020830152604082019050919050565b6000613f95601a83614c4b565b91507f4c6561677565206e616d6520646f6573206e6f742065786973740000000000006000830152602082019050919050565b6000613fd5602383614c4b565b91507f4f6e6c79206c6561677565206f776e65722063616e207374617274206120726f60008301527f756e6400000000000000000000000000000000000000000000000000000000006020830152604082019050919050565b600061403b601a83614c4b565b91507f4c6561677565206e616d6520616c7265616479206578697374730000000000006000830152602082019050919050565b600061407b601483614c4b565b91507f4661696c656420746f2073656e642045746865720000000000000000000000006000830152602082019050919050565b60006140bb603f83614c4b565b91507f41636520706f6f6c207072696365206d757374206265206e6f6e2d6e6567617460008301527f6976652c2073657420746f207a65726f206966206e6f2061636520706f6f6c006020830152604082019050919050565b6000614121602583614c4b565b91507f4164647265737320616c726561647920696e636c7564656420696e207468652060008301527f726f756e640000000000000000000000000000000000000000000000000000006020830152604082019050919050565b6000614187604183614c4b565b91507f4a6f696e20646561646c696e65206d757374206265206174206c65617374203560008301527f206d696e7574657320746f20616c6c6f7720706c617965727320746f206a6f6960208301527f6e000000000000000000000000000000000000000000000000000000000000006040830152606082019050919050565b6000614213602b83614c4b565b91507f4d6178206e756d626572206f6620706c6179657273206d757374206265206d6f60008301527f7265207468616e206f6e650000000000000000000000000000000000000000006020830152604082019050919050565b6000614279602e83614c4b565b91507f41646472657373206973206e6f7420696e636c7564656420696e20746869732060008301527f6c6561677565277320726f756e640000000000000000000000000000000000006020830152604082019050919050565b60006142df602283614c4b565b91507f496e76616c69642061727261792073697a6520666f7220686f6c652073636f7260008301527f65730000000000000000000000000000000000000000000000000000000000006020830152604082019050919050565b6000614345601783614c4b565b91507f4e6f206d6f72652073706f747320617661696c61626c650000000000000000006000830152602082019050919050565b6000614385604383614c4b565b91507f5061796f757420736368656d6520696e76616c69642c20616c6c20706c61636560008301527f73206d757374206265206c657373207468616e206f7220657175616c20746f2060208301527f31303000000000000000000000000000000000000000000000000000000000006040830152606082019050919050565b6000614411603e83614c4b565b91507f4e65656420746f2068617665206120706f736974697665206e6f6e2d7a65726f60008301527f206e756d626572206f6620686f6c657320666f722074686520726f756e6400006020830152604082019050919050565b6000614477601c83614c4b565b91507f4120726f756e6420686173206e6f74206265656e2073746172746564000000006000830152602082019050919050565b60006144b7601e83614c4b565b91507f507269636520746f206a6f696e206d75737420626520706f73697469766500006000830152602082019050919050565b60006144f7600083614c40565b9150600082019050919050565b6000614511602c83614c4b565b91507f41636520706f6f6c2062616c616e6365206e6f74206c6172676520656e6f756760008301527f6820746f20706179206f757400000000000000000000000000000000000000006020830152604082019050919050565b6000614577601d83614c4b565b91507f496e636f72726563742066756e647320746f206a6f696e20726f756e640000006000830152602082019050919050565b60006145b7602683614c4b565b91507f54686973206c656167756520646f6573206e6f742068617665206120726f756e60008301527f64206f70656e00000000000000000000000000000000000000000000000000006020830152604082019050919050565b600061461d601983614c4b565b91507f5061796f757420636f6e646974696f6e73206e6f74206d6574000000000000006000830152602082019050919050565b600061465d601f83614c4b565b91507f5265656e7472616e637947756172643a207265656e7472616e742063616c6c006000830152602082019050919050565b600061469d602683614c4b565b91507f5468657265206973206e6f206f70656e20726f756e6420666f7220746869732060008301527f6c656167756500000000000000000000000000000000000000000000000000006020830152604082019050919050565b6000614703601883614c4b565b91507f53636f72657320616c7265616479207375626d697474656400000000000000006000830152602082019050919050565b6000614743602983614c4b565b91507f526f756e642062616c616e6365206e6f74206c6172676520656e6f756768207460008301527f6f20706179206f757400000000000000000000000000000000000000000000006020830152604082019050919050565b60006147a9601283614c4b565b91507f526f756e6420616c7265616479206f70656e00000000000000000000000000006000830152602082019050919050565b6147e581614f93565b82525050565b6147f481614fa1565b82525050565b60006148068284613ef1565b915081905092915050565b600061481c826144ea565b9150819050919050565b6000602082019050818103600083015261483f81613f22565b9050919050565b6000602082019050818103600083015261485f81613f88565b9050919050565b6000602082019050818103600083015261487f81613fc8565b9050919050565b6000602082019050818103600083015261489f8161402e565b9050919050565b600060208201905081810360008301526148bf8161406e565b9050919050565b600060208201905081810360008301526148df816140ae565b9050919050565b600060208201905081810360008301526148ff81614114565b9050919050565b6000602082019050818103600083015261491f8161417a565b9050919050565b6000602082019050818103600083015261493f81614206565b9050919050565b6000602082019050818103600083015261495f8161426c565b9050919050565b6000602082019050818103600083015261497f816142d2565b9050919050565b6000602082019050818103600083015261499f81614338565b9050919050565b600060208201905081810360008301526149bf81614378565b9050919050565b600060208201905081810360008301526149df81614404565b9050919050565b600060208201905081810360008301526149ff8161446a565b9050919050565b60006020820190508181036000830152614a1f816144aa565b9050919050565b60006020820190508181036000830152614a3f81614504565b9050919050565b60006020820190508181036000830152614a5f8161456a565b9050919050565b60006020820190508181036000830152614a7f816145aa565b9050919050565b60006020820190508181036000830152614a9f81614610565b9050919050565b60006020820190508181036000830152614abf81614650565b9050919050565b60006020820190508181036000830152614adf81614690565b9050919050565b60006020820190508181036000830152614aff816146f6565b9050919050565b60006020820190508181036000830152614b1f81614736565b9050919050565b60006020820190508181036000830152614b3f8161479c565b9050919050565b6000602082019050614b5b60008301846147dc565b92915050565b6000602082019050614b7660008301846147eb565b92915050565b6000604051905081810181811067ffffffffffffffff82111715614ba357614ba26151bf565b5b8060405250919050565b600067ffffffffffffffff821115614bc857614bc76151bf565b5b602082029050602081019050919050565b600067ffffffffffffffff821115614bf457614bf36151bf565b5b602082029050602081019050919050565b600067ffffffffffffffff821115614c2057614c1f6151bf565b5b601f19601f8301169050602081019050919050565b600081519050919050565b600081905092915050565b600082825260208201905092915050565b600081905092915050565b6000614c7282614f89565b9150614c7d83614f89565b9250817f7fffffffffffffffffffffffffffffffffffffffffffffffffffffffffffffff03831360008312151615614cb857614cb7615132565b5b817f8000000000000000000000000000000000000000000000000000000000000000038312600083121615614cf057614cef615132565b5b828201905092915050565b6000614d0682614f93565b9150614d1183614f93565b92508261ffff03821115614d2857614d27615132565b5b828201905092915050565b6000614d3e82614fa1565b9150614d4983614fa1565b9250827fffffffffffffffffffffffffffffffffffffffffffffffffffffffffffffffff03821115614d7e57614d7d615132565b5b828201905092915050565b6000614d9482614fab565b9150614d9f83614fab565b92508260ff03821115614db557614db4615132565b5b828201905092915050565b6000614dcb82614f89565b9150614dd683614f89565b925082614de657614de5615161565b5b600160000383147f800000000000000000000000000000000000000000000000000000000000000083141615614e1f57614e1e615132565b5b828205905092915050565b6000614e3582614fa1565b9150614e4083614fa1565b925082614e5057614e4f615161565b5b828204905092915050565b6000614e6682614fa1565b9150614e7183614fa1565b9250817fffffffffffffffffffffffffffffffffffffffffffffffffffffffffffffffff0483118215151615614eaa57614ea9615132565b5b828202905092915050565b6000614ec082614f89565b9150614ecb83614f89565b9250827f800000000000000000000000000000000000000000000000000000000000000001821260008412151615614f0657614f05615132565b5b827f7fffffffffffffffffffffffffffffffffffffffffffffffffffffffffffffff018213600084121615614f3e57614f3d615132565b5b828203905092915050565b6000614f5482614fa1565b9150614f5f83614fa1565b925082821015614f7257614f71615132565b5b828203905092915050565b60008115159050919050565b6000819050919050565b600061ffff82169050919050565b6000819050919050565b600060ff82169050919050565b82818337600083830152505050565b60005b83811015614fe5578082015181840152602081019050614fca565b83811115614ff4576000848401525b50505050565b600061500582614f89565b91507f800000000000000000000000000000000000000000000000000000000000000082141561503857615037615132565b5b600182039050919050565b6000600282049050600182168061505b57607f821691505b6020821081141561506f5761506e615190565b5b50919050565b600061508082614f89565b91507f7fffffffffffffffffffffffffffffffffffffffffffffffffffffffffffffff8214156150b3576150b2615132565b5b600182019050919050565b60006150c982614f93565b915061ffff8214156150de576150dd615132565b5b600182019050919050565b60006150f482614fa1565b91507fffffffffffffffffffffffffffffffffffffffffffffffffffffffffffffffff82141561512757615126615132565b5b600182019050919050565b7f4e487b7100000000000000000000000000000000000000000000000000000000600052601160045260246000fd5b7f4e487b7100000000000000000000000000000000000000000000000000000000600052601260045260246000fd5b7f4e487b7100000000000000000000000000000000000000000000000000000000600052602260045260246000fd5b7f4e487b7100000000000000000000000000000000000000000000000000000000600052604160045260246000fd5b6151f781614f7d565b811461520257600080fd5b50565b61520e81614f93565b811461521957600080fd5b50565b61522581614fa1565b811461523057600080fd5b50565b61523c81614fab565b811461524757600080fd5b5056fea2646970667358221220e8daabd861523d3194b9beee17f68735557946abef0cc31bdbddc1ea0716004b64736f6c63430008000033",
  "immutableReferences": {},
  "source": "//SPDX-License-Identifier: MIT\npragma solidity >=0.5.0 <0.9.0;\n\nimport \"./@openzeppelin/contracts/access/Ownable.sol\";\nimport \"./@openzeppelin/contracts/utils/math/SafeMath.sol\";\nimport \"./@openzeppelin/contracts/security/ReentrancyGuard.sol\";\n\ncontract SmartLeagues is ReentrancyGuard{\n    constructor() {\n    }\n\n    using SafeMath for uint256;\n    using SafeMath for uint64;\n    using SafeMath for uint16;\n\n    struct Player {\n        address payable userAddress;\n        string nickname;\n        uint16[] holeScores;\n        uint256 totalScore;\n        bool scoresSubmitted;\n        bool acePoolEntry;\n        bool acePoolWin;\n    }\n\n    struct Round {\n        Player[] player;\n        uint256 balance;            // total balance of entry fees\n        uint256 priceToJoin;\n        uint256 priceAcePool;\n        uint256 joinDeadline;       // when a new round is created, users cannot join round after joinDeadline\n        address[] acePoolWinners;   // contains all winners of the ace pool\n        uint16 maxPlayers;          // max number of players allowed in the round\n        uint16 finishedCount;       // how many have submitted scores\n        uint16 numberOfHoles;       // used for player.holeScores array size \n        uint8[] payoutPercentage;   // 0-100 percentage of pool paid out to winners where [0] is first place, [1] is seconds place, etc.\n                                    // any total percentage under 100, the leftover will be donated back to the league funds\n    }\n\n    struct League {\n        bytes32 name;                               // name: hash of name of league input upon creation\n        address owner;                              // owner: address that calls createLeague()\n        uint256 balance;                            // totalBalance: total balance deposited in this league\n        uint256 acePoolBalance;                     // acePoolBalance: total balance of current ace pool\n        Round round;                                // round: holds active round data\n        bool roundOpen;                             // roundOpen: 1 if there is an active round started that has not finished\n    }\n    \n    event NewLeague(address indexed _owner, bytes32 indexed _leagueHash);\n    //event NewRound(bytes32 indexed _leagueHash, Round indexed _roundData);\n    //event PlayerJoinedRound(address indexed _player, string indexed _nickname, bytes32 indexed _leagueHash);\n\n    mapping (bytes32 => League) internal nameToLeague;\n    mapping (bytes32 => bool) internal leagueNames;\n    mapping (address => bytes32) internal addressToLeagueRoundJoined;\n\n    uint256 MAX_UINT = 0xffffffffffffffffffffffffffffffffffffffffffffffffffffffffffffffff;\n    uint16 MAX_UINT16 = 0xffff;\n\n    modifier leagueExists(string memory _name) {\n        require(leagueNames[keccak256(abi.encodePacked(_name))], \"League name does not exist\");\n        _;\n    }\n\n    modifier leagueDoesNotExist(string memory _name) {\n        require(!leagueNames[keccak256(abi.encodePacked(_name))], \"League name already exists\");\n        _;\n    }\n\n    // can start a round if you are the league owner of this league \n    modifier startLeagueRoundAccess(string memory _leagueName) {\n        require(nameToLeague[keccak256(abi.encodePacked(_leagueName))].owner == msg.sender, \"Only league owner can start a round\");\n        _;\n    }\n\n    // allows function to run if msg.sender is not already part of this round\n    modifier playerNotInRound(string memory _leagueName) {\n        bytes32 nameHash = keccak256(abi.encodePacked(_leagueName));\n        for (uint16 i = 0; i < nameToLeague[nameHash].round.player.length; i++) {\n            require(nameToLeague[nameHash].round.player[i].userAddress != msg.sender, \"Address already included in the round\");\n        }\n        _;\n    }\n\n    // allows function to run if msg.sender is part of this round\n    modifier playerInRound(string memory _leagueName) {\n        bytes32 nameHash = keccak256(abi.encodePacked(_leagueName));\n        for (uint16 i = 0; i < nameToLeague[nameHash].round.player.length; i++) {\n            if (nameToLeague[nameHash].round.player[i].userAddress == msg.sender) {\n                _;\n            }\n        }\n        require(false, \"Address is not included in the round\");\n    }\n    \n    // Function to receive Ether. msg.data must be empty\n    receive() external payable {}\n\n    // Fallback function is called when msg.data is not empty\n    fallback() external payable {}\n\n    function createLeague(string memory _name) external leagueDoesNotExist(_name) {\n        bytes32 nameHash = keccak256(abi.encodePacked(_name));\n        // if unique name, add to the leagueNames\n        leagueNames[nameHash] = true;\n\n         // hash input for league name\n        nameToLeague[nameHash].name = nameHash;\n        // make caller owner of this league\n        nameToLeague[nameHash].owner = msg.sender;\n        // initialize balances\n        nameToLeague[nameHash].balance = 0;\n        nameToLeague[nameHash].acePoolBalance = 0;\n        \n        // create new league event\n        emit NewLeague(msg.sender, nameHash);\n    }\n\n    function startLeagueRound(\n        string memory _leagueName,\n        uint256 _priceToJoin,\n        uint256 _priceAcePool,\n        uint256 _joinDeadlineMinutes,\n        uint16 _maxPlayers,\n        uint16 _numberOfHoles,\n        uint8[] memory _payoutPercentage\n    )\n        external\n        leagueExists(_leagueName)\n        startLeagueRoundAccess(_leagueName)\n    {\n        bytes32 nameHash = keccak256(abi.encodePacked(_leagueName));\n        // cannot start a round if a round is already in progress\n        require(!nameToLeague[nameHash].roundOpen, \"Round already open\");\n        // price to join must be positive\n        require(_priceToJoin > 0, \"Price to join must be positive\");\n        // ace pool price must be non-negative\n        require(_priceAcePool >= 0, \"Ace pool price must be non-negative, set to zero if no ace pool\");\n        // amount of max players must be more than one\n        require(_maxPlayers > 1, \"Max number of players must be more than one\");\n        // join deadline must be at least 5 minutes to allow time for players to join\n        require(_joinDeadlineMinutes >= 5, \"Join deadline must be at least 5 minutes to allow players to join\");\n        // number of holes needs to be positive non-zero\n        require(_numberOfHoles > 0, \"Need to have a positive non-zero number of holes for the round\");\n        // validate payout scheme\n        uint8 _totalPayoutPercentage = 0;\n        for (uint i = 0; (i < _payoutPercentage.length) && (_payoutPercentage[i] != 0); i++) {\n            _totalPayoutPercentage += _payoutPercentage[i];\n            require(_totalPayoutPercentage <= 100, \"Payout scheme invalid, all places must be less than or equal to 100\");\n        }\n\n        // if all requirements met, start the round\n        nameToLeague[nameHash].roundOpen = true;\n        // clear players array\n        delete nameToLeague[nameHash].round.player;\n        delete nameToLeague[nameHash].round.acePoolWinners;\n        // set inputs to league round information\n        nameToLeague[nameHash].round.priceToJoin = _priceToJoin;\n        nameToLeague[nameHash].round.priceAcePool = _priceAcePool;\n        nameToLeague[nameHash].round.maxPlayers = _maxPlayers;\n        nameToLeague[nameHash].round.finishedCount = 0;\n        nameToLeague[nameHash].round.joinDeadline = SafeMath.add(block.timestamp, _joinDeadlineMinutes * 1 minutes);\n        nameToLeague[nameHash].round.numberOfHoles = _numberOfHoles;\n        delete nameToLeague[nameHash].round.payoutPercentage;\n        nameToLeague[nameHash].round.payoutPercentage = _payoutPercentage;\n        \n        // round data event\n        //emit NewRound(nameHash, nameToLeague[nameHash].round);\n    }\n\n    function joinLeagueRound(\n        string memory _leagueName,\n        string memory _nickname,\n        bool _joinAcePool\n    )\n        external\n        payable\n        leagueExists(_leagueName)\n        playerNotInRound(_leagueName)\n        nonReentrant()\n    {\n        bytes32 nameHash = keccak256(abi.encodePacked(_leagueName));\n        // a round has to already have been started\n        require(nameToLeague[nameHash].roundOpen, \"A round has not been started\");\n        // make sure there is an available space in the round\n        require(nameToLeague[nameHash].round.player.length < nameToLeague[nameHash].round.maxPlayers, \"No more spots available\");\n        // create temporary player that will later be pushed to the round player array\n        Player memory _player;\n        _player.userAddress = payable(msg.sender);\n        _player.nickname = _nickname;\n        _player.scoresSubmitted = false;\n        delete _player.holeScores;\n        // ensure the player has sent enough funds to join the round\n        if (_joinAcePool) {\n            require(msg.value == SafeMath.add(nameToLeague[nameHash].round.priceToJoin, nameToLeague[nameHash].round.priceAcePool), \"Incorrect funds to join round + ace pool\");\n            // adjust balances\n            nameToLeague[nameHash].round.balance += nameToLeague[nameHash].round.priceToJoin;\n            nameToLeague[nameHash].acePoolBalance += nameToLeague[nameHash].round.priceAcePool;\n            // modify player data\n            _player.acePoolEntry = true;\n            // push player to round\n            nameToLeague[nameHash].round.player.push(_player);\n            // send funds to contract\n            (bool sent,) = payable(address(this)).call{value: msg.value}(\"\");\n            require(sent, \"Failed to send Ether\");\n        } else {\n            require(msg.value == nameToLeague[nameHash].round.priceToJoin, \"Incorrect funds to join round\");\n            // adjust balance\n            nameToLeague[nameHash].round.balance += nameToLeague[nameHash].round.priceToJoin;\n            // modify player data\n            _player.acePoolEntry = false;\n            // push player to round\n            nameToLeague[nameHash].round.player.push(_player);\n            // send funds to contract\n            (bool sent,) = payable(address(this)).call{value: msg.value}(\"\");\n            require(sent, \"Failed to send Ether\");\n        }\n        // emit player joined event\n        //emit PlayerJoinedRound(msg.sender, _player.nickname, nameHash);\n    }\n\n    function submitScores(\n        string memory _leagueName,\n        uint16[] memory _holeScore\n    )\n        external\n        payable\n        leagueExists(_leagueName)\n        nonReentrant\n    {\n        bytes32 nameHash = keccak256(abi.encodePacked(_leagueName));\n        // league round must be open\n        require(nameToLeague[nameHash].roundOpen, \"There is no open round for this league\");\n        // get the index of the player in the round.player[] array; player must be in the array to continue\n        uint16 _index = addressInRound(_leagueName, msg.sender);\n        require(_index != MAX_UINT16, \"Address is not included in this league's round\");\n        // require that this player has not already submitted their scores\n        require(!nameToLeague[nameHash].round.player[_index].scoresSubmitted, \"Scores already submitted\");\n        nameToLeague[nameHash].round.player[_index].scoresSubmitted = true;\n        // The input _holeScore array size must be the same as the number of holes for the round\n        require(_holeScore.length == nameToLeague[nameHash].round.numberOfHoles, \"Invalid array size for hole scores\");\n        \n        // copy hole score inputs to round.player data\n        nameToLeague[nameHash].round.player[_index].holeScores = _holeScore;\n\n        // move inputted hole scores to the league round data\n        uint256 _scoreSum = 0;\n        for (uint256 i = 0; i < nameToLeague[nameHash].round.numberOfHoles; i++) {\n            // _scoreSum = SafeMath.add(uint256(nameToLeague[nameHash].round.player[_index].holeScores[i]), _scoreSum);\n            _scoreSum = SafeMath.add(uint256(_holeScore[i]), _scoreSum);\n            // if ace was had on this hole and player is in ace pool, set win ace pool \n            if (nameToLeague[nameHash].round.player[_index].acePoolEntry && _holeScore[i] == 1) {\n                nameToLeague[nameHash].round.player[_index].acePoolWin;\n                nameToLeague[nameHash].round.acePoolWinners.push(msg.sender);\n            }\n        }\n        nameToLeague[nameHash].round.player[_index].totalScore = _scoreSum;\n\n        // increment finished player count\n        nameToLeague[nameHash].round.finishedCount++;\n        // if the last player to finish, payout winners\n        if (nameToLeague[nameHash].round.finishedCount == nameToLeague[nameHash].round.player.length) {\n            payoutWinner(_leagueName);\n        }\n    }\n\n    function payoutWinner(string memory _leagueName)\n        internal\n        leagueExists(_leagueName)\n    {\n        bytes32 nameHash = keccak256(abi.encodePacked(_leagueName));\n        // league round must be open\n        require(nameToLeague[nameHash].roundOpen, \"There is no open round for this league\");\n        // when can payouts be done\n        require(nameToLeague[nameHash].round.finishedCount == nameToLeague[nameHash].round.player.length, \"Payout conditions not met\");\n        \n        // calculate ace pool payout \n        uint256 _acePoolPayout = 0;\n        if (nameToLeague[nameHash].round.acePoolWinners.length != 0) {\n            _acePoolPayout = SafeMath.div(nameToLeague[nameHash].acePoolBalance, nameToLeague[nameHash].round.acePoolWinners.length);\n        }\n\n        // sort player array within round data, players sorted by score from low to high\n        playerQuickSort(nameHash, 0, int(nameToLeague[nameHash].round.player.length - 1));\n\n        uint256 _totalRoundBalance = nameToLeague[nameHash].round.balance;\n        for (uint _payoutIndex = 0; (_payoutIndex < nameToLeague[nameHash].round.payoutPercentage.length) && (nameToLeague[nameHash].round.payoutPercentage[_payoutIndex] != 0); ) {\n            // i is the index in the payout scheme\n            // get number of tied players for this spot in the payout scheme\n            uint16 _playersInPlaceCount = 1;\n            while (nameToLeague[nameHash].round.player[_payoutIndex].totalScore == nameToLeague[nameHash].round.player[_payoutIndex + _playersInPlaceCount].totalScore) {\n                _playersInPlaceCount++;\n            }\n\n            // get total percentage of payouts due to this group of players\n            // if players are tied, the percent payouts get added together, divided by number of players tied, and distributed to all tied players\n            // ex: if 2 players are tied for 1st, the payout percents of 1st and 2nd get added together and divided by 2, and both players get this percent\n            uint16 _totalPlacePayoutPercentage = 0;\n            for (uint16 j = 0; (j < _playersInPlaceCount) && (_payoutIndex + j < nameToLeague[nameHash].round.payoutPercentage.length); j++) {\n                _totalPlacePayoutPercentage += nameToLeague[nameHash].round.payoutPercentage[_payoutIndex + j];\n            }\n            // get the percentage of the round balance that each player taking this place will receive\n            // integer division means there may be left over funds after payouts, these are rolled into the league balance\n            uint256 _percentPayoutForPlace = SafeMath.div(uint(_totalPlacePayoutPercentage), uint(_playersInPlaceCount));\n            // get total amount paid for this place\n            uint256 _amountPaid = SafeMath.mul(_percentPayoutForPlace, SafeMath.div(_totalRoundBalance, 100));\n\n            // payout all players in this place\n            for (uint16 j = 0; j < _playersInPlaceCount; j++) {\n                // subtract from round balance\n                require(nameToLeague[nameHash].round.balance >= _amountPaid, \"Round balance not large enough to pay out\");\n                nameToLeague[nameHash].round.balance -= _amountPaid;\n                if (nameToLeague[nameHash].round.player[_payoutIndex = j].acePoolWin) {\n                    require(nameToLeague[nameHash].round.balance >= _acePoolPayout, \"Ace pool balance not large enough to pay out\");\n                    nameToLeague[nameHash].acePoolBalance -= _acePoolPayout;\n                    // send to address\n                    (bool sent,) = nameToLeague[nameHash].round.player[_payoutIndex + j].userAddress.call{value: _amountPaid + _acePoolPayout}(\"\");\n                    require(sent, \"Failed to send Ether\");\n                } else {\n                    // send to address\n                    (bool sent,) = nameToLeague[nameHash].round.player[_payoutIndex + j].userAddress.call{value: _amountPaid}(\"\");\n                    require(sent, \"Failed to send Ether\");\n                }\n            }\n\n            // adjust player payout index to account for any ties before looping to next in line for payout check\n            _payoutIndex += _playersInPlaceCount;\n        }\n\n        // move any leftover funds to the league's balance\n        nameToLeague[nameHash].balance += nameToLeague[nameHash].round.balance;\n        nameToLeague[nameHash].round.balance = 0;\n        // close round\n        nameToLeague[nameHash].roundOpen = false;\n    }\n\n    // submits max value as this msg.sender's total score so it will automatically be last place\n    function forfeitRound(string memory _leagueName) external leagueExists(_leagueName) {\n        bytes32 nameHash = keccak256(abi.encodePacked(_leagueName));\n        // league must have an open round\n        require(nameToLeague[nameHash].roundOpen, \"There is no open round for this league\");\n        // get the index of the player in the round.player[] array; player must be in the array to continue\n        uint16 _index = addressInRound(_leagueName, msg.sender);\n        require(_index != MAX_UINT16, \"Address is not included in this league's round\");\n        // require that this player has not already submitted their scores\n        require(!nameToLeague[nameHash].round.player[_index].scoresSubmitted, \"Scores already submitted\");\n        nameToLeague[nameHash].round.player[_index].scoresSubmitted = true;\n\n        nameToLeague[nameHash].round.player[_index].totalScore = MAX_UINT;\n\n        // increment finished player count\n        nameToLeague[nameHash].round.finishedCount++;\n        // if the last player to finish, payout winners\n        if (nameToLeague[nameHash].round.finishedCount == nameToLeague[nameHash].round.player.length) {\n            payoutWinner(_leagueName);\n        }\n    }\n\n    // returns the index in the round's player[] array; if address is not in the league it will return max value of uint16(65535) \n    function addressInRound(string memory _leagueName, address _addressCheck)\n        internal\n        view\n        leagueExists(_leagueName)\n        returns(uint16)\n    {\n        bytes32 nameHash = keccak256(abi.encodePacked(_leagueName));\n        // loop through all players in the round and check if msg.sender is in the round\n        for (uint16 i = 0; i < nameToLeague[nameHash].round.player.length; i++) {\n            if(nameToLeague[nameHash].round.player[i].userAddress == _addressCheck) {\n                return(i);\n            }\n        }\n        return(MAX_UINT16);\n    }\n\n    function playerQuickSort(bytes32 _nameHash, int _left, int _right) internal {\n        int _i = _left;\n        int _j = _right;\n        if(_i==_j) return;\n        uint pivot = nameToLeague[_nameHash].round.player[uint(_left + (_right - _left) / 2)].totalScore;\n        while (_i <= _j) {\n            while (nameToLeague[_nameHash].round.player[uint(_i)].totalScore < pivot) _i++;\n            while (pivot < nameToLeague[_nameHash].round.player[uint(_j)].totalScore) _j--;\n            if (_i <= _j) {\n                Player memory _tempPlayer = nameToLeague[_nameHash].round.player[uint(_i)];     // must copy to a temporary location to swap positions in array\n                nameToLeague[_nameHash].round.player[uint(_i)] = nameToLeague[_nameHash].round.player[uint(_j)];\n                nameToLeague[_nameHash].round.player[uint(_j)] = _tempPlayer;\n                _i++;\n                _j--;\n            }\n        }\n        if (_left < _j)\n            playerQuickSort(_nameHash, _left, _j);\n        if (_i < _right)\n            playerQuickSort(_nameHash, _i, _right);\n    }\n    \n    function getNumberOfPlayers(string memory _leagueName) external view leagueExists(_leagueName) returns(uint16) {\n        bytes32 nameHash = keccak256(abi.encodePacked(_leagueName));\n        require(nameToLeague[nameHash].roundOpen, \"This league does not have a round open\");\n        return uint16(nameToLeague[nameHash].round.player.length);\n    }\n    \n    function getLeagueBalance(string memory _leagueName) external view leagueExists(_leagueName) returns(uint256) {\n        bytes32 nameHash = keccak256(abi.encodePacked(_leagueName));\n        return nameToLeague[nameHash].balance;\n    }\n    \n    function getRoundBalance(string memory _leagueName) external view leagueExists(_leagueName) returns(uint256) {\n        bytes32 nameHash = keccak256(abi.encodePacked(_leagueName));\n        require(nameToLeague[nameHash].roundOpen, \"This league does not have a round open\");\n        return nameToLeague[nameHash].round.balance;\n    }\n    \n    function getAcePoolBalance(string memory _leagueName) external view leagueExists(_leagueName) returns(uint256) {\n        bytes32 nameHash = keccak256(abi.encodePacked(_leagueName));\n        return nameToLeague[nameHash].acePoolBalance;\n    }\n}",
  "sourcePath": "/home/tyler-quinn/projects/SmartLeagues/contracts/SmartLeagues.sol",
  "compiler": {
    "name": "solc",
    "version": "0.8.0+commit.c7dfd78e.Emscripten.clang"
  },
  "schemaVersion": "3.4.3",
  "updatedAt": "2021-09-24T04:16:30.050Z",
  "devdoc": {
    "kind": "dev",
    "methods": {},
    "version": 1
  },
  "userdoc": {
    "kind": "user",
    "methods": {},
    "version": 1
  }
}